{
  "contractName": "AuctionManager",
  "abi": [
    {
      "constant": true,
      "inputs": [
        {
          "name": "",
          "type": "address"
        }
      ],
      "name": "engAuctionMap",
      "outputs": [
        {
          "name": "",
          "type": "uint256"
        }
      ],
      "payable": false,
      "stateMutability": "view",
      "type": "function"
    },
    {
      "constant": true,
      "inputs": [],
      "name": "managerOwner",
      "outputs": [
        {
          "name": "",
          "type": "address"
        }
      ],
      "payable": false,
      "stateMutability": "view",
      "type": "function"
    },
    {
      "constant": true,
      "inputs": [
        {
          "name": "",
          "type": "uint256"
        }
      ],
      "name": "engAuctionList",
      "outputs": [
        {
          "name": "",
          "type": "address"
        }
      ],
      "payable": false,
      "stateMutability": "view",
      "type": "function"
    },
    {
      "constant": true,
      "inputs": [
        {
          "name": "",
          "type": "uint256"
        }
      ],
      "name": "vicAuctionList",
      "outputs": [
        {
          "name": "",
          "type": "address"
        }
      ],
      "payable": false,
      "stateMutability": "view",
      "type": "function"
    },
    {
      "constant": true,
      "inputs": [
        {
          "name": "",
          "type": "address"
        }
      ],
      "name": "vicAuctionMap",
      "outputs": [
        {
          "name": "",
          "type": "uint256"
        }
      ],
      "payable": false,
      "stateMutability": "view",
      "type": "function"
    },
    {
      "constant": true,
      "inputs": [],
      "name": "couldCreateAuction",
      "outputs": [
        {
          "name": "",
          "type": "bool"
        }
      ],
      "payable": false,
      "stateMutability": "view",
      "type": "function"
    },
    {
      "inputs": [],
      "payable": false,
      "stateMutability": "nonpayable",
      "type": "constructor"
    },
    {
      "anonymous": false,
      "inputs": [
        {
          "indexed": false,
          "name": "detail",
          "type": "string"
        },
        {
          "indexed": false,
          "name": "auction",
          "type": "address"
        }
      ],
      "name": "LogEngCreateAuction",
      "type": "event"
    },
    {
      "anonymous": false,
      "inputs": [
        {
          "indexed": false,
          "name": "detail",
          "type": "string"
        },
        {
          "indexed": false,
          "name": "auction",
          "type": "address"
        }
      ],
      "name": "LogVicCreateAuction",
      "type": "event"
    },
    {
      "anonymous": false,
      "inputs": [
        {
          "indexed": false,
          "name": "detail",
          "type": "string"
        }
      ],
      "name": "LogStopAuctionCreation",
      "type": "event"
    },
    {
      "anonymous": false,
      "inputs": [
        {
          "indexed": false,
          "name": "detail",
          "type": "string"
        }
      ],
      "name": "LogStartAuctionCreation",
      "type": "event"
    },
    {
      "anonymous": false,
      "inputs": [
        {
          "indexed": false,
          "name": "detail",
          "type": "string"
        }
      ],
      "name": "LogDestroied",
      "type": "event"
    },
    {
      "constant": false,
      "inputs": [
        {
          "name": "resPrice",
          "type": "uint256"
        },
        {
          "name": "buyOut",
          "type": "uint256"
        },
        {
          "name": "incr",
          "type": "uint256"
        }
      ],
      "name": "createEnglishAuction",
      "outputs": [],
      "payable": false,
      "stateMutability": "nonpayable",
      "type": "function"
    },
    {
      "constant": false,
      "inputs": [
        {
          "name": "resPrice",
          "type": "uint256"
        },
        {
          "name": "depositValue",
          "type": "uint256"
        }
      ],
      "name": "createVicreyAuction",
      "outputs": [],
      "payable": false,
      "stateMutability": "nonpayable",
      "type": "function"
    },
    {
      "constant": false,
      "inputs": [],
      "name": "deleteEnglishAuction",
      "outputs": [],
      "payable": false,
      "stateMutability": "nonpayable",
      "type": "function"
    },
    {
      "constant": false,
      "inputs": [],
      "name": "deleteVicreyAuction",
      "outputs": [],
      "payable": false,
      "stateMutability": "nonpayable",
      "type": "function"
    },
    {
      "constant": true,
      "inputs": [],
      "name": "getAllAuctions",
      "outputs": [
        {
          "name": "english",
          "type": "address[]"
        },
        {
          "name": "vicrey",
          "type": "address[]"
        }
      ],
      "payable": false,
      "stateMutability": "view",
      "type": "function"
    },
    {
      "constant": false,
      "inputs": [],
      "name": "stopCreation",
      "outputs": [],
      "payable": false,
      "stateMutability": "nonpayable",
      "type": "function"
    },
    {
      "constant": false,
      "inputs": [],
      "name": "startCreation",
      "outputs": [],
      "payable": false,
      "stateMutability": "nonpayable",
      "type": "function"
    },
    {
      "constant": false,
      "inputs": [],
      "name": "destroyManager",
      "outputs": [],
      "payable": false,
      "stateMutability": "nonpayable",
      "type": "function"
    }
  ],
  "bytecode": "0x608060405234801561001057600080fd5b5033600460006101000a81548173ffffffffffffffffffffffffffffffffffffffff021916908373ffffffffffffffffffffffffffffffffffffffff1602179055506001600460146101000a81548160ff021916908315150217905550615bc38061007c6000396000f3006080604052600436106100d0576000357c0100000000000000000000000000000000000000000000000000000000900463ffffffff16806350ced617146100d557806367c431d41461010c5780636cd2f3211461014d5780636e7b69ca14610164578063929f91d8146101bb5780639411332714610212578063b3323b361461027f578063b6f7dce814610296578063c281c596146102ad578063cbd2bdfd1461031a578063d83a5860146103ce578063e9f9088e14610425578063fac5cc6a1461043c578063fd35263b14610453575b600080fd5b3480156100e157600080fd5b5061010a6004803603810190808035906020019092919080359060200190929190505050610482565b005b34801561011857600080fd5b5061014b6004803603810190808035906020019092919080359060200190929190803590602001909291905050506107bd565b005b34801561015957600080fd5b50610162610b02565b005b34801561017057600080fd5b506101a5600480360381019080803573ffffffffffffffffffffffffffffffffffffffff169060200190929190505050610c8f565b6040518082815260200191505060405180910390f35b3480156101c757600080fd5b506101d0610ca7565b604051808273ffffffffffffffffffffffffffffffffffffffff1673ffffffffffffffffffffffffffffffffffffffff16815260200191505060405180910390f35b34801561021e57600080fd5b5061023d60048036038101908080359060200190929190505050610ccd565b604051808273ffffffffffffffffffffffffffffffffffffffff1673ffffffffffffffffffffffffffffffffffffffff16815260200191505060405180910390f35b34801561028b57600080fd5b50610294610d0b565b005b3480156102a257600080fd5b506102ab610e9a565b005b3480156102b957600080fd5b506102d860048036038101908080359060200190929190505050610f9e565b604051808273ffffffffffffffffffffffffffffffffffffffff1673ffffffffffffffffffffffffffffffffffffffff16815260200191505060405180910390f35b34801561032657600080fd5b5061032f610fdc565b604051808060200180602001838103835285818151815260200191508051906020019060200280838360005b8381101561037657808201518184015260208101905061035b565b50505050905001838103825284818151815260200191508051906020019060200280838360005b838110156103b857808201518184015260208101905061039d565b5050505090500194505050505060405180910390f35b3480156103da57600080fd5b5061040f600480360381019080803573ffffffffffffffffffffffffffffffffffffffff1690602001909291905050506110fb565b6040518082815260200191505060405180910390f35b34801561043157600080fd5b5061043a611113565b005b34801561044857600080fd5b50610451611211565b005b34801561045f57600080fd5b50610468611315565b604051808215151515815260200191505060405180910390f35b6000600460149054906101000a900460ff16151561052e576040517f08c379a000000000000000000000000000000000000000000000000000000000815260040180806020018281038252602b8152602001807f49742773206e6f206c6f6e67657220706f737369626c6520746f20637265617481526020017f652061756374696f6e732100000000000000000000000000000000000000000081525060400191505060405180910390fd5b600460009054906101000a900473ffffffffffffffffffffffffffffffffffffffff1673ffffffffffffffffffffffffffffffffffffffff163373ffffffffffffffffffffffffffffffffffffffff161415151561058857fe5b828233600460009054906101000a900473ffffffffffffffffffffffffffffffffffffffff166105b6611328565b808581526020018481526020018373ffffffffffffffffffffffffffffffffffffffff1673ffffffffffffffffffffffffffffffffffffffff1681526020018273ffffffffffffffffffffffffffffffffffffffff1673ffffffffffffffffffffffffffffffffffffffff168152602001945050505050604051809103906000f080158015610649573d6000803e3d6000fd5b5090507fb363981f7d742b3e72f00ee6693bf604f93a2f5ae7552eee9ec9a9da72ada5708160405180806020018373ffffffffffffffffffffffffffffffffffffffff1673ffffffffffffffffffffffffffffffffffffffff168152602001828103825260268152602001807f41206e6577205669637265792041756374696f6e20686173206265656e20637281526020017f65617465642100000000000000000000000000000000000000000000000000008152506040019250505060405180910390a16001808290806001815401808255809150509060018203906000526020600020016000909192909190916101000a81548173ffffffffffffffffffffffffffffffffffffffff021916908373ffffffffffffffffffffffffffffffffffffffff16021790555003600360008373ffffffffffffffffffffffffffffffffffffffff1673ffffffffffffffffffffffffffffffffffffffff16815260200190815260200160002081905550505050565b6000600460149054906101000a900460ff161515610869576040517f08c379a000000000000000000000000000000000000000000000000000000000815260040180806020018281038252602b8152602001807f49742773206e6f206c6f6e67657220706f737369626c6520746f20637265617481526020017f652061756374696f6e732100000000000000000000000000000000000000000081525060400191505060405180910390fd5b600460009054906101000a900473ffffffffffffffffffffffffffffffffffffffff1673ffffffffffffffffffffffffffffffffffffffff163373ffffffffffffffffffffffffffffffffffffffff16141515156108c357fe5b83838333600460009054906101000a900473ffffffffffffffffffffffffffffffffffffffff166108f2611339565b808681526020018581526020018481526020018373ffffffffffffffffffffffffffffffffffffffff1673ffffffffffffffffffffffffffffffffffffffff1681526020018273ffffffffffffffffffffffffffffffffffffffff1673ffffffffffffffffffffffffffffffffffffffff16815260200195505050505050604051809103906000f08015801561098c573d6000803e3d6000fd5b5090507fa3d0ddfa241159b717f16bb0eeea3c843d133f0c6607e8eb87367b575ef18b138160405180806020018373ffffffffffffffffffffffffffffffffffffffff1673ffffffffffffffffffffffffffffffffffffffff168152602001828103825260278152602001807f41206e657720456e676c6973682041756374696f6e20686173206265656e206381526020017f72656174656421000000000000000000000000000000000000000000000000008152506040019250505060405180910390a1600160008290806001815401808255809150509060018203906000526020600020016000909192909190916101000a81548173ffffffffffffffffffffffffffffffffffffffff021916908373ffffffffffffffffffffffffffffffffffffffff16021790555003600260008373ffffffffffffffffffffffffffffffffffffffff1673ffffffffffffffffffffffffffffffffffffffff1681526020019081526020016000208190555050505050565b600080600360003373ffffffffffffffffffffffffffffffffffffffff1673ffffffffffffffffffffffffffffffffffffffff16815260200190815260200160002054915060008214151515610b5757600080fd5b60018054905090506001808203815481101515610b7057fe5b9060005260206000200160009054906101000a900473ffffffffffffffffffffffffffffffffffffffff16600183815481101515610baa57fe5b9060005260206000200160006101000a81548173ffffffffffffffffffffffffffffffffffffffff021916908373ffffffffffffffffffffffffffffffffffffffff1602179055506001808203815481101515610c0357fe5b9060005260206000200160006101000a81549073ffffffffffffffffffffffffffffffffffffffff02191690556001805480919060019003610c45919061134a565b506000600360003373ffffffffffffffffffffffffffffffffffffffff1673ffffffffffffffffffffffffffffffffffffffff168152602001908152602001600020819055505050565b60026020528060005260406000206000915090505481565b600460009054906101000a900473ffffffffffffffffffffffffffffffffffffffff1681565b600081815481101515610cdc57fe5b906000526020600020016000915054906101000a900473ffffffffffffffffffffffffffffffffffffffff1681565b600080600260003373ffffffffffffffffffffffffffffffffffffffff1673ffffffffffffffffffffffffffffffffffffffff16815260200190815260200160002054915060008214151515610d6057600080fd5b6000805490509050600060018203815481101515610d7a57fe5b9060005260206000200160009054906101000a900473ffffffffffffffffffffffffffffffffffffffff16600083815481101515610db457fe5b9060005260206000200160006101000a81548173ffffffffffffffffffffffffffffffffffffffff021916908373ffffffffffffffffffffffffffffffffffffffff160217905550600060018203815481101515610e0e57fe5b9060005260206000200160006101000a81549073ffffffffffffffffffffffffffffffffffffffff02191690556000805480919060019003610e50919061134a565b506000600260003373ffffffffffffffffffffffffffffffffffffffff1673ffffffffffffffffffffffffffffffffffffffff168152602001908152602001600020819055505050565b600460009054906101000a900473ffffffffffffffffffffffffffffffffffffffff1673ffffffffffffffffffffffffffffffffffffffff163373ffffffffffffffffffffffffffffffffffffffff16141515610ef357fe5b6000600460146101000a81548160ff0219169083151502179055507f1cf6c26a01961efae8509f9abf2f931ecb2ee5def99cd6f164fabcc23748e41760405180806020018281038252602b8152602001807f5468652061756374696f6e206372656174696f6e2069732074656d706f72616c81526020017f6c792073746f707065642100000000000000000000000000000000000000000081525060400191505060405180910390a1565b600181815481101515610fad57fe5b906000526020600020016000915054906101000a900473ffffffffffffffffffffffffffffffffffffffff1681565b606080600060018180548060200260200160405190810160405280929190818152602001828054801561106457602002820191906000526020600020905b8160009054906101000a900473ffffffffffffffffffffffffffffffffffffffff1673ffffffffffffffffffffffffffffffffffffffff168152602001906001019080831161101a575b50505050509150808054806020026020016040519081016040528092919081815260200182805480156110ec57602002820191906000526020600020905b8160009054906101000a900473ffffffffffffffffffffffffffffffffffffffff1673ffffffffffffffffffffffffffffffffffffffff16815260200190600101908083116110a2575b50505050509050915091509091565b60036020528060005260406000206000915090505481565b600460009054906101000a900473ffffffffffffffffffffffffffffffffffffffff1673ffffffffffffffffffffffffffffffffffffffff163373ffffffffffffffffffffffffffffffffffffffff1614151561116c57fe5b6000808054905014801561118557506000600180549050145b151561119057600080fd5b7f592350dc4c1747f6e73f39ea3de889f3436410edba937119b0da5687aae7214560405180806020018281038252601e8152602001807f546865206d616e616765722077696c6c2062652064657374726f79656421000081525060200191505060405180910390a13373ffffffffffffffffffffffffffffffffffffffff16ff5b600460009054906101000a900473ffffffffffffffffffffffffffffffffffffffff1673ffffffffffffffffffffffffffffffffffffffff163373ffffffffffffffffffffffffffffffffffffffff1614151561126a57fe5b6001600460146101000a81548160ff0219169083151502179055507fc7ac95bbb1f29fbc8e147405d804337f876e3e348fb3cee4d9fe63fb0ad4569b6040518080602001828103825260268152602001807f5468652061756374696f6e206372656174696f6e206973206e6f77206176616981526020017f6c61626c6521000000000000000000000000000000000000000000000000000081525060400191505060405180910390a1565b600460149054906101000a900460ff1681565b604051612749806200139c83390190565b6040516120b38062003ae583390190565b815481835581811115611371578183600052602060002091820191016113709190611376565b5b505050565b61139891905b8082111561139457600081600090555060010161137c565b5090565b905600608060405260008060006101000a81548160ff0219169083600581111561002257fe5b021790555034801561003357600080fd5b506040516080806200274983398101806040528101908080519060200190929190805190602001909291908051906020019092919080519060200190929190505050600084111515610113576040517f08c379a000000000000000000000000000000000000000000000000000000000815260040180806020018281038252602b8152602001807f5468652072657365727665207072696365206d7573742062652067726174657281526020017f207468616e207a65726f2100000000000000000000000000000000000000000081525060400191505060405180910390fd5b83600681905550836005819055508260018190555081600760006101000a81548173ffffffffffffffffffffffffffffffffffffffff021916908373ffffffffffffffffffffffffffffffffffffffff16021790555080600860006101000a81548173ffffffffffffffffffffffffffffffffffffffff021916908373ffffffffffffffffffffffffffffffffffffffff16021790555033600960006101000a81548173ffffffffffffffffffffffffffffffffffffffff021916908373ffffffffffffffffffffffffffffffffffffffff1602179055507f20a93b354024288ebb3e8893dcfb0fc10ac3171d14cd5094bf446efdd1303c62600080604051808060200184600581111561022357fe5b60ff16815260200183600581111561023757fe5b60ff1681526020018281038252601f8152602001807f41206e6577205669637265792061756374696f6e206973206372656174656400815250602001935050505060405180910390a1505050506124b580620002946000396000f3006080604052600436106100f1576000357c0100000000000000000000000000000000000000000000000000000000900463ffffffff168063052079c4146100f657806307225b4d1461015257806308551a531461017d5780632710ac80146101d45780632ad194c41461022b5780633ccfd60b1461028a5780633eadb6db146102a157806340ec1d52146102b8578063481c6a75146102cf5780634bb278f3146103265780638c6481171461033d578063b1c9fe6e14610368578063d0e30db0146103a1578063d57bde79146103cc578063db2e1eed146103f7578063f14fcbc814610422578063f38c2bc314610446575b600080fd5b610150600480360381019080803590602001908201803590602001908080601f016020809104026020016040519081016040528093929190818152602001838380828437820191505050505050919291929050505061049d565b005b34801561015e57600080fd5b50610167610d9e565b6040518082815260200191505060405180910390f35b34801561018957600080fd5b50610192610da4565b604051808273ffffffffffffffffffffffffffffffffffffffff1673ffffffffffffffffffffffffffffffffffffffff16815260200191505060405180910390f35b3480156101e057600080fd5b506101e9610dca565b604051808273ffffffffffffffffffffffffffffffffffffffff1673ffffffffffffffffffffffffffffffffffffffff16815260200191505060405180910390f35b34801561023757600080fd5b5061026c600480360381019080803573ffffffffffffffffffffffffffffffffffffffff169060200190929190505050610df0565b60405180826000191660001916815260200191505060405180910390f35b34801561029657600080fd5b5061029f610e08565b005b3480156102ad57600080fd5b506102b661113a565b005b3480156102c457600080fd5b506102cd61144c565b005b3480156102db57600080fd5b506102e4611976565b604051808273ffffffffffffffffffffffffffffffffffffffff1673ffffffffffffffffffffffffffffffffffffffff16815260200191505060405180910390f35b34801561033257600080fd5b5061033b61199c565b005b34801561034957600080fd5b5061035261204a565b6040518082815260200191505060405180910390f35b34801561037457600080fd5b5061037d612050565b6040518082600581111561038d57fe5b60ff16815260200191505060405180910390f35b3480156103ad57600080fd5b506103b6612062565b6040518082815260200191505060405180910390f35b3480156103d857600080fd5b506103e1612068565b6040518082815260200191505060405180910390f35b34801561040357600080fd5b5061040c61206e565b6040518082815260200191505060405180910390f35b6104446004803603810190808035600019169060200190929190505050612074565b005b34801561045257600080fd5b5061045b612463565b604051808273ffffffffffffffffffffffffffffffffffffffff1673ffffffffffffffffffffffffffffffffffffffff16815260200191505060405180910390f35b60008060008060008060008060009054906101000a900460ff169150600a5490506005810143101580156104e75750600460058111156104d957fe5b8260058111156104e557fe5b105b156105dc5743600a81905550600182600581111561050157fe5b01600581111561050d57fe5b6000806101000a81548160ff0219169083600581111561052957fe5b02179055507f20a93b354024288ebb3e8893dcfb0fc10ac3171d14cd5094bf446efdd1303c6282600184600581111561055e57fe5b01600581111561056a57fe5b604051808060200184600581111561057e57fe5b60ff16815260200183600581111561059257fe5b60ff168152602001828103825260108152602001807f5068617365206973206368616e67656400000000000000000000000000000000815250602001935050505060405180910390a15b60036000809054906101000a900460ff1660058111156105f857fe5b81600581111561060457fe5b1415156106c5576040517f08c379a000000000000000000000000000000000000000000000000000000000815260040180806020018281038252604b8152602001807f5065726d697373696f6e2064656e6965642c206f7065726174696f6e206f757481526020017f206f66207468652072696768742070686173652120436865636b20746865206181526020017f637475616c20706861736500000000000000000000000000000000000000000081525060600191505060405180910390fd5b6000600102600b60003373ffffffffffffffffffffffffffffffffffffffff1673ffffffffffffffffffffffffffffffffffffffff168152602001908152602001600020546000191614151515610784576040517f08c379a000000000000000000000000000000000000000000000000000000000815260040180806020018281038252601b8152602001807f596f7520617265206e6f7420696e207468652061756374696f6e21000000000081525060200191505060405180910390fd5b6006549750873410151515610827576040517f08c379a00000000000000000000000000000000000000000000000000000000081526004018080602001828103825260408152602001807f596f757220626964206973206c6f776572207468616e2074686520726573657281526020017f76652070726963652c20796f75206c6f736520796f7572206465706f7369742181525060400191505060405180910390fd5b88346040518083805190602001908083835b60208310151561085e5780518252602082019150602081019050602083039250610839565b6001836020036101000a03801982511681845116808217855250505050505090500182815260200192505050604051809103902060001916600b60003373ffffffffffffffffffffffffffffffffffffffff1673ffffffffffffffffffffffffffffffffffffffff1681526020019081526020016000205460001916141515610975576040517f08c379a000000000000000000000000000000000000000000000000000000000815260040180806020018281038252603e8152602001807f4e6f206d617463682c2070726f766964652074686520636f727265637420766181526020017f6c756573206f7220796f75206c6f736520796f7572206465706f73697421000081525060400191505060405180910390fd5b600354965060015495508594506000600102600b60003373ffffffffffffffffffffffffffffffffffffffff1673ffffffffffffffffffffffffffffffffffffffff16815260200190815260200160002081600019169055508634111515610adf573485019450346005541015610ada57346005819055507fb92520b54fb89cd962c5a5764f8ba3f7b5cff673985cc9376b931918e32f2efc34600460009054906101000a900473ffffffffffffffffffffffffffffffffffffffff1660405180806020018481526020018373ffffffffffffffffffffffffffffffffffffffff1673ffffffffffffffffffffffffffffffffffffffff168152602001828103825260288152602001807f546865207365636f6e6420686967686573742062696420686173206265656e2081526020017f7570646174656421000000000000000000000000000000000000000000000000815250604001935050505060405180910390a15b610d3c565b600460009054906101000a900473ffffffffffffffffffffffffffffffffffffffff1693503460038190555033600460006101000a81548173ffffffffffffffffffffffffffffffffffffffff021916908373ffffffffffffffffffffffffffffffffffffffff160217905550600073ffffffffffffffffffffffffffffffffffffffff168473ffffffffffffffffffffffffffffffffffffffff16141515610bd557866005819055508373ffffffffffffffffffffffffffffffffffffffff166108fc889081150290604051600060405180830381858888f19350505050158015610bcf573d6000803e3d6000fd5b50610bdd565b876005819055505b7f5caf3e78c234268774887562882f13d98c42065d5d2098040520b6fdad3ab210346040518080602001838152602001828103825260128152602001807f41206e65772068696768657374206269642100000000000000000000000000008152506020019250505060405180910390a17fb92520b54fb89cd962c5a5764f8ba3f7b5cff673985cc9376b931918e32f2efc600554600460009054906101000a900473ffffffffffffffffffffffffffffffffffffffff1660405180806020018481526020018373ffffffffffffffffffffffffffffffffffffffff1673ffffffffffffffffffffffffffffffffffffffff168152602001828103825260288152602001807f546865207365636f6e6420686967686573742062696420686173206265656e2081526020017f7570646174656421000000000000000000000000000000000000000000000000815250604001935050505060405180910390a15b856002600082825403925050819055503373ffffffffffffffffffffffffffffffffffffffff166108fc869081150290604051600060405180830381858888f19350505050158015610d92573d6000803e3d6000fd5b50505050505050505050565b600a5481565b600760009054906101000a900473ffffffffffffffffffffffffffffffffffffffff1681565b600960009054906101000a900473ffffffffffffffffffffffffffffffffffffffff1681565b600b6020528060005260406000206000915090505481565b60008060008060009054906101000a900460ff169150600a549050600581014310158015610e4c575060046005811115610e3e57fe5b826005811115610e4a57fe5b105b15610f415743600a819055506001826005811115610e6657fe5b016005811115610e7257fe5b6000806101000a81548160ff02191690836005811115610e8e57fe5b02179055507f20a93b354024288ebb3e8893dcfb0fc10ac3171d14cd5094bf446efdd1303c62826001846005811115610ec357fe5b016005811115610ecf57fe5b6040518080602001846005811115610ee357fe5b60ff168152602001836005811115610ef757fe5b60ff168152602001828103825260108152602001807f5068617365206973206368616e67656400000000000000000000000000000000815250602001935050505060405180910390a15b60026000809054906101000a900460ff166005811115610f5d57fe5b816005811115610f6957fe5b14151561102a576040517f08c379a000000000000000000000000000000000000000000000000000000000815260040180806020018281038252604b8152602001807f5065726d697373696f6e2064656e6965642c206f7065726174696f6e206f757481526020017f206f66207468652072696768742070686173652120436865636b20746865206181526020017f637475616c20706861736500000000000000000000000000000000000000000081525060600191505060405180910390fd5b6000600102600b60003373ffffffffffffffffffffffffffffffffffffffff1673ffffffffffffffffffffffffffffffffffffffff16815260200190815260200160002054600019161415151561108057600080fd5b600260015481151561108e57fe5b0493506000600102600b60003373ffffffffffffffffffffffffffffffffffffffff1673ffffffffffffffffffffffffffffffffffffffff1681526020019081526020016000208160001916905550836002600082825403925050819055503373ffffffffffffffffffffffffffffffffffffffff166108fc859081150290604051600060405180830381858888f19350505050158015611133573d6000803e3d6000fd5b5050505050565b600080600760009054906101000a900473ffffffffffffffffffffffffffffffffffffffff1673ffffffffffffffffffffffffffffffffffffffff163373ffffffffffffffffffffffffffffffffffffffff1614806111e65750600860009054906101000a900473ffffffffffffffffffffffffffffffffffffffff1673ffffffffffffffffffffffffffffffffffffffff163373ffffffffffffffffffffffffffffffffffffffff16145b15156111ee57fe5b6000809054906101000a900460ff169150600a5490506005810143101515156112cb576040517f08c379a000000000000000000000000000000000000000000000000000000000815260040180806020018281038252604d8152602001807f3520626c6f636b73206d757374206265206d696e6564206265666f726520796f81526020017f7520636f756c64206368616e67652070686173652e20506c656173652074727981526020017f20616761696e206c61746572210000000000000000000000000000000000000081525060600191505060405180910390fd5b600460058111156112d857fe5b8260058111156112e457fe5b101515611359576040517f08c379a00000000000000000000000000000000000000000000000000000000081526004018080602001828103825260198152602001807f41756374696f6e20697320616c726561647920656e646564210000000000000081525060200191505060405180910390fd5b43600a81905550600182600581111561136e57fe5b01600581111561137a57fe5b6000806101000a81548160ff0219169083600581111561139657fe5b02179055507f20a93b354024288ebb3e8893dcfb0fc10ac3171d14cd5094bf446efdd1303c628260018460058111156113cb57fe5b0160058111156113d757fe5b60405180806020018460058111156113eb57fe5b60ff1681526020018360058111156113ff57fe5b60ff168152602001828103825260108152602001807f5068617365206973206368616e67656400000000000000000000000000000000815250602001935050505060405180910390a15050565b600080600080600080600060056000809054906101000a900460ff16600581111561147357fe5b81600581111561147f57fe5b141515611540576040517f08c379a000000000000000000000000000000000000000000000000000000000815260040180806020018281038252604b8152602001807f5065726d697373696f6e2064656e6965642c206f7065726174696f6e206f757481526020017f206f66207468652072696768742070686173652120436865636b20746865206181526020017f637475616c20706861736500000000000000000000000000000000000000000081525060600191505060405180910390fd5b600460009054906101000a900473ffffffffffffffffffffffffffffffffffffffff169750600960009054906101000a900473ffffffffffffffffffffffffffffffffffffffff169650600760009054906101000a900473ffffffffffffffffffffffffffffffffffffffff1695508773ffffffffffffffffffffffffffffffffffffffff163373ffffffffffffffffffffffffffffffffffffffff1614806116485750600860009054906101000a900473ffffffffffffffffffffffffffffffffffffffff1673ffffffffffffffffffffffffffffffffffffffff163373ffffffffffffffffffffffffffffffffffffffff1614801561164757506105a0600a54014310155b5b15156116bc576040517f08c379a00000000000000000000000000000000000000000000000000000000081526004018080602001828103825260128152602001807f5065726d697373696f6e2044656e69656421000000000000000000000000000081525060200191505060405180910390fd5b6005549450600354935084840392506000600460006101000a81548173ffffffffffffffffffffffffffffffffffffffff021916908373ffffffffffffffffffffffffffffffffffffffff1602179055508773ffffffffffffffffffffffffffffffffffffffff166108fc849081150290604051600060405180830381858888f19350505050158015611753573d6000803e3d6000fd5b506000600760006101000a81548173ffffffffffffffffffffffffffffffffffffffff021916908373ffffffffffffffffffffffffffffffffffffffff1602179055508573ffffffffffffffffffffffffffffffffffffffff166108fc869081150290604051600060405180830381858888f193505050501580156117dc573d6000803e3d6000fd5b507f66eb258f8cd526decddb60d20a4fbcf9c87abf89183d4419d9dd9f5a1d5085ee856040518080602001838152602001828103825260278152602001807f5468652070656e64696e67207472616e7366657220686173206265656e20657881526020017f65637574656421000000000000000000000000000000000000000000000000008152506040019250505060405180910390a18691508173ffffffffffffffffffffffffffffffffffffffff16636cd2f3216040518163ffffffff167c0100000000000000000000000000000000000000000000000000000000028152600401600060405180830381600087803b1580156118da57600080fd5b505af11580156118ee573d6000803e3d6000fd5b50505050600960009054906101000a900473ffffffffffffffffffffffffffffffffffffffff1673ffffffffffffffffffffffffffffffffffffffff166108fc6002549081150290604051600060405180830381858888f1935050505015801561195c573d6000803e3d6000fd5b508573ffffffffffffffffffffffffffffffffffffffff16ff5b600860009054906101000a900473ffffffffffffffffffffffffffffffffffffffff1681565b60008060008060008060009054906101000a900460ff169150600a5490506005810143101580156119e35750600460058111156119d557fe5b8260058111156119e157fe5b105b15611ad85743600a8190555060018260058111156119fd57fe5b016005811115611a0957fe5b6000806101000a81548160ff02191690836005811115611a2557fe5b02179055507f20a93b354024288ebb3e8893dcfb0fc10ac3171d14cd5094bf446efdd1303c62826001846005811115611a5a57fe5b016005811115611a6657fe5b6040518080602001846005811115611a7a57fe5b60ff168152602001836005811115611a8e57fe5b60ff168152602001828103825260108152602001807f5068617365206973206368616e67656400000000000000000000000000000000815250602001935050505060405180910390a15b60046000809054906101000a900460ff166005811115611af457fe5b816005811115611b0057fe5b141515611bc1576040517f08c379a000000000000000000000000000000000000000000000000000000000815260040180806020018281038252604b8152602001807f5065726d697373696f6e2064656e6965642c206f7065726174696f6e206f757481526020017f206f66207468652072696768742070686173652120436865636b20746865206181526020017f637475616c20706861736500000000000000000000000000000000000000000081525060600191505060405180910390fd5b600760009054906101000a900473ffffffffffffffffffffffffffffffffffffffff1673ffffffffffffffffffffffffffffffffffffffff163373ffffffffffffffffffffffffffffffffffffffff161480611c6a5750600860009054906101000a900473ffffffffffffffffffffffffffffffffffffffff1673ffffffffffffffffffffffffffffffffffffffff163373ffffffffffffffffffffffffffffffffffffffff16145b1515611c7257fe5b600760009054906101000a900473ffffffffffffffffffffffffffffffffffffffff169550600460009054906101000a900473ffffffffffffffffffffffffffffffffffffffff169450600460009054906101000a900473ffffffffffffffffffffffffffffffffffffffff1673ffffffffffffffffffffffffffffffffffffffff163373ffffffffffffffffffffffffffffffffffffffff16141515611d1557fe5b7f649af8020253c009be6e7da27829695738a0177b4636adda9d86a7a244c753ed8560055460405180806020018473ffffffffffffffffffffffffffffffffffffffff1673ffffffffffffffffffffffffffffffffffffffff168152602001838152602001828103825260158152602001807f5468652061756374696f6e20697320656e646564210000000000000000000000815250602001935050505060405180910390a1600073ffffffffffffffffffffffffffffffffffffffff168573ffffffffffffffffffffffffffffffffffffffff16141515611ed7576000809054906101000a900460ff16935043600a819055506001846005811115611e1757fe5b016005811115611e2357fe5b6000806101000a81548160ff02191690836005811115611e3f57fe5b02179055507f05e17bc502f00339222045756cd45b20d1e2c68d44f423a1f6edcfe2226a92026040518080602001828103825260228152602001807f5468652070656e64696e67207472616e7366657220686173206265656e20736581526020017f742100000000000000000000000000000000000000000000000000000000000081525060400191505060405180910390a1612042565b7f649af8020253c009be6e7da27829695738a0177b4636adda9d86a7a244c753ed85600060405180806020018473ffffffffffffffffffffffffffffffffffffffff1673ffffffffffffffffffffffffffffffffffffffff168152602001838152602001828103825260158152602001807f5468652061756374696f6e20697320656e646564210000000000000000000000815250602001935050505060405180910390a1600960009054906101000a900473ffffffffffffffffffffffffffffffffffffffff1673ffffffffffffffffffffffffffffffffffffffff166108fc6002549081150290604051600060405180830381858888f19350505050158015611fe6573d6000803e3d6000fd5b506000600760006101000a81548173ffffffffffffffffffffffffffffffffffffffff021916908373ffffffffffffffffffffffffffffffffffffffff1602179055508573ffffffffffffffffffffffffffffffffffffffff16ff5b505050505050565b60055481565b6000809054906101000a900460ff1681565b60015481565b60035481565b60065481565b6000806000809054906101000a900460ff169150600a5490506005810143101580156120b65750600460058111156120a857fe5b8260058111156120b457fe5b105b156121ab5743600a8190555060018260058111156120d057fe5b0160058111156120dc57fe5b6000806101000a81548160ff021916908360058111156120f857fe5b02179055507f20a93b354024288ebb3e8893dcfb0fc10ac3171d14cd5094bf446efdd1303c6282600184600581111561212d57fe5b01600581111561213957fe5b604051808060200184600581111561214d57fe5b60ff16815260200183600581111561216157fe5b60ff168152602001828103825260108152602001807f5068617365206973206368616e67656400000000000000000000000000000000815250602001935050505060405180910390a15b60016000809054906101000a900460ff1660058111156121c757fe5b8160058111156121d357fe5b141515612294576040517f08c379a000000000000000000000000000000000000000000000000000000000815260040180806020018281038252604b8152602001807f5065726d697373696f6e2064656e6965642c206f7065726174696f6e206f757481526020017f206f66207468652072696768742070686173652120436865636b20746865206181526020017f637475616c20706861736500000000000000000000000000000000000000000081525060600191505060405180910390fd5b600760009054906101000a900473ffffffffffffffffffffffffffffffffffffffff1673ffffffffffffffffffffffffffffffffffffffff163373ffffffffffffffffffffffffffffffffffffffff16141515156122ee57fe5b6000600102600b60003373ffffffffffffffffffffffffffffffffffffffff1673ffffffffffffffffffffffffffffffffffffffff1681526020019081526020016000205460001916148015612345575060015434145b1515612405576040517f08c379a00000000000000000000000000000000000000000000000000000000081526004018080602001828103825260548152602001807f496620796f7520646f206e6f7420616c726561647920636f6d6d69742061206281526020017f69642c206d616b65207375726520746f6f2073656e6420746865206465706f7381526020017f697420616d6f756e7420636f72726563746c792100000000000000000000000081525060600191505060405180910390fd5b83600b60003373ffffffffffffffffffffffffffffffffffffffff1673ffffffffffffffffffffffffffffffffffffffff16815260200190815260200160002081600019169055503460026000828254019250508190555050505050565b600460009054906101000a900473ffffffffffffffffffffffffffffffffffffffff16815600a165627a7a7230582015c58509612a5bae7d65129a725ff722c9f0cd6840ca98e5336d63c9f226e3440029608060405260008060006101000a81548160ff0219169083600381111561002257fe5b021790555034801561003357600080fd5b5060405160a0806120b383398101806040528101908080519060200190929190805190602001909291908051906020019092919080519060200190929190805190602001909291905050508360018190555084600281905550846004819055508260038190555081600660006101000a81548173ffffffffffffffffffffffffffffffffffffffff021916908373ffffffffffffffffffffffffffffffffffffffff16021790555080600760006101000a81548173ffffffffffffffffffffffffffffffffffffffff021916908373ffffffffffffffffffffffffffffffffffffffff16021790555033600860006101000a81548173ffffffffffffffffffffffffffffffffffffffff021916908373ffffffffffffffffffffffffffffffffffffffff160217905550436009819055507f20a93b354024288ebb3e8893dcfb0fc10ac3171d14cd5094bf446efdd1303c62600080604051808060200184600381111561019c57fe5b60ff1681526020018360038111156101b057fe5b60ff168152602001828103825260208152602001807f41206e657720456e676c6973682061756374696f6e2069732063726561746564815250602001935050505060405180910390a15050505050611ea68061020d6000396000f3006080604052600436106100db576000357c0100000000000000000000000000000000000000000000000000000000900463ffffffff16806307225b4d146100e057806308551a531461010b57806308a0f32f14610162578063175b2304146101825780632710ac80146101ba5780633eadb6db1461021157806340ec1d5214610228578063481c6a751461023f5780634bb278f3146102965780638c648117146102ad578063b1c9fe6e146102d8578063b3cc167a14610311578063db2e1eed1461033c578063dcea711314610367578063f38c2bc314610392575b600080fd5b3480156100ec57600080fd5b506100f56103e9565b6040518082815260200191505060405180910390f35b34801561011757600080fd5b506101206103ef565b604051808273ffffffffffffffffffffffffffffffffffffffff1673ffffffffffffffffffffffffffffffffffffffff16815260200191505060405180910390f35b61018060048036038101908080359060200190929190505050610415565b005b6101a060048036038101908080359060200190929190505050610998565b604051808215151515815260200191505060405180910390f35b3480156101c657600080fd5b506101cf61102b565b604051808273ffffffffffffffffffffffffffffffffffffffff1673ffffffffffffffffffffffffffffffffffffffff16815260200191505060405180910390f35b34801561021d57600080fd5b50610226611051565b005b34801561023457600080fd5b5061023d611363565b005b34801561024b57600080fd5b5061025461176d565b604051808273ffffffffffffffffffffffffffffffffffffffff1673ffffffffffffffffffffffffffffffffffffffff16815260200191505060405180910390f35b3480156102a257600080fd5b506102ab611793565b005b3480156102b957600080fd5b506102c2611e2a565b6040518082815260200191505060405180910390f35b3480156102e457600080fd5b506102ed611e30565b604051808260038111156102fd57fe5b60ff16815260200191505060405180910390f35b34801561031d57600080fd5b50610326611e42565b6040518082815260200191505060405180910390f35b34801561034857600080fd5b50610351611e48565b6040518082815260200191505060405180910390f35b34801561037357600080fd5b5061037c611e4e565b6040518082815260200191505060405180910390f35b34801561039e57600080fd5b506103a7611e54565b604051808273ffffffffffffffffffffffffffffffffffffffff1673ffffffffffffffffffffffffffffffffffffffff16815260200191505060405180910390f35b60095481565b600660009054906101000a900473ffffffffffffffffffffffffffffffffffffffff1681565b60008060008060009054906101000a900460ff169150600954905060058101431015801561045957506002600381111561044b57fe5b82600381111561045757fe5b105b1561054e5743600981905550600182600381111561047357fe5b01600381111561047f57fe5b6000806101000a81548160ff0219169083600381111561049b57fe5b02179055507f20a93b354024288ebb3e8893dcfb0fc10ac3171d14cd5094bf446efdd1303c628260018460038111156104d057fe5b0160038111156104dc57fe5b60405180806020018460038111156104f057fe5b60ff16815260200183600381111561050457fe5b60ff168152602001828103825260108152602001807f5068617365206973206368616e67656400000000000000000000000000000000815250602001935050505060405180910390a15b60008060009054906101000a900460ff16600381111561056a57fe5b81600381111561057657fe5b141515610637576040517f08c379a000000000000000000000000000000000000000000000000000000000815260040180806020018281038252604b8152602001807f5065726d697373696f6e2064656e6965642c206f7065726174696f6e206f757481526020017f206f66207468652072696768742070686173652120436865636b20746865206181526020017f637475616c20706861736500000000000000000000000000000000000000000081525060600191505060405180910390fd5b600660009054906101000a900473ffffffffffffffffffffffffffffffffffffffff1673ffffffffffffffffffffffffffffffffffffffff163373ffffffffffffffffffffffffffffffffffffffff161415151561069157fe5b84348114151561072f576040517f08c379a000000000000000000000000000000000000000000000000000000000815260040180806020018281038252603e8152602001807f50726f766964656420696e70757420616d6f756e74206973206469666665726581526020017f6e742066726f6d2076616c75652073656e742c2074727920616761696e21000081525060400191505060405180910390fd5b6001549450843414151561073f57fe5b7fdd0c6853f3a322c140dc23f90c0191f57edeb662a8dbed09fa1df0d391a66fd16040518080602001828103825260498152602001807f54686520676f6f6420686173206265656e2073656c6c20666f7220697473206281526020017f61796f757420707269636521205468652061756374696f6e2077696c6c206e6f81526020017f742073746172747321000000000000000000000000000000000000000000000081525060600191505060405180910390a17f649af8020253c009be6e7da27829695738a0177b4636adda9d86a7a244c753ed338660405180806020018473ffffffffffffffffffffffffffffffffffffffff1673ffffffffffffffffffffffffffffffffffffffff168152602001838152602001828103825260158152602001807f5468652061756374696f6e20697320656e646564210000000000000000000000815250602001935050505060405180910390a14360098190555060036000806101000a81548160ff021916908360038111156108bc57fe5b021790555033600560006101000a81548173ffffffffffffffffffffffffffffffffffffffff021916908373ffffffffffffffffffffffffffffffffffffffff1602179055507f05e17bc502f00339222045756cd45b20d1e2c68d44f423a1f6edcfe2226a92026040518080602001828103825260228152602001807f5468652070656e64696e67207472616e7366657220686173206265656e20736581526020017f742100000000000000000000000000000000000000000000000000000000000081525060400191505060405180910390a1505050505050565b6000806000806000806000809054906101000a900460ff16915060095490506005810143101580156109e05750600260038111156109d257fe5b8260038111156109de57fe5b105b15610ad5574360098190555060018260038111156109fa57fe5b016003811115610a0657fe5b6000806101000a81548160ff02191690836003811115610a2257fe5b02179055507f20a93b354024288ebb3e8893dcfb0fc10ac3171d14cd5094bf446efdd1303c62826001846003811115610a5757fe5b016003811115610a6357fe5b6040518080602001846003811115610a7757fe5b60ff168152602001836003811115610a8b57fe5b60ff168152602001828103825260108152602001807f5068617365206973206368616e67656400000000000000000000000000000000815250602001935050505060405180910390a15b60016000809054906101000a900460ff166003811115610af157fe5b816003811115610afd57fe5b141515610bbe576040517f08c379a000000000000000000000000000000000000000000000000000000000815260040180806020018281038252604b8152602001807f5065726d697373696f6e2064656e6965642c206f7065726174696f6e206f757481526020017f206f66207468652072696768742070686173652120436865636b20746865206181526020017f637475616c20706861736500000000000000000000000000000000000000000081525060600191505060405180910390fd5b600660009054906101000a900473ffffffffffffffffffffffffffffffffffffffff1673ffffffffffffffffffffffffffffffffffffffff163373ffffffffffffffffffffffffffffffffffffffff1614151515610c1857fe5b873481141515610cb6576040517f08c379a000000000000000000000000000000000000000000000000000000000815260040180806020018281038252603e8152602001807f50726f766964656420696e70757420616d6f756e74206973206469666665726581526020017f6e742066726f6d2076616c75652073656e742c2074727920616761696e21000081525060400191505060405180910390fd5b600560009054906101000a900473ffffffffffffffffffffffffffffffffffffffff1696503373ffffffffffffffffffffffffffffffffffffffff168773ffffffffffffffffffffffffffffffffffffffff1614151515610da5576040517f08c379a00000000000000000000000000000000000000000000000000000000081526004018080602001828103825260298152602001807f596f7520617265207468652061637475616c2077696e6e6572206f662074686581526020017f2061756374696f6e21000000000000000000000000000000000000000000000081525060400191505060405180910390fd5b6004549550600073ffffffffffffffffffffffffffffffffffffffff168773ffffffffffffffffffffffffffffffffffffffff161415610de757859450610def565b600354860194505b84341015610edd577f625f343b17785b09309b5066f5b257924473f283219e999c1079fe663795ff01346040518080602001838152602001828103825260368152602001807f546865726520697320616c726561647920616e2068696768657374206269642c81526020017f2074727920746f20696e637265736520796f75727321000000000000000000008152506040019250505060405180910390a13373ffffffffffffffffffffffffffffffffffffffff166108fc349081150290604051600060405180830381858888f19350505050158015610ed3573d6000803e3d6000fd5b506000975061101f565b3460048190555033600560006101000a81548173ffffffffffffffffffffffffffffffffffffffff021916908373ffffffffffffffffffffffffffffffffffffffff160217905550600073ffffffffffffffffffffffffffffffffffffffff168773ffffffffffffffffffffffffffffffffffffffff16141515610fa3578673ffffffffffffffffffffffffffffffffffffffff166108fc879081150290604051600060405180830381858888f19350505050158015610fa1573d6000803e3d6000fd5b505b7f5caf3e78c234268774887562882f13d98c42065d5d2098040520b6fdad3ab210346040518080602001838152602001828103825260128152602001807f41206e65772068696768657374206269642100000000000000000000000000008152506020019250505060405180910390a143600981905550600197505b50505050505050919050565b600860009054906101000a900473ffffffffffffffffffffffffffffffffffffffff1681565b600080600660009054906101000a900473ffffffffffffffffffffffffffffffffffffffff1673ffffffffffffffffffffffffffffffffffffffff163373ffffffffffffffffffffffffffffffffffffffff1614806110fd5750600760009054906101000a900473ffffffffffffffffffffffffffffffffffffffff1673ffffffffffffffffffffffffffffffffffffffff163373ffffffffffffffffffffffffffffffffffffffff16145b151561110557fe5b6000809054906101000a900460ff16915060095490506005810143101515156111e2576040517f08c379a000000000000000000000000000000000000000000000000000000000815260040180806020018281038252604d8152602001807f3520626c6f636b73206d757374206265206d696e6564206265666f726520796f81526020017f7520636f756c64206368616e67652070686173652e20506c656173652074727981526020017f20616761696e206c61746572210000000000000000000000000000000000000081525060600191505060405180910390fd5b600260038111156111ef57fe5b8260038111156111fb57fe5b101515611270576040517f08c379a00000000000000000000000000000000000000000000000000000000081526004018080602001828103825260198152602001807f41756374696f6e20697320616c726561647920656e646564210000000000000081525060200191505060405180910390fd5b43600981905550600182600381111561128557fe5b01600381111561129157fe5b6000806101000a81548160ff021916908360038111156112ad57fe5b02179055507f20a93b354024288ebb3e8893dcfb0fc10ac3171d14cd5094bf446efdd1303c628260018460038111156112e257fe5b0160038111156112ee57fe5b604051808060200184600381111561130257fe5b60ff16815260200183600381111561131657fe5b60ff168152602001828103825260108152602001807f5068617365206973206368616e67656400000000000000000000000000000000815250602001935050505060405180910390a15050565b60008060008060036000809054906101000a900460ff16600381111561138557fe5b81600381111561139157fe5b141515611452576040517f08c379a000000000000000000000000000000000000000000000000000000000815260040180806020018281038252604b8152602001807f5065726d697373696f6e2064656e6965642c206f7065726174696f6e206f757481526020017f206f66207468652072696768742070686173652120436865636b20746865206181526020017f637475616c20706861736500000000000000000000000000000000000000000081525060600191505060405180910390fd5b600760009054906101000a900473ffffffffffffffffffffffffffffffffffffffff169450600660009054906101000a900473ffffffffffffffffffffffffffffffffffffffff169350600560009054906101000a900473ffffffffffffffffffffffffffffffffffffffff1673ffffffffffffffffffffffffffffffffffffffff163373ffffffffffffffffffffffffffffffffffffffff16148061153557508473ffffffffffffffffffffffffffffffffffffffff163373ffffffffffffffffffffffffffffffffffffffff1614801561153457506105a0600954014310155b5b15156115a9576040517f08c379a00000000000000000000000000000000000000000000000000000000081526004018080602001828103825260128152602001807f5065726d697373696f6e2064656e69656421000000000000000000000000000081525060200191505060405180910390fd5b600454925060006004819055508373ffffffffffffffffffffffffffffffffffffffff166108fc849081150290604051600060405180830381858888f193505050501580156115fc573d6000803e3d6000fd5b507f66eb258f8cd526decddb60d20a4fbcf9c87abf89183d4419d9dd9f5a1d5085ee836040518080602001838152602001828103825260278152602001807f5468652070656e64696e67207472616e7366657220686173206265656e20657881526020017f65637574656421000000000000000000000000000000000000000000000000008152506040019250505060405180910390a18491508173ffffffffffffffffffffffffffffffffffffffff1663b3323b366040518163ffffffff167c0100000000000000000000000000000000000000000000000000000000028152600401600060405180830381600087803b1580156116fa57600080fd5b505af115801561170e573d6000803e3d6000fd5b505050506000600660006101000a81548173ffffffffffffffffffffffffffffffffffffffff021916908373ffffffffffffffffffffffffffffffffffffffff1602179055508373ffffffffffffffffffffffffffffffffffffffff16ff5b600760009054906101000a900473ffffffffffffffffffffffffffffffffffffffff1681565b6000806000806000806000809054906101000a900460ff16915060095490506005810143101580156117db5750600260038111156117cd57fe5b8260038111156117d957fe5b105b156118d0574360098190555060018260038111156117f557fe5b01600381111561180157fe5b6000806101000a81548160ff0219169083600381111561181d57fe5b02179055507f20a93b354024288ebb3e8893dcfb0fc10ac3171d14cd5094bf446efdd1303c6282600184600381111561185257fe5b01600381111561185e57fe5b604051808060200184600381111561187257fe5b60ff16815260200183600381111561188657fe5b60ff168152602001828103825260108152602001807f5068617365206973206368616e67656400000000000000000000000000000000815250602001935050505060405180910390a15b60026000809054906101000a900460ff1660038111156118ec57fe5b8160038111156118f857fe5b1415156119b9576040517f08c379a000000000000000000000000000000000000000000000000000000000815260040180806020018281038252604b8152602001807f5065726d697373696f6e2064656e6965642c206f7065726174696f6e206f757481526020017f206f66207468652072696768742070686173652120436865636b20746865206181526020017f637475616c20706861736500000000000000000000000000000000000000000081525060600191505060405180910390fd5b600660009054906101000a900473ffffffffffffffffffffffffffffffffffffffff1673ffffffffffffffffffffffffffffffffffffffff163373ffffffffffffffffffffffffffffffffffffffff161480611a625750600760009054906101000a900473ffffffffffffffffffffffffffffffffffffffff1673ffffffffffffffffffffffffffffffffffffffff163373ffffffffffffffffffffffffffffffffffffffff16145b1515611a6a57fe5b600660009054906101000a900473ffffffffffffffffffffffffffffffffffffffff169650600560009054906101000a900473ffffffffffffffffffffffffffffffffffffffff1695508573ffffffffffffffffffffffffffffffffffffffff163373ffffffffffffffffffffffffffffffffffffffff16141515611aeb57fe5b7f649af8020253c009be6e7da27829695738a0177b4636adda9d86a7a244c753ed8660045460405180806020018473ffffffffffffffffffffffffffffffffffffffff1673ffffffffffffffffffffffffffffffffffffffff168152602001838152602001828103825260158152602001807f5468652061756374696f6e20697320656e646564210000000000000000000000815250602001935050505060405180910390a160008673ffffffffffffffffffffffffffffffffffffffff16141515611c97576000809054906101000a900460ff169450436009819055506001856003811115611bd757fe5b016003811115611be357fe5b6000806101000a81548160ff02191690836003811115611bff57fe5b02179055507f05e17bc502f00339222045756cd45b20d1e2c68d44f423a1f6edcfe2226a92026040518080602001828103825260228152602001807f5468652070656e64696e67207472616e7366657220686173206265656e20736581526020017f742100000000000000000000000000000000000000000000000000000000000081525060400191505060405180910390a1611e21565b7f6c359ec96a83dc104f3bd6b0111271d19c1a6ffe38b647e101104c1c0a09d7a160405180806020018281038252603f8152602001807f4e6f626f6479206d616b657320612062696420666f7220746865206974656d2c81526020017f2074727920746f2063726561746520616e6f746865722061756374696f6e210081525060400191505060405180910390a1600760009054906101000a900473ffffffffffffffffffffffffffffffffffffffff1693508373ffffffffffffffffffffffffffffffffffffffff1663b3323b366040518163ffffffff167c0100000000000000000000000000000000000000000000000000000000028152600401600060405180830381600087803b158015611dae57600080fd5b505af1158015611dc2573d6000803e3d6000fd5b505050506000600660006101000a81548173ffffffffffffffffffffffffffffffffffffffff021916908373ffffffffffffffffffffffffffffffffffffffff1602179055508673ffffffffffffffffffffffffffffffffffffffff16ff5b50505050505050565b60045481565b6000809054906101000a900460ff1681565b60035481565b60025481565b60015481565b600560009054906101000a900473ffffffffffffffffffffffffffffffffffffffff16815600a165627a7a72305820edb4335bb5e23ebd4484908b866083d80ce51252a2bbe65848e2e2619d2a94350029a165627a7a723058203abafe9ce155e7066c0011f39b9c0d144aae90776c48a90dc8e3ee9746fa5d280029",
  "source": "pragma solidity 0.4.23;\n\nimport \"./EnglishAuction.sol\";\nimport \"./VicreyAuction.sol\";\n\ncontract AuctionManager { \n\n    // map to store all hash of committers\n    address[] public engAuctionList;\n    address[] public vicAuctionList;\n\n    mapping(address => uint256) public engAuctionMap;\n    mapping(address => uint256) public vicAuctionMap;\n\n    address public managerOwner;\n\n    bool public couldCreateAuction;\n\n    event LogEngCreateAuction(string detail, address auction);\n    event LogVicCreateAuction(string detail, address auction);\n    event LogStopAuctionCreation(string detail);\n    event LogStartAuctionCreation(string detail);\n    event LogDestroied(string detail);\n\n    modifier couldCreate() {\n        require(couldCreateAuction, \n                \"It's no longer possible to create auctions!\");\n        _;\n    }\n\n    modifier owner() {\n        assert(msg.sender == managerOwner);\n        _;\n    }\n\n    constructor() public {\n        managerOwner = msg.sender;\n        couldCreateAuction = true;\n    }\n\n    function createEnglishAuction(uint256 resPrice, uint256 buyOut, uint256 incr) public couldCreate() {\n        assert(msg.sender != managerOwner);\n        EnglishAuction auction = new EnglishAuction(resPrice, buyOut, incr, msg.sender, managerOwner);\n        emit LogEngCreateAuction(\"A new English Auction has been created!\", auction);\n        engAuctionMap[auction] = engAuctionList.push(auction) - 1;\n    }\n\n    function createVicreyAuction(uint256 resPrice, uint256 depositValue) public couldCreate() {\n        assert(msg.sender != managerOwner);\n        VicreyAuction auction = new VicreyAuction(resPrice, depositValue, msg.sender, managerOwner);\n        emit LogVicCreateAuction(\"A new Vicrey Auction has been created!\", auction);\n        vicAuctionMap[auction] = vicAuctionList.push(auction) - 1;\n    }\n\n    function deleteEnglishAuction() public {\n        uint256 index = engAuctionMap[msg.sender];\n        require(index != 0);\n\n        uint256 lastIndex = engAuctionList.length;\n\n        engAuctionList[index] = engAuctionList[lastIndex-1];\n        delete engAuctionList[lastIndex - 1];\n        engAuctionList.length--;\n        engAuctionMap[msg.sender] = 0;\n    }\n\n    function deleteVicreyAuction() public {\n        uint256 index = vicAuctionMap[msg.sender];\n        require(index != 0);\n\n        uint256 lastIndex = vicAuctionList.length;\n\n        vicAuctionList[index] = vicAuctionList[lastIndex-1];\n        delete vicAuctionList[lastIndex - 1];\n        vicAuctionList.length--;\n        vicAuctionMap[msg.sender] = 0;\n\n    }\n\n    function getAllAuctions() public view returns(address[] english, address[] vicrey) {\n        return (engAuctionList, vicAuctionList);\n    }\n\n    function stopCreation() public owner() {\n        couldCreateAuction = false;\n\n        emit LogStopAuctionCreation(\"The auction creation is temporally stopped!\");\n    }\n\n    function startCreation() public owner() {\n        couldCreateAuction = true;\n\n        emit LogStartAuctionCreation(\"The auction creation is now available!\");\n    }\n\n    function destroyManager() public owner() {\n        require(engAuctionList.length == 0 && \n                vicAuctionList.length == 0);\n\n        emit LogDestroied(\"The manager will be destroyed!\");\n        \n        selfdestruct(msg.sender);\n    }\n}",
  "sourcePath": "/home/zed/Documenti/Dapp/contracts/AuctionManager.sol",
  "compiler": {
    "name": "solc",
    "version": "0.4.23+commit.124ca40d.Emscripten.clang"
  },
  "schemaVersion": "3.0.11",
  "updatedAt": "2019-07-27T17:29:02.747Z",
  "devdoc": {
    "methods": {}
  },
  "userdoc": {
    "methods": {}
  }
}