{
  "contractName": "AuctionManager",
  "abi": [
    {
      "constant": true,
      "inputs": [
        {
          "name": "",
          "type": "address"
        }
      ],
      "name": "engAuctionMap",
      "outputs": [
        {
          "name": "",
          "type": "uint256"
        }
      ],
      "payable": false,
      "stateMutability": "view",
      "type": "function",
      "signature": "0x6e7b69ca"
    },
    {
      "constant": true,
      "inputs": [],
      "name": "managerOwner",
      "outputs": [
        {
          "name": "",
          "type": "address"
        }
      ],
      "payable": false,
      "stateMutability": "view",
      "type": "function",
      "signature": "0x929f91d8"
    },
    {
      "constant": true,
      "inputs": [
        {
          "name": "",
          "type": "uint256"
        }
      ],
      "name": "engAuctionList",
      "outputs": [
        {
          "name": "",
          "type": "address"
        }
      ],
      "payable": false,
      "stateMutability": "view",
      "type": "function",
      "signature": "0x94113327"
    },
    {
      "constant": true,
      "inputs": [
        {
          "name": "",
          "type": "uint256"
        }
      ],
      "name": "vicAuctionList",
      "outputs": [
        {
          "name": "",
          "type": "address"
        }
      ],
      "payable": false,
      "stateMutability": "view",
      "type": "function",
      "signature": "0xc281c596"
    },
    {
      "constant": true,
      "inputs": [
        {
          "name": "",
          "type": "address"
        }
      ],
      "name": "vicAuctionMap",
      "outputs": [
        {
          "name": "",
          "type": "uint256"
        }
      ],
      "payable": false,
      "stateMutability": "view",
      "type": "function",
      "signature": "0xd83a5860"
    },
    {
      "constant": true,
      "inputs": [],
      "name": "couldCreateAuction",
      "outputs": [
        {
          "name": "",
          "type": "bool"
        }
      ],
      "payable": false,
      "stateMutability": "view",
      "type": "function",
      "signature": "0xfd35263b"
    },
    {
      "inputs": [],
      "payable": false,
      "stateMutability": "nonpayable",
      "type": "constructor",
      "signature": "constructor"
    },
    {
      "anonymous": false,
      "inputs": [
        {
          "indexed": false,
          "name": "detail",
          "type": "string"
        },
        {
          "indexed": false,
          "name": "auction",
          "type": "address"
        }
      ],
      "name": "LogEngCreateAuction",
      "type": "event",
      "signature": "0xa3d0ddfa241159b717f16bb0eeea3c843d133f0c6607e8eb87367b575ef18b13"
    },
    {
      "anonymous": false,
      "inputs": [
        {
          "indexed": false,
          "name": "detail",
          "type": "string"
        },
        {
          "indexed": false,
          "name": "auction",
          "type": "address"
        }
      ],
      "name": "LogVicCreateAuction",
      "type": "event",
      "signature": "0xb363981f7d742b3e72f00ee6693bf604f93a2f5ae7552eee9ec9a9da72ada570"
    },
    {
      "anonymous": false,
      "inputs": [
        {
          "indexed": false,
          "name": "detail",
          "type": "string"
        }
      ],
      "name": "LogStopAuctionCreation",
      "type": "event",
      "signature": "0x1cf6c26a01961efae8509f9abf2f931ecb2ee5def99cd6f164fabcc23748e417"
    },
    {
      "anonymous": false,
      "inputs": [
        {
          "indexed": false,
          "name": "detail",
          "type": "string"
        }
      ],
      "name": "LogStartAuctionCreation",
      "type": "event",
      "signature": "0xc7ac95bbb1f29fbc8e147405d804337f876e3e348fb3cee4d9fe63fb0ad4569b"
    },
    {
      "anonymous": false,
      "inputs": [
        {
          "indexed": false,
          "name": "detail",
          "type": "string"
        }
      ],
      "name": "LogDestroied",
      "type": "event",
      "signature": "0x592350dc4c1747f6e73f39ea3de889f3436410edba937119b0da5687aae72145"
    },
    {
      "constant": false,
      "inputs": [
        {
          "name": "resPrice",
          "type": "uint256"
        },
        {
          "name": "buyOut",
          "type": "uint256"
        },
        {
          "name": "incr",
          "type": "uint256"
        }
      ],
      "name": "createEnglishAuction",
      "outputs": [],
      "payable": false,
      "stateMutability": "nonpayable",
      "type": "function",
      "signature": "0x67c431d4"
    },
    {
      "constant": false,
      "inputs": [
        {
          "name": "resPrice",
          "type": "uint256"
        },
        {
          "name": "depositValue",
          "type": "uint256"
        }
      ],
      "name": "createVicreyAuction",
      "outputs": [],
      "payable": false,
      "stateMutability": "nonpayable",
      "type": "function",
      "signature": "0x50ced617"
    },
    {
      "constant": false,
      "inputs": [],
      "name": "deleteEnglishAuction",
      "outputs": [],
      "payable": false,
      "stateMutability": "nonpayable",
      "type": "function",
      "signature": "0xb3323b36"
    },
    {
      "constant": false,
      "inputs": [],
      "name": "deleteVicreyAuction",
      "outputs": [],
      "payable": false,
      "stateMutability": "nonpayable",
      "type": "function",
      "signature": "0x6cd2f321"
    },
    {
      "constant": true,
      "inputs": [],
      "name": "getEnglishAuctions",
      "outputs": [
        {
          "name": "english",
          "type": "address[]"
        }
      ],
      "payable": false,
      "stateMutability": "view",
      "type": "function",
      "signature": "0x51b84acd"
    },
    {
      "constant": true,
      "inputs": [],
      "name": "getVicreyAuctions",
      "outputs": [
        {
          "name": "vicrey",
          "type": "address[]"
        }
      ],
      "payable": false,
      "stateMutability": "view",
      "type": "function",
      "signature": "0xa26a0599"
    },
    {
      "constant": false,
      "inputs": [],
      "name": "stopCreation",
      "outputs": [],
      "payable": false,
      "stateMutability": "nonpayable",
      "type": "function",
      "signature": "0xb6f7dce8"
    },
    {
      "constant": false,
      "inputs": [],
      "name": "startCreation",
      "outputs": [],
      "payable": false,
      "stateMutability": "nonpayable",
      "type": "function",
      "signature": "0xfac5cc6a"
    },
    {
      "constant": false,
      "inputs": [],
      "name": "destroyManager",
      "outputs": [],
      "payable": false,
      "stateMutability": "nonpayable",
      "type": "function",
      "signature": "0xe9f9088e"
    }
  ],
  "bytecode": "0x608060405234801561001057600080fd5b5033600460006101000a81548173ffffffffffffffffffffffffffffffffffffffff021916908373ffffffffffffffffffffffffffffffffffffffff1602179055506001600460146101000a81548160ff02191690831515021790555061561a8061007c6000396000f3fe608060405260043610620000eb576000357c0100000000000000000000000000000000000000000000000000000000900463ffffffff16806350ced61714620000f057806351b84acd146200013957806367c431d414620001aa5780636cd2f32114620001fd5780636e7b69ca1462000217578063929f91d814620002805780639411332714620002da578063a26a05991462000359578063b3323b3614620003ca578063b6f7dce814620003e4578063c281c59614620003fe578063d83a5860146200047d578063e9f9088e14620004e6578063fac5cc6a1462000500578063fd35263b146200051a575b600080fd5b348015620000fd57600080fd5b5062000137600480360360408110156200011657600080fd5b8101908080359060200190929190803590602001909291905050506200054c565b005b3480156200014657600080fd5b50620001516200088a565b6040518080602001828103825283818151815260200191508051906020019060200280838360005b838110156200019657808201518184015260208101905062000179565b505050509050019250505060405180910390f35b348015620001b757600080fd5b50620001fb60048036036060811015620001d057600080fd5b810190808035906020019092919080359060200190929190803590602001909291905050506200091a565b005b3480156200020a57600080fd5b506200021562000c61565b005b3480156200022457600080fd5b506200026a600480360360208110156200023d57600080fd5b81019080803573ffffffffffffffffffffffffffffffffffffffff16906020019092919050505062000eb4565b6040518082815260200191505060405180910390f35b3480156200028d57600080fd5b506200029862000ecc565b604051808273ffffffffffffffffffffffffffffffffffffffff1673ffffffffffffffffffffffffffffffffffffffff16815260200191505060405180910390f35b348015620002e757600080fd5b5062000317600480360360208110156200030057600080fd5b810190808035906020019092919050505062000ef2565b604051808273ffffffffffffffffffffffffffffffffffffffff1673ffffffffffffffffffffffffffffffffffffffff16815260200191505060405180910390f35b3480156200036657600080fd5b506200037162000f31565b6040518080602001828103825283818151815260200191508051906020019060200280838360005b83811015620003b657808201518184015260208101905062000399565b505050509050019250505060405180910390f35b348015620003d757600080fd5b50620003e262000fc1565b005b348015620003f157600080fd5b50620003fc62001214565b005b3480156200040b57600080fd5b506200043b600480360360208110156200042457600080fd5b810190808035906020019092919050505062001319565b604051808273ffffffffffffffffffffffffffffffffffffffff1673ffffffffffffffffffffffffffffffffffffffff16815260200191505060405180910390f35b3480156200048a57600080fd5b50620004d060048036036020811015620004a357600080fd5b81019080803573ffffffffffffffffffffffffffffffffffffffff16906020019092919050505062001358565b6040518082815260200191505060405180910390f35b348015620004f357600080fd5b50620004fe62001370565b005b3480156200050d57600080fd5b506200051862001526565b005b3480156200052757600080fd5b50620005326200162b565b604051808215151515815260200191505060405180910390f35b600460149054906101000a900460ff161515620005f7576040517f08c379a000000000000000000000000000000000000000000000000000000000815260040180806020018281038252602b8152602001807f49742773206e6f206c6f6e67657220706f737369626c6520746f20637265617481526020017f652061756374696f6e732100000000000000000000000000000000000000000081525060400191505060405180910390fd5b600460009054906101000a900473ffffffffffffffffffffffffffffffffffffffff1673ffffffffffffffffffffffffffffffffffffffff163373ffffffffffffffffffffffffffffffffffffffff16141515156200065257fe5b6000828233600460009054906101000a900473ffffffffffffffffffffffffffffffffffffffff16620006846200163e565b808581526020018481526020018373ffffffffffffffffffffffffffffffffffffffff1673ffffffffffffffffffffffffffffffffffffffff1681526020018273ffffffffffffffffffffffffffffffffffffffff1673ffffffffffffffffffffffffffffffffffffffff168152602001945050505050604051809103906000f08015801562000718573d6000803e3d6000fd5b5090507fb363981f7d742b3e72f00ee6693bf604f93a2f5ae7552eee9ec9a9da72ada5708160405180806020018373ffffffffffffffffffffffffffffffffffffffff1673ffffffffffffffffffffffffffffffffffffffff168152602001828103825260268152602001807f41206e6577205669637265792041756374696f6e20686173206265656e20637281526020017f65617465642100000000000000000000000000000000000000000000000000008152506040019250505060405180910390a160018190806001815401808255809150509060018203906000526020600020016000909192909190916101000a81548173ffffffffffffffffffffffffffffffffffffffff021916908373ffffffffffffffffffffffffffffffffffffffff160217905550600360008373ffffffffffffffffffffffffffffffffffffffff1673ffffffffffffffffffffffffffffffffffffffff16815260200190815260200160002081905550505050565b606060008054806020026020016040519081016040528092919081815260200182805480156200091057602002820191906000526020600020905b8160009054906101000a900473ffffffffffffffffffffffffffffffffffffffff1673ffffffffffffffffffffffffffffffffffffffff1681526020019060010190808311620008c5575b5050505050905090565b600460149054906101000a900460ff161515620009c5576040517f08c379a000000000000000000000000000000000000000000000000000000000815260040180806020018281038252602b8152602001807f49742773206e6f206c6f6e67657220706f737369626c6520746f20637265617481526020017f652061756374696f6e732100000000000000000000000000000000000000000081525060400191505060405180910390fd5b600460009054906101000a900473ffffffffffffffffffffffffffffffffffffffff1673ffffffffffffffffffffffffffffffffffffffff163373ffffffffffffffffffffffffffffffffffffffff161415151562000a2057fe5b600083838333600460009054906101000a900473ffffffffffffffffffffffffffffffffffffffff1662000a536200164f565b808681526020018581526020018481526020018373ffffffffffffffffffffffffffffffffffffffff1673ffffffffffffffffffffffffffffffffffffffff1681526020018273ffffffffffffffffffffffffffffffffffffffff1673ffffffffffffffffffffffffffffffffffffffff16815260200195505050505050604051809103906000f08015801562000aee573d6000803e3d6000fd5b5090507fa3d0ddfa241159b717f16bb0eeea3c843d133f0c6607e8eb87367b575ef18b138160405180806020018373ffffffffffffffffffffffffffffffffffffffff1673ffffffffffffffffffffffffffffffffffffffff168152602001828103825260278152602001807f41206e657720456e676c6973682041756374696f6e20686173206265656e206381526020017f72656174656421000000000000000000000000000000000000000000000000008152506040019250505060405180910390a160008190806001815401808255809150509060018203906000526020600020016000909192909190916101000a81548173ffffffffffffffffffffffffffffffffffffffff021916908373ffffffffffffffffffffffffffffffffffffffff160217905550600260008373ffffffffffffffffffffffffffffffffffffffff1673ffffffffffffffffffffffffffffffffffffffff1681526020019081526020016000208190555050505050565b6000600360003373ffffffffffffffffffffffffffffffffffffffff1673ffffffffffffffffffffffffffffffffffffffff1681526020019081526020016000205490506000811415151562000d1f576040517f08c379a000000000000000000000000000000000000000000000000000000000815260040180806020018281038252601b8152602001807f5468652061756374696f6e20646f6573206e6f7420657869737421000000000081525060200191505060405180910390fd5b808060019003915050600060018054905090506000600180830381548110151562000d4657fe5b9060005260206000200160009054906101000a900473ffffffffffffffffffffffffffffffffffffffff1690508060018481548110151562000d8457fe5b9060005260206000200160006101000a81548173ffffffffffffffffffffffffffffffffffffffff021916908373ffffffffffffffffffffffffffffffffffffffff160217905550600180830381548110151562000dde57fe5b9060005260206000200160006101000a81549073ffffffffffffffffffffffffffffffffffffffff0219169055600180548091906001900362000e22919062001660565b5060018301600360008373ffffffffffffffffffffffffffffffffffffffff1673ffffffffffffffffffffffffffffffffffffffff168152602001908152602001600020819055506000600360003373ffffffffffffffffffffffffffffffffffffffff1673ffffffffffffffffffffffffffffffffffffffff16815260200190815260200160002081905550505050565b60026020528060005260406000206000915090505481565b600460009054906101000a900473ffffffffffffffffffffffffffffffffffffffff1681565b60008181548110151562000f0257fe5b906000526020600020016000915054906101000a900473ffffffffffffffffffffffffffffffffffffffff1681565b6060600180548060200260200160405190810160405280929190818152602001828054801562000fb757602002820191906000526020600020905b8160009054906101000a900473ffffffffffffffffffffffffffffffffffffffff1673ffffffffffffffffffffffffffffffffffffffff168152602001906001019080831162000f6c575b5050505050905090565b6000600260003373ffffffffffffffffffffffffffffffffffffffff1673ffffffffffffffffffffffffffffffffffffffff168152602001908152602001600020549050600081141515156200107f576040517f08c379a000000000000000000000000000000000000000000000000000000000815260040180806020018281038252601b8152602001807f5468652061756374696f6e20646f6573206e6f7420657869737421000000000081525060200191505060405180910390fd5b80806001900391505060008080549050905060008060018303815481101515620010a557fe5b9060005260206000200160009054906101000a900473ffffffffffffffffffffffffffffffffffffffff16905080600084815481101515620010e357fe5b9060005260206000200160006101000a81548173ffffffffffffffffffffffffffffffffffffffff021916908373ffffffffffffffffffffffffffffffffffffffff1602179055506000600183038154811015156200113e57fe5b9060005260206000200160006101000a81549073ffffffffffffffffffffffffffffffffffffffff0219169055600080548091906001900362001182919062001660565b5060018301600260008373ffffffffffffffffffffffffffffffffffffffff1673ffffffffffffffffffffffffffffffffffffffff168152602001908152602001600020819055506000600260003373ffffffffffffffffffffffffffffffffffffffff1673ffffffffffffffffffffffffffffffffffffffff16815260200190815260200160002081905550505050565b600460009054906101000a900473ffffffffffffffffffffffffffffffffffffffff1673ffffffffffffffffffffffffffffffffffffffff163373ffffffffffffffffffffffffffffffffffffffff161415156200126e57fe5b6000600460146101000a81548160ff0219169083151502179055507f1cf6c26a01961efae8509f9abf2f931ecb2ee5def99cd6f164fabcc23748e41760405180806020018281038252602b8152602001807f5468652061756374696f6e206372656174696f6e2069732074656d706f72616c81526020017f6c792073746f707065642100000000000000000000000000000000000000000081525060400191505060405180910390a1565b6001818154811015156200132957fe5b906000526020600020016000915054906101000a900473ffffffffffffffffffffffffffffffffffffffff1681565b60036020528060005260406000206000915090505481565b600460009054906101000a900473ffffffffffffffffffffffffffffffffffffffff1673ffffffffffffffffffffffffffffffffffffffff163373ffffffffffffffffffffffffffffffffffffffff16141515620013ca57fe5b60008080549050148015620013e457506000600180549050145b15156200147f576040517f08c379a000000000000000000000000000000000000000000000000000000000815260040180806020018281038252602b8152602001807f536f6d652061756374696f6e73207374696c6c20696e2070726f67726573732c81526020017f2064656c6574652069742100000000000000000000000000000000000000000081525060400191505060405180910390fd5b7f592350dc4c1747f6e73f39ea3de889f3436410edba937119b0da5687aae721456040518080602001828103825260268152602001807f5468652061756374696f6e206d616e616765722077696c6c206265206465737481526020017f726f79656421000000000000000000000000000000000000000000000000000081525060400191505060405180910390a13373ffffffffffffffffffffffffffffffffffffffff16ff5b600460009054906101000a900473ffffffffffffffffffffffffffffffffffffffff1673ffffffffffffffffffffffffffffffffffffffff163373ffffffffffffffffffffffffffffffffffffffff161415156200158057fe5b6001600460146101000a81548160ff0219169083151502179055507fc7ac95bbb1f29fbc8e147405d804337f876e3e348fb3cee4d9fe63fb0ad4569b6040518080602001828103825260268152602001807f5468652061756374696f6e206372656174696f6e206973206e6f77206176616981526020017f6c61626c6521000000000000000000000000000000000000000000000000000081525060400191505060405180910390a1565b600460149054906101000a900460ff1681565b60405161235780620016b883390190565b604051611be08062003a0f83390190565b8154818355818111156200168a578183600052602060002091820191016200168991906200168f565b5b505050565b620016b491905b80821115620016b057600081600090555060010162001696565b5090565b9056fe608060405260008060006101000a81548160ff0219169083600581111561002257fe5b021790555034801561003357600080fd5b50604051608080620023578339810180604052608081101561005457600080fd5b8101908080519060200190929190805190602001909291908051906020019092919080519060200190929190505050600084111515610121576040517f08c379a000000000000000000000000000000000000000000000000000000000815260040180806020018281038252602b8152602001807f5468652072657365727665207072696365206d7573742062652067726174657281526020017f207468616e207a65726f2100000000000000000000000000000000000000000081525060400191505060405180910390fd5b83600681905550836005819055508260018190555081600760006101000a81548173ffffffffffffffffffffffffffffffffffffffff021916908373ffffffffffffffffffffffffffffffffffffffff16021790555080600860006101000a81548173ffffffffffffffffffffffffffffffffffffffff021916908373ffffffffffffffffffffffffffffffffffffffff16021790555033600960006101000a81548173ffffffffffffffffffffffffffffffffffffffff021916908373ffffffffffffffffffffffffffffffffffffffff16021790555043600a819055507f20a93b354024288ebb3e8893dcfb0fc10ac3171d14cd5094bf446efdd1303c62600080604051808060200184600581111561023857fe5b60ff16815260200183600581111561024c57fe5b60ff168152602001828103825260128152602001807f4e6577205669637265792061756374696f6e0000000000000000000000000000815250602001935050505060405180910390a1505050506120ae80620002a96000396000f3fe6080604052600436106100f1576000357c0100000000000000000000000000000000000000000000000000000000900463ffffffff168063052079c4146100f657806307225b4d146101b157806308551a53146101dc5780632710ac80146102335780632ad194c41461028a5780633ccfd60b146102ef5780633eadb6db1461030657806340ec1d521461031d578063481c6a75146103345780634bb278f31461038b5780638c648117146103a2578063b1c9fe6e146103cd578063d0e30db014610406578063d57bde7914610431578063db2e1eed1461045c578063f14fcbc814610487578063f38c2bc3146104b5575b600080fd5b6101af6004803603602081101561010c57600080fd5b810190808035906020019064010000000081111561012957600080fd5b82018360208201111561013b57600080fd5b8035906020019184600183028401116401000000008311171561015d57600080fd5b91908080601f016020809104026020016040519081016040528093929190818152602001838380828437600081840152601f19601f82011690508083019250505050505050919291929050505061050c565b005b3480156101bd57600080fd5b506101c6610cca565b6040518082815260200191505060405180910390f35b3480156101e857600080fd5b506101f1610cd0565b604051808273ffffffffffffffffffffffffffffffffffffffff1673ffffffffffffffffffffffffffffffffffffffff16815260200191505060405180910390f35b34801561023f57600080fd5b50610248610cf6565b604051808273ffffffffffffffffffffffffffffffffffffffff1673ffffffffffffffffffffffffffffffffffffffff16815260200191505060405180910390f35b34801561029657600080fd5b506102d9600480360360208110156102ad57600080fd5b81019080803573ffffffffffffffffffffffffffffffffffffffff169060200190929190505050610d1c565b6040518082815260200191505060405180910390f35b3480156102fb57600080fd5b50610304610d34565b005b34801561031257600080fd5b5061031b610fde565b005b34801561032957600080fd5b506103326110e6565b005b34801561034057600080fd5b506103496115a4565b604051808273ffffffffffffffffffffffffffffffffffffffff1673ffffffffffffffffffffffffffffffffffffffff16815260200191505060405180910390f35b34801561039757600080fd5b506103a06115ca565b005b3480156103ae57600080fd5b506103b7611bc7565b6040518082815260200191505060405180910390f35b3480156103d957600080fd5b506103e2611bcd565b604051808260058111156103f257fe5b60ff16815260200191505060405180910390f35b34801561041257600080fd5b5061041b611bdf565b6040518082815260200191505060405180910390f35b34801561043d57600080fd5b50610446611be5565b6040518082815260200191505060405180910390f35b34801561046857600080fd5b50610471611beb565b6040518082815260200191505060405180910390f35b6104b36004803603602081101561049d57600080fd5b8101908080359060200190929190505050611bf1565b005b3480156104c157600080fd5b506104ca611f74565b604051808273ffffffffffffffffffffffffffffffffffffffff1673ffffffffffffffffffffffffffffffffffffffff16815260200191505060405180910390f35b60008060009054906101000a900460ff1690506000600a54905060058101431015801561054f57506004600581111561054157fe5b82600581111561054d57fe5b105b1561055f5761055e8243611f9a565b5b60036000809054906101000a900460ff16600581111561057b57fe5b81600581111561058757fe5b141515610648576040517f08c379a000000000000000000000000000000000000000000000000000000000815260040180806020018281038252604d8152602001807f5065726d697373696f6e2064656e6965642c206f7065726174696f6e206f757481526020017f206f662074686520636f72726563742070686173652120436865636b2074686581526020017f2061637475616c2070686173650000000000000000000000000000000000000081525060600191505060405180910390fd5b6000600102600b60003373ffffffffffffffffffffffffffffffffffffffff1673ffffffffffffffffffffffffffffffffffffffff1681526020019081526020016000205414151515610703576040517f08c379a00000000000000000000000000000000000000000000000000000000081526004018080602001828103825260198152602001807f596f7520646f6e277420636f6d6d697420616e7920626964210000000000000081525060200191505060405180910390fd5b600060065490508034101515156107a8576040517f08c379a00000000000000000000000000000000000000000000000000000000081526004018080602001828103825260408152602001807f596f757220626964206973206c6f776572207468616e2074686520726573657281526020017f76652070726963652c20796f75206c6f736520796f7572206465706f7369742181525060400191505060405180910390fd5b84346040516020018083805190602001908083835b6020831015156107e257805182526020820191506020810190506020830392506107bd565b6001836020036101000a0380198251168184511680821785525050505050509050018281526020019250505060405160208183030381529060405280519060200120600b60003373ffffffffffffffffffffffffffffffffffffffff1673ffffffffffffffffffffffffffffffffffffffff16815260200190815260200160002054141515610925576040517f08c379a000000000000000000000000000000000000000000000000000000000815260040180806020018281038252604a8152602001807f4e6f206d617463682c2070726f766964652074686520636f7272656374206e6f81526020017f6e636520616e6420626964206f7220796f752077696c6c206c6f736520796f7581526020017f72206465706f736974210000000000000000000000000000000000000000000081525060600191505060405180910390fd5b600b60003373ffffffffffffffffffffffffffffffffffffffff1673ffffffffffffffffffffffffffffffffffffffff1681526020019081526020016000206000905560006005549050600060015490506000348201905082341115610c69576000600354905080341115610bef576000600460009054906101000a900473ffffffffffffffffffffffffffffffffffffffff1690503460038190555033600460006101000a81548173ffffffffffffffffffffffffffffffffffffffff021916908373ffffffffffffffffffffffffffffffffffffffff160217905550600073ffffffffffffffffffffffffffffffffffffffff168173ffffffffffffffffffffffffffffffffffffffff16141515610afc578073ffffffffffffffffffffffffffffffffffffffff166108fc839081150290604051600060405180830381858888f19350505050158015610a7f573d6000803e3d6000fd5b50816005819055507fbac6ef406123e8af568ae833befd72577fbb2def578c249467da9151e75b2528826040518080602001838152602001828103825260128152602001807f4e6577205365636f6e64204869676865737400000000000000000000000000008152506020019250505060405180910390a1610b74565b856005819055507fbac6ef406123e8af568ae833befd72577fbb2def578c249467da9151e75b2528866040518080602001838152602001828103825260128152602001807f4e6577205365636f6e64204869676865737400000000000000000000000000008152506020019250505060405180910390a15b34830392507f5caf3e78c234268774887562882f13d98c42065d5d2098040520b6fdad3ab2103460405180806020018381526020018281038252600c8152602001807f4e657720486967686573742100000000000000000000000000000000000000008152506020019250505060405180910390a150610c67565b346005819055507fbac6ef406123e8af568ae833befd72577fbb2def578c249467da9151e75b2528346040518080602001838152602001828103825260128152602001807f4e6577205365636f6e64204869676865737400000000000000000000000000008152506020019250505060405180910390a15b505b816002600082825403925050819055503373ffffffffffffffffffffffffffffffffffffffff166108fc829081150290604051600060405180830381858888f19350505050158015610cbf573d6000803e3d6000fd5b505050505050505050565b600a5481565b600760009054906101000a900473ffffffffffffffffffffffffffffffffffffffff1681565b600960009054906101000a900473ffffffffffffffffffffffffffffffffffffffff1681565b600b6020528060005260406000206000915090505481565b60008060009054906101000a900460ff1690506000600a549050600581014310158015610d77575060046005811115610d6957fe5b826005811115610d7557fe5b105b15610d8757610d868243611f9a565b5b60026000809054906101000a900460ff166005811115610da357fe5b816005811115610daf57fe5b141515610e70576040517f08c379a000000000000000000000000000000000000000000000000000000000815260040180806020018281038252604d8152602001807f5065726d697373696f6e2064656e6965642c206f7065726174696f6e206f757481526020017f206f662074686520636f72726563742070686173652120436865636b2074686581526020017f2061637475616c2070686173650000000000000000000000000000000000000081525060600191505060405180910390fd5b6000600102600b60003373ffffffffffffffffffffffffffffffffffffffff1673ffffffffffffffffffffffffffffffffffffffff1681526020019081526020016000205414151515610f2b576040517f08c379a00000000000000000000000000000000000000000000000000000000081526004018080602001828103825260198152602001807f596f7520646f6e277420636f6d6d697420616e7920626964210000000000000081525060200191505060405180910390fd5b60006002600154811515610f3b57fe5b049050600b60003373ffffffffffffffffffffffffffffffffffffffff1673ffffffffffffffffffffffffffffffffffffffff16815260200190815260200160002060009055806002600082825403925050819055503373ffffffffffffffffffffffffffffffffffffffff166108fc829081150290604051600060405180830381858888f19350505050158015610fd7573d6000803e3d6000fd5b5050505050565b600760009054906101000a900473ffffffffffffffffffffffffffffffffffffffff1673ffffffffffffffffffffffffffffffffffffffff163373ffffffffffffffffffffffffffffffffffffffff1614806110875750600860009054906101000a900473ffffffffffffffffffffffffffffffffffffffff1673ffffffffffffffffffffffffffffffffffffffff163373ffffffffffffffffffffffffffffffffffffffff16145b151561108f57fe5b60008060009054906101000a900460ff1690506000600a5490506005810143101580156110d25750600460058111156110c457fe5b8260058111156110d057fe5b105b156110e2576110e18243611f9a565b5b5050565b60056000809054906101000a900460ff16600581111561110257fe5b81600581111561110e57fe5b1415156111cf576040517f08c379a000000000000000000000000000000000000000000000000000000000815260040180806020018281038252604d8152602001807f5065726d697373696f6e2064656e6965642c206f7065726174696f6e206f757481526020017f206f662074686520636f72726563742070686173652120436865636b2074686581526020017f2061637475616c2070686173650000000000000000000000000000000000000081525060600191505060405180910390fd5b6000600460009054906101000a900473ffffffffffffffffffffffffffffffffffffffff1690506000600760009054906101000a900473ffffffffffffffffffffffffffffffffffffffff1690508173ffffffffffffffffffffffffffffffffffffffff163373ffffffffffffffffffffffffffffffffffffffff1614806112b65750600860009054906101000a900473ffffffffffffffffffffffffffffffffffffffff1673ffffffffffffffffffffffffffffffffffffffff163373ffffffffffffffffffffffffffffffffffffffff161480156112b557506105a0600a54014310155b5b151561132a576040517f08c379a00000000000000000000000000000000000000000000000000000000081526004018080602001828103825260128152602001807f5065726d697373696f6e2064656e69656421000000000000000000000000000081525060200191505060405180910390fd5b60006005549050600460006101000a81549073ffffffffffffffffffffffffffffffffffffffff02191690558273ffffffffffffffffffffffffffffffffffffffff166108fc82600354039081150290604051600060405180830381858888f193505050501580156113a0573d6000803e3d6000fd5b50600760006101000a81549073ffffffffffffffffffffffffffffffffffffffff02191690558173ffffffffffffffffffffffffffffffffffffffff166108fc829081150290604051600060405180830381858888f1935050505015801561140c573d6000803e3d6000fd5b507f4daec0a5825f5e0766f597faa066cc075d7a16feb52c0003e69858b293fcfd0e816040518080602001838152602001828103825260148152602001807f50656e64696e6720657874696e677569736865640000000000000000000000008152506020019250505060405180910390a1600860009054906101000a900473ffffffffffffffffffffffffffffffffffffffff1673ffffffffffffffffffffffffffffffffffffffff166108fc6002549081150290604051600060405180830381858888f193505050501580156114e7573d6000803e3d6000fd5b506000600960009054906101000a900473ffffffffffffffffffffffffffffffffffffffff1690508073ffffffffffffffffffffffffffffffffffffffff16636cd2f3216040518163ffffffff167c0100000000000000000000000000000000000000000000000000000000028152600401600060405180830381600087803b15801561157357600080fd5b505af1158015611587573d6000803e3d6000fd5b505050508273ffffffffffffffffffffffffffffffffffffffff16ff5b600860009054906101000a900473ffffffffffffffffffffffffffffffffffffffff1681565b60008060009054906101000a900460ff1690506000600a54905060058101431015801561160d5750600460058111156115ff57fe5b82600581111561160b57fe5b105b1561161d5761161c8243611f9a565b5b60046000809054906101000a900460ff16600581111561163957fe5b81600581111561164557fe5b141515611706576040517f08c379a000000000000000000000000000000000000000000000000000000000815260040180806020018281038252604d8152602001807f5065726d697373696f6e2064656e6965642c206f7065726174696f6e206f757481526020017f206f662074686520636f72726563742070686173652120436865636b2074686581526020017f2061637475616c2070686173650000000000000000000000000000000000000081525060600191505060405180910390fd5b6000600760009054906101000a900473ffffffffffffffffffffffffffffffffffffffff1690506000600460009054906101000a900473ffffffffffffffffffffffffffffffffffffffff1690508073ffffffffffffffffffffffffffffffffffffffff163373ffffffffffffffffffffffffffffffffffffffff1614806117b957508173ffffffffffffffffffffffffffffffffffffffff163373ffffffffffffffffffffffffffffffffffffffff16145b806118235750600860009054906101000a900473ffffffffffffffffffffffffffffffffffffffff1673ffffffffffffffffffffffffffffffffffffffff163373ffffffffffffffffffffffffffffffffffffffff1614801561182257506105a0600a54014310155b5b1515611897576040517f08c379a00000000000000000000000000000000000000000000000000000000081526004018080602001828103825260128152602001807f5065726d697373696f6e2064656e69656421000000000000000000000000000081525060200191505060405180910390fd5b600073ffffffffffffffffffffffffffffffffffffffff168173ffffffffffffffffffffffffffffffffffffffff161415156119ce5760008060009054906101000a900460ff16905043600a8190555060018160058111156118f557fe5b01600581111561190157fe5b6000806101000a81548160ff0219169083600581111561191d57fe5b02179055507fab1369e6fb9eba661db5e9b8a434e7c12b12ec07cd1288fcb104582cde8a47a48260055460405180806020018473ffffffffffffffffffffffffffffffffffffffff1673ffffffffffffffffffffffffffffffffffffffff168152602001838152602001828103825260168152602001807f46696e696c697a65642e2050656e64696e672053657400000000000000000000815250602001935050505060405180910390a150611bc0565b7fab1369e6fb9eba661db5e9b8a434e7c12b12ec07cd1288fcb104582cde8a47a48160055460405180806020018473ffffffffffffffffffffffffffffffffffffffff1673ffffffffffffffffffffffffffffffffffffffff168152602001838152602001828103825260148152602001807f46696e696c697a65642e204e6f20426964646572000000000000000000000000815250602001935050505060405180910390a1600860009054906101000a900473ffffffffffffffffffffffffffffffffffffffff1673ffffffffffffffffffffffffffffffffffffffff166108fc6002549081150290604051600060405180830381858888f19350505050158015611ade573d6000803e3d6000fd5b506000600960009054906101000a900473ffffffffffffffffffffffffffffffffffffffff1690508073ffffffffffffffffffffffffffffffffffffffff16636cd2f3216040518163ffffffff167c0100000000000000000000000000000000000000000000000000000000028152600401600060405180830381600087803b158015611b6a57600080fd5b505af1158015611b7e573d6000803e3d6000fd5b50505050600760006101000a81549073ffffffffffffffffffffffffffffffffffffffff02191690558273ffffffffffffffffffffffffffffffffffffffff16ff5b5050505050565b60055481565b6000809054906101000a900460ff1681565b60015481565b60035481565b60065481565b60008060009054906101000a900460ff1690506000600a549050600581014310158015611c34575060046005811115611c2657fe5b826005811115611c3257fe5b105b15611c4457611c438243611f9a565b5b60016000809054906101000a900460ff166005811115611c6057fe5b816005811115611c6c57fe5b141515611d2d576040517f08c379a000000000000000000000000000000000000000000000000000000000815260040180806020018281038252604d8152602001807f5065726d697373696f6e2064656e6965642c206f7065726174696f6e206f757481526020017f206f662074686520636f72726563742070686173652120436865636b2074686581526020017f2061637475616c2070686173650000000000000000000000000000000000000081525060600191505060405180910390fd5b600760009054906101000a900473ffffffffffffffffffffffffffffffffffffffff1673ffffffffffffffffffffffffffffffffffffffff163373ffffffffffffffffffffffffffffffffffffffff1614158015611dd95750600860009054906101000a900473ffffffffffffffffffffffffffffffffffffffff1673ffffffffffffffffffffffffffffffffffffffff163373ffffffffffffffffffffffffffffffffffffffff1614155b1515611de157fe5b6000600102600b60003373ffffffffffffffffffffffffffffffffffffffff1673ffffffffffffffffffffffffffffffffffffffff16815260200190815260200160002054148015611e34575060015434145b1515611f1a576040517f08c379a00000000000000000000000000000000000000000000000000000000081526004018080602001828103825260768152602001807f596f752063616e6e6f7420636f6d6d6974203220646966666572656e7420626981526020017f642e20496620796f7520646f206e6f7420616c726561647920636f6d6d69742081526020017f61206269642c206d616b65207375726520746f2073656e64207468652064657081526020017f6f73697420616d6f756e7420636f72726563746c79210000000000000000000081525060800191505060405180910390fd5b83600b60003373ffffffffffffffffffffffffffffffffffffffff1673ffffffffffffffffffffffffffffffffffffffff168152602001908152602001600020819055503460026000828254019250508190555050505050565b600460009054906101000a900473ffffffffffffffffffffffffffffffffffffffff1681565b80600a819055506001826005811115611faf57fe5b016005811115611fbb57fe5b6000806101000a81548160ff02191690836005811115611fd757fe5b02179055507f20a93b354024288ebb3e8893dcfb0fc10ac3171d14cd5094bf446efdd1303c62826000809054906101000a900460ff16604051808060200184600581111561202157fe5b60ff16815260200183600581111561203557fe5b60ff1681526020018281038252600c8152602001807f5068617365204368616e67650000000000000000000000000000000000000000815250602001935050505060405180910390a1505056fea165627a7a72305820ada303808b6e66e523fed11f6f19c351b540f9c0d25cbdf152ce0982c1e64daa0029608060405260008060006101000a81548160ff0219169083600381111561002257fe5b021790555034801561003357600080fd5b5060405160a080611be0833981018060405260a081101561005357600080fd5b8101908080519060200190929190805190602001909291908051906020019092919080519060200190929190805190602001909291905050508360018190555084600281905550846004819055508260038190555081600660006101000a81548173ffffffffffffffffffffffffffffffffffffffff021916908373ffffffffffffffffffffffffffffffffffffffff16021790555080600760006101000a81548173ffffffffffffffffffffffffffffffffffffffff021916908373ffffffffffffffffffffffffffffffffffffffff16021790555033600860006101000a81548173ffffffffffffffffffffffffffffffffffffffff021916908373ffffffffffffffffffffffffffffffffffffffff160217905550436009819055507f20a93b354024288ebb3e8893dcfb0fc10ac3171d14cd5094bf446efdd1303c6260008060405180806020018460038111156101aa57fe5b60ff1681526020018360038111156101be57fe5b60ff168152602001828103825260138152602001807f4e657720456e676c6973682061756374696f6e00000000000000000000000000815250602001935050505060405180910390a150505050506119c58061021b6000396000f3fe6080604052600436106100db576000357c0100000000000000000000000000000000000000000000000000000000900463ffffffff16806307225b4d146100e057806308551a531461010b57806308a0f32f14610162578063175b2304146101905780632710ac80146101be5780633eadb6db1461021557806340ec1d521461022c578063481c6a75146102435780634bb278f31461029a5780638c648117146102b1578063b1c9fe6e146102dc578063b3cc167a14610315578063db2e1eed14610340578063dcea71131461036b578063f38c2bc314610396575b600080fd5b3480156100ec57600080fd5b506100f56103ed565b6040518082815260200191505060405180910390f35b34801561011757600080fd5b506101206103f3565b604051808273ffffffffffffffffffffffffffffffffffffffff1673ffffffffffffffffffffffffffffffffffffffff16815260200191505060405180910390f35b61018e6004803603602081101561017857600080fd5b8101908080359060200190929190505050610419565b005b6101bc600480360360208110156101a657600080fd5b81019080803590602001909291905050506107d0565b005b3480156101ca57600080fd5b506101d3610d5b565b604051808273ffffffffffffffffffffffffffffffffffffffff1673ffffffffffffffffffffffffffffffffffffffff16815260200191505060405180910390f35b34801561022157600080fd5b5061022a610d81565b005b34801561023857600080fd5b50610241610e89565b005b34801561024f57600080fd5b506102586112a9565b604051808273ffffffffffffffffffffffffffffffffffffffff1673ffffffffffffffffffffffffffffffffffffffff16815260200191505060405180910390f35b3480156102a657600080fd5b506102af6112cf565b005b3480156102bd57600080fd5b506102c6611861565b6040518082815260200191505060405180910390f35b3480156102e857600080fd5b506102f1611867565b6040518082600381111561030157fe5b60ff16815260200191505060405180910390f35b34801561032157600080fd5b5061032a611879565b6040518082815260200191505060405180910390f35b34801561034c57600080fd5b5061035561187f565b6040518082815260200191505060405180910390f35b34801561037757600080fd5b50610380611885565b6040518082815260200191505060405180910390f35b3480156103a257600080fd5b506103ab61188b565b604051808273ffffffffffffffffffffffffffffffffffffffff1673ffffffffffffffffffffffffffffffffffffffff16815260200191505060405180910390f35b60095481565b600660009054906101000a900473ffffffffffffffffffffffffffffffffffffffff1681565b60008060009054906101000a900460ff1690506000600954905060058101431015801561045c57506002600381111561044e57fe5b82600381111561045a57fe5b105b1561046c5761046b82436118b1565b5b60008060009054906101000a900460ff16600381111561048857fe5b81600381111561049457fe5b141515610555576040517f08c379a000000000000000000000000000000000000000000000000000000000815260040180806020018281038252604d8152602001807f5065726d697373696f6e2064656e6965642c206f7065726174696f6e206f757481526020017f206f662074686520636f72726563742070686173652120436865636b2074686581526020017f2061637475616c2070686173650000000000000000000000000000000000000081525060600191505060405180910390fd5b600660009054906101000a900473ffffffffffffffffffffffffffffffffffffffff1673ffffffffffffffffffffffffffffffffffffffff163373ffffffffffffffffffffffffffffffffffffffff16141580156106015750600760009054906101000a900473ffffffffffffffffffffffffffffffffffffffff1673ffffffffffffffffffffffffffffffffffffffff163373ffffffffffffffffffffffffffffffffffffffff1614155b151561060957fe5b8334811415156106a7576040517f08c379a000000000000000000000000000000000000000000000000000000000815260040180806020018281038252603e8152602001807f50726f766964656420696e70757420616d6f756e74206973206469666665726581526020017f6e742066726f6d2076616c75652073656e742c2074727920616761696e21000081525060400191505060405180910390fd5b6000600154905080341415156106b957fe5b7fab1369e6fb9eba661db5e9b8a434e7c12b12ec07cd1288fcb104582cde8a47a4338260405180806020018473ffffffffffffffffffffffffffffffffffffffff1673ffffffffffffffffffffffffffffffffffffffff168152602001838152602001828103825260138152602001807f4275794f75742e2050656e64696e672053657400000000000000000000000000815250602001935050505060405180910390a14360098190555060036000806101000a81548160ff0219169083600381111561078257fe5b021790555033600560006101000a81548173ffffffffffffffffffffffffffffffffffffffff021916908373ffffffffffffffffffffffffffffffffffffffff160217905550505050505050565b60008060009054906101000a900460ff1690506000600954905060058101431015801561081357506002600381111561080557fe5b82600381111561081157fe5b105b156108235761082282436118b1565b5b60016000809054906101000a900460ff16600381111561083f57fe5b81600381111561084b57fe5b14151561090c576040517f08c379a000000000000000000000000000000000000000000000000000000000815260040180806020018281038252604d8152602001807f5065726d697373696f6e2064656e6965642c206f7065726174696f6e206f757481526020017f206f662074686520636f72726563742070686173652120436865636b2074686581526020017f2061637475616c2070686173650000000000000000000000000000000000000081525060600191505060405180910390fd5b600660009054906101000a900473ffffffffffffffffffffffffffffffffffffffff1673ffffffffffffffffffffffffffffffffffffffff163373ffffffffffffffffffffffffffffffffffffffff16141580156109b85750600760009054906101000a900473ffffffffffffffffffffffffffffffffffffffff1673ffffffffffffffffffffffffffffffffffffffff163373ffffffffffffffffffffffffffffffffffffffff1614155b15156109c057fe5b833481141515610a5e576040517f08c379a000000000000000000000000000000000000000000000000000000000815260040180806020018281038252603e8152602001807f50726f766964656420696e70757420616d6f756e74206973206469666665726581526020017f6e742066726f6d2076616c75652073656e742c2074727920616761696e21000081525060400191505060405180910390fd5b6000600560009054906101000a900473ffffffffffffffffffffffffffffffffffffffff1690503373ffffffffffffffffffffffffffffffffffffffff168173ffffffffffffffffffffffffffffffffffffffff1614151515610b4f576040517f08c379a00000000000000000000000000000000000000000000000000000000081526004018080602001828103825260298152602001807f596f7520617265207468652061637475616c2077696e6e6572206f662074686581526020017f2061756374696f6e21000000000000000000000000000000000000000000000081525060400191505060405180910390fd5b6000600454905060008073ffffffffffffffffffffffffffffffffffffffff168373ffffffffffffffffffffffffffffffffffffffff161415610b9457819050610b9c565b600354820190505b803410151515610c14576040517f08c379a00000000000000000000000000000000000000000000000000000000081526004018080602001828103825260148152602001807f596f75722062696420697320746f6f206c6f772100000000000000000000000081525060200191505060405180910390fd5b3460048190555033600560006101000a81548173ffffffffffffffffffffffffffffffffffffffff021916908373ffffffffffffffffffffffffffffffffffffffff160217905550600073ffffffffffffffffffffffffffffffffffffffff168373ffffffffffffffffffffffffffffffffffffffff16141515610cda578273ffffffffffffffffffffffffffffffffffffffff166108fc839081150290604051600060405180830381858888f19350505050158015610cd8573d6000803e3d6000fd5b505b7f5caf3e78c234268774887562882f13d98c42065d5d2098040520b6fdad3ab2103460405180806020018381526020018281038252600b8152602001807f4e657720486967686573740000000000000000000000000000000000000000008152506020019250505060405180910390a1436009819055505050505050505050565b600860009054906101000a900473ffffffffffffffffffffffffffffffffffffffff1681565b600660009054906101000a900473ffffffffffffffffffffffffffffffffffffffff1673ffffffffffffffffffffffffffffffffffffffff163373ffffffffffffffffffffffffffffffffffffffff161480610e2a5750600760009054906101000a900473ffffffffffffffffffffffffffffffffffffffff1673ffffffffffffffffffffffffffffffffffffffff163373ffffffffffffffffffffffffffffffffffffffff16145b1515610e3257fe5b60008060009054906101000a900460ff16905060006009549050600581014310158015610e75575060026003811115610e6757fe5b826003811115610e7357fe5b105b15610e8557610e8482436118b1565b5b5050565b60036000809054906101000a900460ff166003811115610ea557fe5b816003811115610eb157fe5b141515610f72576040517f08c379a000000000000000000000000000000000000000000000000000000000815260040180806020018281038252604d8152602001807f5065726d697373696f6e2064656e6965642c206f7065726174696f6e206f757481526020017f206f662074686520636f72726563742070686173652120436865636b2074686581526020017f2061637475616c2070686173650000000000000000000000000000000000000081525060600191505060405180910390fd5b6000600660009054906101000a900473ffffffffffffffffffffffffffffffffffffffff169050600560009054906101000a900473ffffffffffffffffffffffffffffffffffffffff1673ffffffffffffffffffffffffffffffffffffffff163373ffffffffffffffffffffffffffffffffffffffff1614806110545750600760009054906101000a900473ffffffffffffffffffffffffffffffffffffffff1673ffffffffffffffffffffffffffffffffffffffff163373ffffffffffffffffffffffffffffffffffffffff1614801561105357506105a0600954014310155b5b15156110c8576040517f08c379a00000000000000000000000000000000000000000000000000000000081526004018080602001828103825260128152602001807f5065726d697373696f6e2064656e69656421000000000000000000000000000081525060200191505060405180910390fd5b600060045490506000600660006101000a81548173ffffffffffffffffffffffffffffffffffffffff021916908373ffffffffffffffffffffffffffffffffffffffff1602179055508173ffffffffffffffffffffffffffffffffffffffff166108fc829081150290604051600060405180830381858888f19350505050158015611157573d6000803e3d6000fd5b507f4daec0a5825f5e0766f597faa066cc075d7a16feb52c0003e69858b293fcfd0e816040518080602001838152602001828103825260148152602001807f50656e64696e6720657874696e677569736865640000000000000000000000008152506020019250505060405180910390a16000600860009054906101000a900473ffffffffffffffffffffffffffffffffffffffff1690508073ffffffffffffffffffffffffffffffffffffffff1663b3323b366040518163ffffffff167c0100000000000000000000000000000000000000000000000000000000028152600401600060405180830381600087803b15801561125357600080fd5b505af1158015611267573d6000803e3d6000fd5b50505050600660006101000a81549073ffffffffffffffffffffffffffffffffffffffff02191690558273ffffffffffffffffffffffffffffffffffffffff16ff5b600760009054906101000a900473ffffffffffffffffffffffffffffffffffffffff1681565b60008060009054906101000a900460ff1690506000600954905060058101431015801561131257506002600381111561130457fe5b82600381111561131057fe5b105b156113225761132182436118b1565b5b60026000809054906101000a900460ff16600381111561133e57fe5b81600381111561134a57fe5b14151561140b576040517f08c379a000000000000000000000000000000000000000000000000000000000815260040180806020018281038252604d8152602001807f5065726d697373696f6e2064656e6965642c206f7065726174696f6e206f757481526020017f206f662074686520636f72726563742070686173652120436865636b2074686581526020017f2061637475616c2070686173650000000000000000000000000000000000000081525060600191505060405180910390fd5b6000600660009054906101000a900473ffffffffffffffffffffffffffffffffffffffff1690506000600560009054906101000a900473ffffffffffffffffffffffffffffffffffffffff1690508073ffffffffffffffffffffffffffffffffffffffff163373ffffffffffffffffffffffffffffffffffffffff1614806114be57508173ffffffffffffffffffffffffffffffffffffffff163373ffffffffffffffffffffffffffffffffffffffff16145b806115285750600760009054906101000a900473ffffffffffffffffffffffffffffffffffffffff1673ffffffffffffffffffffffffffffffffffffffff163373ffffffffffffffffffffffffffffffffffffffff1614801561152757506105a0600954014310155b5b151561159c576040517f08c379a00000000000000000000000000000000000000000000000000000000081526004018080602001828103825260128152602001807f5065726d697373696f6e2064656e69656421000000000000000000000000000081525060200191505060405180910390fd5b600073ffffffffffffffffffffffffffffffffffffffff168173ffffffffffffffffffffffffffffffffffffffff161415156116d35760008060009054906101000a900460ff1690504360098190555060018160038111156115fa57fe5b01600381111561160657fe5b6000806101000a81548160ff0219169083600381111561162257fe5b02179055507fab1369e6fb9eba661db5e9b8a434e7c12b12ec07cd1288fcb104582cde8a47a48260045460405180806020018473ffffffffffffffffffffffffffffffffffffffff1673ffffffffffffffffffffffffffffffffffffffff168152602001838152602001828103825260168152602001807f46696e696c697a65642e2050656e64696e672053657400000000000000000000815250602001935050505060405180910390a15061185a565b7fab1369e6fb9eba661db5e9b8a434e7c12b12ec07cd1288fcb104582cde8a47a48160045460405180806020018473ffffffffffffffffffffffffffffffffffffffff1673ffffffffffffffffffffffffffffffffffffffff168152602001838152602001828103825260148152602001807f46696e696c697a65642e204e6f20426964646572000000000000000000000000815250602001935050505060405180910390a16000600860009054906101000a900473ffffffffffffffffffffffffffffffffffffffff1690508073ffffffffffffffffffffffffffffffffffffffff1663b3323b366040518163ffffffff167c0100000000000000000000000000000000000000000000000000000000028152600401600060405180830381600087803b15801561180457600080fd5b505af1158015611818573d6000803e3d6000fd5b50505050600660006101000a81549073ffffffffffffffffffffffffffffffffffffffff02191690558273ffffffffffffffffffffffffffffffffffffffff16ff5b5050505050565b60045481565b6000809054906101000a900460ff1681565b60035481565b60025481565b60015481565b600560009054906101000a900473ffffffffffffffffffffffffffffffffffffffff1681565b8060098190555060018260038111156118c657fe5b0160038111156118d257fe5b6000806101000a81548160ff021916908360038111156118ee57fe5b02179055507f20a93b354024288ebb3e8893dcfb0fc10ac3171d14cd5094bf446efdd1303c62826000809054906101000a900460ff16604051808060200184600381111561193857fe5b60ff16815260200183600381111561194c57fe5b60ff1681526020018281038252600c8152602001807f5068617365204368616e67650000000000000000000000000000000000000000815250602001935050505060405180910390a1505056fea165627a7a723058203ad5a83b21ec9ddbe0ed22d5df4d4e38724e8667cf72e34b773abf97be4c517c0029a165627a7a7230582018ea710c18dedd7956cee465a33c0ce9ddcbf92dc68db7f186342d9a0b85b17d0029",
  "source": "// solium-disable linebreak-style\npragma solidity ^0.5.0;\n\nimport \"./EnglishAuction.sol\";\nimport \"./VicreyAuction.sol\";\n\n/**\n* Smart contract to manage the auctions creation.\n* The constructor of an auction must be done from this contract manager.\n* It is possible to stop the creation of the auctions by set the variable\n* couldCreateAuction to false. In this way the manager can control the number\n* of active auctions and can destroy the contract manager.\n* In particular, to destroy the contract manager, no active auctions must\n* be in progress.\n* To save all addresses of the active auctions, a map and an array are used.\n* The index related to a specific auction address are saved in the map, using\n* the address as key (the index is incremented by one, and decremented by one\n* when needed, in such a way that the index 0 is not present in the map). When\n* an auction is deleted, the last auction in the array is moved in the position\n* of the deleted one and the length of the array is decremented by one.\n*/\ncontract AuctionManager {\n\n    /**< Array of active auctions address >*/\n    address[] public engAuctionList;\n    address[] public vicAuctionList;\n\n    /**< Mapping of active auctions index >*/\n    mapping(address => uint256) public engAuctionMap;\n    mapping(address => uint256) public vicAuctionMap;\n\n    /**< Manager address >*/\n    address payable public managerOwner;\n\n    /**< Boolean variable to enable and disable the auction creation >*/\n    bool public couldCreateAuction;\n\n    /**\n    * Event emitted when an english auction is created.\n    *\n    * @param detail     explanation of the event;\n    * @param auction    address of the auction.\n    */\n    event LogEngCreateAuction(string detail, address auction);\n\n    /**\n    * Event emitted when a vicrey auction is created.\n    *\n    * @param detail     explanation of the event;\n    * @param auction    address of the auction.\n    */\n    event LogVicCreateAuction(string detail, address auction);\n\n    /**\n    * Event emitted when the auction creation is disabled.\n    *\n    * @param detail     explanation of the event.\n    */\n    event LogStopAuctionCreation(string detail);\n\n    /**\n    * Event emitted when the auction creation is enabled.\n    *\n    * @param detail     explanation of the event.\n    */\n    event LogStartAuctionCreation(string detail);\n\n    /**\n    * Event emitted when the contract manager is destroyed.\n    *\n    * @param detail     explanation of the event.\n    */\n    event LogDestroied(string detail);\n\n    /**\n    * Modifier to avoid the creation of an auction when the\n    * creation is disabled.\n    */\n    modifier couldCreate() {\n        require(couldCreateAuction,\n                \"It's no longer possible to create auctions!\");\n        _;\n    }\n\n    /**\n    * Modifier to permit only to the manager to controll the contract.\n    */\n    modifier owner() {\n        assert(msg.sender == managerOwner);\n        _;\n    }\n\n    /**\n    * Modifier to avoid that the manager create an auction.\n    */\n    modifier notOwner() {\n        assert(msg.sender != managerOwner);\n        _;\n    }\n\n    /**\n    * Contract constructor, set the creation as enabled and save the\n    * sender address as the manager.\n    */\n    constructor() public {\n        managerOwner = msg.sender;\n        couldCreateAuction = true;\n    }\n\n    /**\n    * English auction creation. It call the constructor of the english auction\n    * and insert the new address in the map and in the array of auctions.\n    * Emit a english creation event.\n    *\n    * @param resPrice   reserve price for the auction;\n    * @param buyOut     buy out price for the auction;\n    * @param incr       minimum bid increment for the auction.\n    *\n    * modifier couldCreate(): check if the creation is enabled.\n    *\n    * modifier notOwner(): check that the sender is not the owner.\n    */\n    function createEnglishAuction(uint256 resPrice, uint256 buyOut, uint256 incr) public\n         couldCreate()\n         notOwner() {\n\n        EnglishAuction auction = new EnglishAuction(resPrice, buyOut, incr, msg.sender, managerOwner);\n\n        emit LogEngCreateAuction(\"A new English Auction has been created!\", address(auction));\n\n        /** < The related index in the map is the index + 1\n        *     so that the are no 0 in the map >*/\n        engAuctionMap[address(auction)] = engAuctionList.push(address(auction));\n    }\n\n    /**\n    * Vicrey auction creation. It call the constructor of the vicrey auction\n    * and insert the new address in the map and in the array of auctions.\n    * Emit a vicrey creation event.\n    *\n    * @param resPrice       reserve price for the auction;\n    * @param depositValue   deposit for the auction.\n    *\n    * modifier couldCreate(): check if the creation is enabled.\n    *\n    * modifier notOwner(): check that the sender is not the owner.\n    */\n    function createVicreyAuction(uint256 resPrice, uint256 depositValue) public\n         couldCreate()\n         notOwner() {\n\n        VicreyAuction auction = new VicreyAuction(resPrice, depositValue, msg.sender, managerOwner);\n\n        emit LogVicCreateAuction(\"A new Vicrey Auction has been created!\", address(auction));\n\n        /** < The related index in the map is the index + 1\n        *     so that the are no 0 in the map >*/\n        vicAuctionMap[address(auction)] = vicAuctionList.push(address(auction));\n    }\n\n    /**\n    * English auction deletion. It is called from the auction contract,\n    * after check if the auction is present in the array, the last auction\n    * in the array is moved in the position of the deleted one.\n    */\n    function deleteEnglishAuction() public {\n        uint256 index = engAuctionMap[msg.sender];\n\n        /** < Knowing that in the map there is no index-0, if the related\n        *     index is zero means that the auction is not present >*/\n        require(index != 0, \"The auction does not exist!\");\n\n        /**< The real index is the decremented >*/\n        index--;\n\n        uint256 lastIndex = engAuctionList.length;\n        address lastAddress = engAuctionList[lastIndex-1];\n\n        /**< Move the last auction in the index of the auction that must be deleted>*/\n        engAuctionList[index] = lastAddress;\n        /**< Delete the last auction >*/\n        delete engAuctionList[lastIndex-1];\n        /**< Decrement the length of the dynamic array >*/\n        engAuctionList.length--;\n\n        /**< Change the index related to the last auction that have been moved >*/\n        engAuctionMap[lastAddress] = index+1;\n\n        /**< Empty the related index of the auction deleted >*/\n        engAuctionMap[msg.sender] = 0;\n    }\n\n    /**\n    * Vicrey auction deletion. It is called from the auction contract,\n    * after check if the auction is present in the array, the last auction\n    * in the array is moved in the position of the deleted one.\n    */\n    function deleteVicreyAuction() public {\n        uint256 index = vicAuctionMap[msg.sender];\n\n        /** < Knowing that in the map there is no index-0, if the related\n        *     index is zero means that the auction is not present >*/\n        require(index != 0, \"The auction does not exist!\");\n\n        /**< The real index is the decremented >*/\n        index--;\n\n        uint256 lastIndex = vicAuctionList.length;\n        address lastAddress = vicAuctionList[lastIndex-1];\n\n        /**< Move the last auction in the index of the auction that must be deleted>*/\n        vicAuctionList[index] = lastAddress;\n        /**< Delete the last auction >*/\n        delete vicAuctionList[lastIndex-1];\n        /**< Decrement the length of the dynamic array >*/\n        vicAuctionList.length--;\n\n        /**< Change the index related to the last auction that have been moved >*/\n        vicAuctionMap[lastAddress] = index+1;\n\n        /**< Empty the related index of the auction deleted >*/\n        vicAuctionMap[msg.sender] = 0;\n    }\n\n    /**\n    * Retrive all english active auctions.\n    */\n    function getEnglishAuctions() public view returns(address[] memory english) {\n        return engAuctionList;\n    }\n\n    /**\n    * Retrive all vicrey active auctions.\n    */\n    function getVicreyAuctions() public view returns(address[] memory vicrey) {\n        return vicAuctionList;\n    }\n\n    /**\n    * Disable the auction creation.\n    *\n    * modifier owner(): check if the sender is the owner.\n    */\n    function stopCreation() public\n         owner() {\n\n        couldCreateAuction = false;\n\n        emit LogStopAuctionCreation(\"The auction creation is temporally stopped!\");\n    }\n\n    /**\n    * Enable the auction creation.\n    *\n    * modifier owner(): check if the sender is the owner.\n    */\n    function startCreation() public\n         owner() {\n\n        couldCreateAuction = true;\n\n        emit LogStartAuctionCreation(\"The auction creation is now available!\");\n    }\n\n    /**\n    * Destroy the contract manager after checking that no auctions are active.\n    *\n    * modifier owner(): check if the sender is the owner.\n    */\n    function destroyManager() public\n         owner() {\n\n        require(engAuctionList.length == 0 &&\n                vicAuctionList.length == 0,\n                \"Some auctions still in progress, delete it!\");\n\n        emit LogDestroied(\"The auction manager will be destroyed!\");\n\n        selfdestruct(msg.sender);\n    }\n}",
  "sourcePath": "/home/gianluca/Documenti/AuctionDapp/contracts/AuctionManager.sol",
  "compiler": {
    "name": "solc",
    "version": "0.5.0+commit.1d4f565a.Emscripten.clang"
  },
  "schemaVersion": "3.0.2",
  "updatedAt": "2019-09-11T10:21:17.176Z",
  "devdoc": {
    "methods": {
      "createEnglishAuction(uint256,uint256,uint256)": {
        "params": {
          "buyOut": "buy out price for the auction;",
          "incr": "minimum bid increment for the auction.    * modifier couldCreate(): check if the creation is enabled.    * modifier notOwner(): check that the sender is not the owner.",
          "resPrice": "reserve price for the auction;"
        }
      },
      "createVicreyAuction(uint256,uint256)": {
        "params": {
          "depositValue": "deposit for the auction.    * modifier couldCreate(): check if the creation is enabled.    * modifier notOwner(): check that the sender is not the owner.",
          "resPrice": "reserve price for the auction;"
        }
      }
    }
  },
  "userdoc": {
    "methods": {
      "constructor": "Contract constructor, set the creation as enabled and save the sender address as the manager.",
      "createEnglishAuction(uint256,uint256,uint256)": {
        "notice": "English auction creation. It call the constructor of the english auction and insert the new address in the map and in the array of auctions. Emit a english creation event."
      },
      "createVicreyAuction(uint256,uint256)": {
        "notice": "Vicrey auction creation. It call the constructor of the vicrey auction and insert the new address in the map and in the array of auctions. Emit a vicrey creation event."
      },
      "deleteEnglishAuction()": {
        "notice": "English auction deletion. It is called from the auction contract, after check if the auction is present in the array, the last auction in the array is moved in the position of the deleted one."
      },
      "deleteVicreyAuction()": {
        "notice": "Vicrey auction deletion. It is called from the auction contract, after check if the auction is present in the array, the last auction in the array is moved in the position of the deleted one."
      },
      "destroyManager()": {
        "notice": "Destroy the contract manager after checking that no auctions are active.    * modifier owner(): check if the sender is the owner."
      },
      "getEnglishAuctions()": {
        "notice": "Retrive all english active auctions."
      },
      "getVicreyAuctions()": {
        "notice": "Retrive all vicrey active auctions."
      },
      "startCreation()": {
        "notice": "Enable the auction creation.    * modifier owner(): check if the sender is the owner."
      },
      "stopCreation()": {
        "notice": "Disable the auction creation.    * modifier owner(): check if the sender is the owner."
      }
    },
    "notice": "Smart contract to manage the auctions creation. The constructor of an auction must be done from this contract manager. It is possible to stop the creation of the auctions by set the variable couldCreateAuction to false. In this way the manager can control the number of active auctions and can destroy the contract manager. In particular, to destroy the contract manager, no active auctions must be in progress. To save all addresses of the active auctions, a map and an array are used. The index related to a specific auction address are saved in the map, using the address as key (the index is incremented by one, and decremented by one when needed, in such a way that the index 0 is not present in the map). When an auction is deleted, the last auction in the array is moved in the position of the deleted one and the length of the array is decremented by one."
  }
}