{
  "contractName": "EnglishAuction",
  "abi": [
    {
      "constant": true,
      "inputs": [],
      "name": "blockCount",
      "outputs": [
        {
          "name": "",
          "type": "uint256"
        }
      ],
      "payable": false,
      "stateMutability": "view",
      "type": "function"
    },
    {
      "constant": true,
      "inputs": [],
      "name": "seller",
      "outputs": [
        {
          "name": "",
          "type": "address"
        }
      ],
      "payable": false,
      "stateMutability": "view",
      "type": "function"
    },
    {
      "constant": true,
      "inputs": [],
      "name": "managerContract",
      "outputs": [
        {
          "name": "",
          "type": "address"
        }
      ],
      "payable": false,
      "stateMutability": "view",
      "type": "function"
    },
    {
      "constant": true,
      "inputs": [],
      "name": "manager",
      "outputs": [
        {
          "name": "",
          "type": "address"
        }
      ],
      "payable": false,
      "stateMutability": "view",
      "type": "function"
    },
    {
      "constant": true,
      "inputs": [],
      "name": "actualPrice",
      "outputs": [
        {
          "name": "",
          "type": "uint256"
        }
      ],
      "payable": false,
      "stateMutability": "view",
      "type": "function"
    },
    {
      "constant": true,
      "inputs": [],
      "name": "phase",
      "outputs": [
        {
          "name": "",
          "type": "uint8"
        }
      ],
      "payable": false,
      "stateMutability": "view",
      "type": "function"
    },
    {
      "constant": true,
      "inputs": [],
      "name": "bidIncrement",
      "outputs": [
        {
          "name": "",
          "type": "uint256"
        }
      ],
      "payable": false,
      "stateMutability": "view",
      "type": "function"
    },
    {
      "constant": true,
      "inputs": [],
      "name": "reservePrice",
      "outputs": [
        {
          "name": "",
          "type": "uint256"
        }
      ],
      "payable": false,
      "stateMutability": "view",
      "type": "function"
    },
    {
      "constant": true,
      "inputs": [],
      "name": "buyOutPrice",
      "outputs": [
        {
          "name": "",
          "type": "uint256"
        }
      ],
      "payable": false,
      "stateMutability": "view",
      "type": "function"
    },
    {
      "constant": true,
      "inputs": [],
      "name": "actualWinner",
      "outputs": [
        {
          "name": "",
          "type": "address"
        }
      ],
      "payable": false,
      "stateMutability": "view",
      "type": "function"
    },
    {
      "inputs": [
        {
          "name": "resPrice",
          "type": "uint256"
        },
        {
          "name": "buyOut",
          "type": "uint256"
        },
        {
          "name": "incr",
          "type": "uint256"
        },
        {
          "name": "sellerAdd",
          "type": "address"
        },
        {
          "name": "manAdd",
          "type": "address"
        }
      ],
      "payable": false,
      "stateMutability": "nonpayable",
      "type": "constructor"
    },
    {
      "anonymous": false,
      "inputs": [
        {
          "indexed": false,
          "name": "detail",
          "type": "string"
        },
        {
          "indexed": false,
          "name": "oldP",
          "type": "uint8"
        },
        {
          "indexed": false,
          "name": "newP",
          "type": "uint8"
        }
      ],
      "name": "LogNewPhase",
      "type": "event"
    },
    {
      "anonymous": false,
      "inputs": [
        {
          "indexed": false,
          "name": "detail",
          "type": "string"
        },
        {
          "indexed": false,
          "name": "price",
          "type": "uint256"
        }
      ],
      "name": "LogNewHighest",
      "type": "event"
    },
    {
      "anonymous": false,
      "inputs": [
        {
          "indexed": false,
          "name": "detail",
          "type": "string"
        },
        {
          "indexed": false,
          "name": "winner",
          "type": "address"
        },
        {
          "indexed": false,
          "name": "price",
          "type": "uint256"
        }
      ],
      "name": "LogEnd",
      "type": "event"
    },
    {
      "anonymous": false,
      "inputs": [
        {
          "indexed": false,
          "name": "detail",
          "type": "string"
        },
        {
          "indexed": false,
          "name": "amount",
          "type": "uint256"
        }
      ],
      "name": "LogPending",
      "type": "event"
    },
    {
      "constant": false,
      "inputs": [],
      "name": "nextPhase",
      "outputs": [],
      "payable": false,
      "stateMutability": "nonpayable",
      "type": "function"
    },
    {
      "constant": false,
      "inputs": [
        {
          "name": "amount",
          "type": "uint256"
        }
      ],
      "name": "buyNow",
      "outputs": [],
      "payable": true,
      "stateMutability": "payable",
      "type": "function"
    },
    {
      "constant": false,
      "inputs": [
        {
          "name": "amount",
          "type": "uint256"
        }
      ],
      "name": "makeBid",
      "outputs": [],
      "payable": true,
      "stateMutability": "payable",
      "type": "function"
    },
    {
      "constant": false,
      "inputs": [],
      "name": "finalize",
      "outputs": [],
      "payable": false,
      "stateMutability": "nonpayable",
      "type": "function"
    },
    {
      "constant": false,
      "inputs": [],
      "name": "transferPending",
      "outputs": [],
      "payable": false,
      "stateMutability": "nonpayable",
      "type": "function"
    }
  ],
  "bytecode": "0x608060405260008060006101000a81548160ff0219169083600381111561002257fe5b021790555034801561003357600080fd5b5060405160a080611be0833981018060405260a081101561005357600080fd5b8101908080519060200190929190805190602001909291908051906020019092919080519060200190929190805190602001909291905050508360018190555084600281905550846004819055508260038190555081600660006101000a81548173ffffffffffffffffffffffffffffffffffffffff021916908373ffffffffffffffffffffffffffffffffffffffff16021790555080600760006101000a81548173ffffffffffffffffffffffffffffffffffffffff021916908373ffffffffffffffffffffffffffffffffffffffff16021790555033600860006101000a81548173ffffffffffffffffffffffffffffffffffffffff021916908373ffffffffffffffffffffffffffffffffffffffff160217905550436009819055507f20a93b354024288ebb3e8893dcfb0fc10ac3171d14cd5094bf446efdd1303c6260008060405180806020018460038111156101aa57fe5b60ff1681526020018360038111156101be57fe5b60ff168152602001828103825260138152602001807f4e657720456e676c6973682061756374696f6e00000000000000000000000000815250602001935050505060405180910390a150505050506119c58061021b6000396000f3fe6080604052600436106100db576000357c0100000000000000000000000000000000000000000000000000000000900463ffffffff16806307225b4d146100e057806308551a531461010b57806308a0f32f14610162578063175b2304146101905780632710ac80146101be5780633eadb6db1461021557806340ec1d521461022c578063481c6a75146102435780634bb278f31461029a5780638c648117146102b1578063b1c9fe6e146102dc578063b3cc167a14610315578063db2e1eed14610340578063dcea71131461036b578063f38c2bc314610396575b600080fd5b3480156100ec57600080fd5b506100f56103ed565b6040518082815260200191505060405180910390f35b34801561011757600080fd5b506101206103f3565b604051808273ffffffffffffffffffffffffffffffffffffffff1673ffffffffffffffffffffffffffffffffffffffff16815260200191505060405180910390f35b61018e6004803603602081101561017857600080fd5b8101908080359060200190929190505050610419565b005b6101bc600480360360208110156101a657600080fd5b81019080803590602001909291905050506107d0565b005b3480156101ca57600080fd5b506101d3610d5b565b604051808273ffffffffffffffffffffffffffffffffffffffff1673ffffffffffffffffffffffffffffffffffffffff16815260200191505060405180910390f35b34801561022157600080fd5b5061022a610d81565b005b34801561023857600080fd5b50610241610e89565b005b34801561024f57600080fd5b506102586112a9565b604051808273ffffffffffffffffffffffffffffffffffffffff1673ffffffffffffffffffffffffffffffffffffffff16815260200191505060405180910390f35b3480156102a657600080fd5b506102af6112cf565b005b3480156102bd57600080fd5b506102c6611861565b6040518082815260200191505060405180910390f35b3480156102e857600080fd5b506102f1611867565b6040518082600381111561030157fe5b60ff16815260200191505060405180910390f35b34801561032157600080fd5b5061032a611879565b6040518082815260200191505060405180910390f35b34801561034c57600080fd5b5061035561187f565b6040518082815260200191505060405180910390f35b34801561037757600080fd5b50610380611885565b6040518082815260200191505060405180910390f35b3480156103a257600080fd5b506103ab61188b565b604051808273ffffffffffffffffffffffffffffffffffffffff1673ffffffffffffffffffffffffffffffffffffffff16815260200191505060405180910390f35b60095481565b600660009054906101000a900473ffffffffffffffffffffffffffffffffffffffff1681565b60008060009054906101000a900460ff1690506000600954905060058101431015801561045c57506002600381111561044e57fe5b82600381111561045a57fe5b105b1561046c5761046b82436118b1565b5b60008060009054906101000a900460ff16600381111561048857fe5b81600381111561049457fe5b141515610555576040517f08c379a000000000000000000000000000000000000000000000000000000000815260040180806020018281038252604d8152602001807f5065726d697373696f6e2064656e6965642c206f7065726174696f6e206f757481526020017f206f662074686520636f72726563742070686173652120436865636b2074686581526020017f2061637475616c2070686173650000000000000000000000000000000000000081525060600191505060405180910390fd5b600660009054906101000a900473ffffffffffffffffffffffffffffffffffffffff1673ffffffffffffffffffffffffffffffffffffffff163373ffffffffffffffffffffffffffffffffffffffff16141580156106015750600760009054906101000a900473ffffffffffffffffffffffffffffffffffffffff1673ffffffffffffffffffffffffffffffffffffffff163373ffffffffffffffffffffffffffffffffffffffff1614155b151561060957fe5b8334811415156106a7576040517f08c379a000000000000000000000000000000000000000000000000000000000815260040180806020018281038252603e8152602001807f50726f766964656420696e70757420616d6f756e74206973206469666665726581526020017f6e742066726f6d2076616c75652073656e742c2074727920616761696e21000081525060400191505060405180910390fd5b6000600154905080341415156106b957fe5b7fab1369e6fb9eba661db5e9b8a434e7c12b12ec07cd1288fcb104582cde8a47a4338260405180806020018473ffffffffffffffffffffffffffffffffffffffff1673ffffffffffffffffffffffffffffffffffffffff168152602001838152602001828103825260138152602001807f4275794f75742e2050656e64696e672053657400000000000000000000000000815250602001935050505060405180910390a14360098190555060036000806101000a81548160ff0219169083600381111561078257fe5b021790555033600560006101000a81548173ffffffffffffffffffffffffffffffffffffffff021916908373ffffffffffffffffffffffffffffffffffffffff160217905550505050505050565b60008060009054906101000a900460ff1690506000600954905060058101431015801561081357506002600381111561080557fe5b82600381111561081157fe5b105b156108235761082282436118b1565b5b60016000809054906101000a900460ff16600381111561083f57fe5b81600381111561084b57fe5b14151561090c576040517f08c379a000000000000000000000000000000000000000000000000000000000815260040180806020018281038252604d8152602001807f5065726d697373696f6e2064656e6965642c206f7065726174696f6e206f757481526020017f206f662074686520636f72726563742070686173652120436865636b2074686581526020017f2061637475616c2070686173650000000000000000000000000000000000000081525060600191505060405180910390fd5b600660009054906101000a900473ffffffffffffffffffffffffffffffffffffffff1673ffffffffffffffffffffffffffffffffffffffff163373ffffffffffffffffffffffffffffffffffffffff16141580156109b85750600760009054906101000a900473ffffffffffffffffffffffffffffffffffffffff1673ffffffffffffffffffffffffffffffffffffffff163373ffffffffffffffffffffffffffffffffffffffff1614155b15156109c057fe5b833481141515610a5e576040517f08c379a000000000000000000000000000000000000000000000000000000000815260040180806020018281038252603e8152602001807f50726f766964656420696e70757420616d6f756e74206973206469666665726581526020017f6e742066726f6d2076616c75652073656e742c2074727920616761696e21000081525060400191505060405180910390fd5b6000600560009054906101000a900473ffffffffffffffffffffffffffffffffffffffff1690503373ffffffffffffffffffffffffffffffffffffffff168173ffffffffffffffffffffffffffffffffffffffff1614151515610b4f576040517f08c379a00000000000000000000000000000000000000000000000000000000081526004018080602001828103825260298152602001807f596f7520617265207468652061637475616c2077696e6e6572206f662074686581526020017f2061756374696f6e21000000000000000000000000000000000000000000000081525060400191505060405180910390fd5b6000600454905060008073ffffffffffffffffffffffffffffffffffffffff168373ffffffffffffffffffffffffffffffffffffffff161415610b9457819050610b9c565b600354820190505b803410151515610c14576040517f08c379a00000000000000000000000000000000000000000000000000000000081526004018080602001828103825260148152602001807f596f75722062696420697320746f6f206c6f772100000000000000000000000081525060200191505060405180910390fd5b3460048190555033600560006101000a81548173ffffffffffffffffffffffffffffffffffffffff021916908373ffffffffffffffffffffffffffffffffffffffff160217905550600073ffffffffffffffffffffffffffffffffffffffff168373ffffffffffffffffffffffffffffffffffffffff16141515610cda578273ffffffffffffffffffffffffffffffffffffffff166108fc839081150290604051600060405180830381858888f19350505050158015610cd8573d6000803e3d6000fd5b505b7f5caf3e78c234268774887562882f13d98c42065d5d2098040520b6fdad3ab2103460405180806020018381526020018281038252600b8152602001807f4e657720486967686573740000000000000000000000000000000000000000008152506020019250505060405180910390a1436009819055505050505050505050565b600860009054906101000a900473ffffffffffffffffffffffffffffffffffffffff1681565b600660009054906101000a900473ffffffffffffffffffffffffffffffffffffffff1673ffffffffffffffffffffffffffffffffffffffff163373ffffffffffffffffffffffffffffffffffffffff161480610e2a5750600760009054906101000a900473ffffffffffffffffffffffffffffffffffffffff1673ffffffffffffffffffffffffffffffffffffffff163373ffffffffffffffffffffffffffffffffffffffff16145b1515610e3257fe5b60008060009054906101000a900460ff16905060006009549050600581014310158015610e75575060026003811115610e6757fe5b826003811115610e7357fe5b105b15610e8557610e8482436118b1565b5b5050565b60036000809054906101000a900460ff166003811115610ea557fe5b816003811115610eb157fe5b141515610f72576040517f08c379a000000000000000000000000000000000000000000000000000000000815260040180806020018281038252604d8152602001807f5065726d697373696f6e2064656e6965642c206f7065726174696f6e206f757481526020017f206f662074686520636f72726563742070686173652120436865636b2074686581526020017f2061637475616c2070686173650000000000000000000000000000000000000081525060600191505060405180910390fd5b6000600660009054906101000a900473ffffffffffffffffffffffffffffffffffffffff169050600560009054906101000a900473ffffffffffffffffffffffffffffffffffffffff1673ffffffffffffffffffffffffffffffffffffffff163373ffffffffffffffffffffffffffffffffffffffff1614806110545750600760009054906101000a900473ffffffffffffffffffffffffffffffffffffffff1673ffffffffffffffffffffffffffffffffffffffff163373ffffffffffffffffffffffffffffffffffffffff1614801561105357506105a0600954014310155b5b15156110c8576040517f08c379a00000000000000000000000000000000000000000000000000000000081526004018080602001828103825260128152602001807f5065726d697373696f6e2064656e69656421000000000000000000000000000081525060200191505060405180910390fd5b600060045490506000600660006101000a81548173ffffffffffffffffffffffffffffffffffffffff021916908373ffffffffffffffffffffffffffffffffffffffff1602179055508173ffffffffffffffffffffffffffffffffffffffff166108fc829081150290604051600060405180830381858888f19350505050158015611157573d6000803e3d6000fd5b507f4daec0a5825f5e0766f597faa066cc075d7a16feb52c0003e69858b293fcfd0e816040518080602001838152602001828103825260148152602001807f50656e64696e6720657874696e677569736865640000000000000000000000008152506020019250505060405180910390a16000600860009054906101000a900473ffffffffffffffffffffffffffffffffffffffff1690508073ffffffffffffffffffffffffffffffffffffffff1663b3323b366040518163ffffffff167c0100000000000000000000000000000000000000000000000000000000028152600401600060405180830381600087803b15801561125357600080fd5b505af1158015611267573d6000803e3d6000fd5b50505050600660006101000a81549073ffffffffffffffffffffffffffffffffffffffff02191690558273ffffffffffffffffffffffffffffffffffffffff16ff5b600760009054906101000a900473ffffffffffffffffffffffffffffffffffffffff1681565b60008060009054906101000a900460ff1690506000600954905060058101431015801561131257506002600381111561130457fe5b82600381111561131057fe5b105b156113225761132182436118b1565b5b60026000809054906101000a900460ff16600381111561133e57fe5b81600381111561134a57fe5b14151561140b576040517f08c379a000000000000000000000000000000000000000000000000000000000815260040180806020018281038252604d8152602001807f5065726d697373696f6e2064656e6965642c206f7065726174696f6e206f757481526020017f206f662074686520636f72726563742070686173652120436865636b2074686581526020017f2061637475616c2070686173650000000000000000000000000000000000000081525060600191505060405180910390fd5b6000600660009054906101000a900473ffffffffffffffffffffffffffffffffffffffff1690506000600560009054906101000a900473ffffffffffffffffffffffffffffffffffffffff1690508073ffffffffffffffffffffffffffffffffffffffff163373ffffffffffffffffffffffffffffffffffffffff1614806114be57508173ffffffffffffffffffffffffffffffffffffffff163373ffffffffffffffffffffffffffffffffffffffff16145b806115285750600760009054906101000a900473ffffffffffffffffffffffffffffffffffffffff1673ffffffffffffffffffffffffffffffffffffffff163373ffffffffffffffffffffffffffffffffffffffff1614801561152757506105a0600954014310155b5b151561159c576040517f08c379a00000000000000000000000000000000000000000000000000000000081526004018080602001828103825260128152602001807f5065726d697373696f6e2064656e69656421000000000000000000000000000081525060200191505060405180910390fd5b600073ffffffffffffffffffffffffffffffffffffffff168173ffffffffffffffffffffffffffffffffffffffff161415156116d35760008060009054906101000a900460ff1690504360098190555060018160038111156115fa57fe5b01600381111561160657fe5b6000806101000a81548160ff0219169083600381111561162257fe5b02179055507fab1369e6fb9eba661db5e9b8a434e7c12b12ec07cd1288fcb104582cde8a47a48260045460405180806020018473ffffffffffffffffffffffffffffffffffffffff1673ffffffffffffffffffffffffffffffffffffffff168152602001838152602001828103825260168152602001807f46696e696c697a65642e2050656e64696e672053657400000000000000000000815250602001935050505060405180910390a15061185a565b7fab1369e6fb9eba661db5e9b8a434e7c12b12ec07cd1288fcb104582cde8a47a48160045460405180806020018473ffffffffffffffffffffffffffffffffffffffff1673ffffffffffffffffffffffffffffffffffffffff168152602001838152602001828103825260148152602001807f46696e696c697a65642e204e6f20426964646572000000000000000000000000815250602001935050505060405180910390a16000600860009054906101000a900473ffffffffffffffffffffffffffffffffffffffff1690508073ffffffffffffffffffffffffffffffffffffffff1663b3323b366040518163ffffffff167c0100000000000000000000000000000000000000000000000000000000028152600401600060405180830381600087803b15801561180457600080fd5b505af1158015611818573d6000803e3d6000fd5b50505050600660006101000a81549073ffffffffffffffffffffffffffffffffffffffff02191690558273ffffffffffffffffffffffffffffffffffffffff16ff5b5050505050565b60045481565b6000809054906101000a900460ff1681565b60035481565b60025481565b60015481565b600560009054906101000a900473ffffffffffffffffffffffffffffffffffffffff1681565b8060098190555060018260038111156118c657fe5b0160038111156118d257fe5b6000806101000a81548160ff021916908360038111156118ee57fe5b02179055507f20a93b354024288ebb3e8893dcfb0fc10ac3171d14cd5094bf446efdd1303c62826000809054906101000a900460ff16604051808060200184600381111561193857fe5b60ff16815260200183600381111561194c57fe5b60ff1681526020018281038252600c8152602001807f5068617365204368616e67650000000000000000000000000000000000000000815250602001935050505060405180910390a1505056fea165627a7a723058203ad5a83b21ec9ddbe0ed22d5df4d4e38724e8667cf72e34b773abf97be4c517c0029",
  "source": "// solium-disable linebreak-style\r\npragma solidity ^0.5.0;\r\n\r\nimport \"./AuctionManager.sol\";\r\n\r\n/**\r\n* Smart contract to create and manage an English Auction.\r\n* The auction could be in 4 different Phase:\r\n* - Glory phase: the good could be bought at its buyout price and\r\n*   the auction will not start;\r\n* - Submitting phase: anyone (excpet for seller and manager) can submit a bid,\r\n*   the bid must be grater than the actual one + the min increment;\r\n* - Finilizing phase: the auction is finished, the seller or the winner have to\r\n*   confirm the end of it moving to the pending phase;\r\n* - Pending phase: the winner has to perform the transfer of the value at which\r\n*   the good has been sell (i.e. his bid).\r\n*\r\n* In some particular case, the manager of the auctions can change the phase or\r\n* can interact with the contract to avoid ambiguous situation.\r\n* The creation and the destruction of the auction will pass throught the contract manager.\r\n*/\r\ncontract EnglishAuction {\r\n\r\n    /**< Different auction phase >*/\r\n    enum Phase {\r\n        GloryPhase,\r\n        Submitting,\r\n        Finilizing,\r\n        Pending\r\n    }\r\n\r\n    /**< Phase global variable >*/\r\n    Phase public phase = Phase.GloryPhase;\r\n\r\n    /**< Price to sell the good before the auction >*/\r\n    uint256 public buyOutPrice;\r\n    /**< Minimum price of the good >*/\r\n    uint256 public reservePrice;\r\n\r\n    /**< Minimum increment for each bid >*/\r\n    uint256 public bidIncrement;\r\n    /**< Acutal highest bid >*/\r\n    uint256 public actualPrice;\r\n\r\n    /**< Partecipant who sumbit the highest bid >*/\r\n    address payable public actualWinner;\r\n\r\n    /**< Seller of the good >*/\r\n    address payable public seller;\r\n    /**< Manager address >*/\r\n    address public manager;\r\n\r\n    /**< Contract menager address >*/\r\n    address public managerContract;\r\n\r\n    /**< Block counter to update the phase >*/\r\n    uint256 public blockCount;\r\n\r\n    /**\r\n    * Event emitted when the phase changes.\r\n    *\r\n    * @param detail     explanation of the event;\r\n    * @param oldP       old phase;\r\n    * @param newP       new phase.\r\n    */\r\n    event LogNewPhase(string detail, Phase oldP, Phase newP);\r\n\r\n    /**\r\n    * Event emitted when a new highest bid has been submitted.\r\n    *\r\n    * @param detail     explanation of the event;\r\n    * @param price      value of the new highest bid.\r\n    */\r\n    event LogNewHighest(string detail, uint256 price);\r\n\r\n    /**\r\n    * Event emitted when the auction end.\r\n    *\r\n    * @param detail     explanation of the event, how the auction ended;\r\n    * @param winner     address of the winner;\r\n    * @param price      price of the good.\r\n    */\r\n    event LogEnd(string detail, address winner, uint256 price);\r\n\r\n    /**\r\n    * Event emitted when the pending trasfer has been extiguished.\r\n    *\r\n    * @param detail     explanation of the event;\r\n    * @param amount     amount transfered.\r\n    */\r\n    event LogPending(string detail, uint256 amount);\r\n\r\n    /**\r\n    * Modifier to check if the function is called in the correct phase\r\n    *\r\n    * @param _phase  phase related to the function.\r\n    */\r\n    modifier atPhase(Phase _phase) {\r\n        require(_phase == phase,\r\n            \"Permission denied, operation out of the correct phase! Check the actual phase\");\r\n        _;\r\n    }\r\n\r\n    /**\r\n    * Modifier to check if the amount specified in the input\r\n    * field is the effective one send to the contract\r\n    *\r\n    * @param amount  amount inserted in the input field.\r\n    */\r\n    modifier correctAmount(uint256 amount) {\r\n        require(amount == msg.value,\r\n            \"Provided input amount is different from value sent, try again!\");\r\n        _;\r\n    }\r\n\r\n    /**\r\n    * Modifier to change the phase based on block mined.\r\n    */\r\n    modifier changePhase() {\r\n        Phase oldP = phase;\r\n        uint256 count = blockCount;\r\n\r\n        /** < Check if the phase change more than 5 block ago\r\n            AND the phase is not the Finilizing one. >*/\r\n        if ( (block.number >= count + 5) && (oldP < Phase.Finilizing)) {\r\n            incrementPhase(oldP, block.number);\r\n        }\r\n        _;\r\n    }\r\n\r\n    /**\r\n    * Modifier to avoid that the seller or the manager make a bid\r\n    * OR buy out the good.\r\n    */\r\n    modifier canInteract() {\r\n        assert(msg.sender != seller && msg.sender != manager);\r\n        _;\r\n    }\r\n\r\n    /**\r\n    * Modifier to permit only to seller and manager to change phase manually.\r\n    */\r\n    modifier canChangePhase() {\r\n        assert(msg.sender == seller || msg.sender == manager);\r\n        _;\r\n    }\r\n\r\n    /**\r\n    * Contract constructor, it can be called from the contract manager\r\n    * and it need the address of the seller and of the manager.\r\n    *\r\n    * @param resPrice   reserve price of the good;\r\n    * @param buyOut     buy out price of the good;\r\n    * @param incr       minimum increment from the previous bid;\r\n    * @param sellerAdd  address of the seller;\r\n    * @param manAdd     address of the manager.\r\n    */\r\n    constructor (uint256 resPrice, uint256 buyOut, uint256 incr, address payable sellerAdd, address manAdd) public {\r\n        buyOutPrice = buyOut;\r\n        reservePrice = resPrice;\r\n        /**< The actual price starts from the reserve one >*/\r\n        actualPrice = resPrice;\r\n        bidIncrement = incr;\r\n\r\n        /**< Address of seller >*/\r\n        seller = sellerAdd;\r\n        /**< Address of manager >*/\r\n        manager = manAdd;\r\n        /**< Address of contract manager >*/\r\n        managerContract = msg.sender;\r\n\r\n        blockCount = block.number;\r\n\r\n        emit LogNewPhase(\"New English auction\",\r\n            Phase.GloryPhase,\r\n            Phase.GloryPhase);\r\n    }\r\n\r\n    /**\r\n    * Manually go forward to the next Phase, only seller or manager can change it.\r\n    * 5 block must be mined from the last phase change and the phase cannot be changed\r\n    * if it is in Filizing or Pending.\r\n    *\r\n    * modifier canChangePhase(): check if the fuction has been called by the seller\r\n    * OR the manager\r\n    */\r\n    function nextPhase() public canChangePhase()  {\r\n        Phase oldP = phase;\r\n        uint256 count = blockCount;\r\n\r\n        /** < Check if the phase change more than 5 block ago\r\n            AND the phase is not the Finilizing one. >*/\r\n        if ( (block.number >= count + 5) && (oldP < Phase.Finilizing)) {\r\n            incrementPhase(oldP, block.number);\r\n        }\r\n    }\r\n\r\n    /**\r\n    * Sell the good before the auction start, emit the event to inform\r\n    * other intrested partecipiants. Then go to the pending phase.\r\n    *\r\n    * @param amount  value transfered to the contract.\r\n    *\r\n    * modifier changePhase(): check if the phase can change (i.e. 5 block have\r\n    * been mined from last phase change).\r\n    *\r\n    * modifier atPhase(Phase.GloryPhase): check if the phase is the right one.\r\n    *\r\n    * modifier canInteract(): check if the caller of the function is not the seller\r\n    * OR the manager.\r\n    *\r\n    * modifier correctAmount(amount): check if the value sent is equal to the amount\r\n    * in th einput field.\r\n    */\r\n    function buyNow(uint256 amount) public payable\r\n         changePhase()\r\n         atPhase(Phase.GloryPhase)\r\n         canInteract()\r\n         correctAmount(amount) {\r\n\r\n        uint256 boPrice = buyOutPrice;\r\n\r\n        /**< Cannot be executed if the value send is not equal to the buyout price >*/\r\n        assert(msg.value == boPrice);\r\n\r\n        emit LogEnd(\"BuyOut. Pending Set\",\r\n            msg.sender,\r\n            boPrice);\r\n\r\n        blockCount = block.number;\r\n        phase = Phase.Pending;\r\n\r\n        actualWinner = msg.sender;\r\n    }\r\n\r\n    /**\r\n    * Submit a bid for the good. Check if the bid is correct and if\r\n    * the bidder is not the actual winner or the seller or the manager.\r\n    * Emit an event to declare the new highest bid.\r\n    *\r\n    * @param amount value transfered to the contract.\r\n    *\r\n    * modifier changePhase(): check if the phase can change (i.e. 5 block have\r\n    * been mined from last phase change).\r\n    *\r\n    * modifier atPhase(Phase.Submitting): check if the phase is the right one.\r\n    *\r\n    * modifier canInteract(): check if the caller of the function is not the seller\r\n    * OR the manager.\r\n    *\r\n    * modifier correctAmount(amount): check if the value sent is equal to the amount\r\n    * in th einput field.\r\n    */\r\n    function makeBid(uint256 amount) public payable\r\n         changePhase()\r\n         atPhase(Phase.Submitting)\r\n         canInteract()\r\n         correctAmount(amount) {\r\n\r\n        address payable oldWinner = actualWinner;\r\n\r\n        /**< Cannot be executed if the sender is the actual winner >*/\r\n        require(oldWinner != msg.sender,\r\n            \"You are the actual winner of the auction!\");\r\n\r\n        uint256 oldPrice = actualPrice;\r\n        uint256 min;\r\n\r\n        /**< If there is no winner the minimum is the reserve price >*/\r\n        if (oldWinner == address(0)) {\r\n            min = oldPrice;\r\n        }\r\n        /**< Otherwise the new bid must be grater than the old one + the min increment >*/\r\n        else {\r\n            min = oldPrice + bidIncrement;\r\n        }\r\n\r\n        /**< Cannot be executed if the bid is too low >*/\r\n        require(msg.value >= min, \"Your bid is too low!\");\r\n\r\n        /**< Update the highest bidder and the actual price >*/\r\n        actualPrice = msg.value;\r\n        actualWinner = msg.sender;\r\n\r\n        /**< If it is not the first bid, return the value of the highest bid to the oldWinner.\r\n            The values of both address and value are already updated, so no rientrance is possible >*/\r\n        if (oldWinner != address(0)) {\r\n            oldWinner.transfer(oldPrice);\r\n        }\r\n\r\n        emit LogNewHighest(\"New Highest\", msg.value);\r\n\r\n        blockCount = block.number;\r\n    }\r\n\r\n    /**\r\n    * Finilize the auction to confirm the end of it and the amount that\r\n    * the winner have to pay for the good. The amount is freez in the contract\r\n    * and the payment become pending.\r\n    * Emit an event to declare the end of the auction.\r\n    *\r\n    * modifier changePhase(): check if the phase can change (i.e. 5 block have\r\n    * been mined from last phase change).\r\n    *\r\n    * modifier atPhase(Phase.Finilizing): check if the phase is the right one.\r\n    */\r\n    function finalize() public\r\n         changePhase()\r\n         atPhase(Phase.Finilizing) {\r\n\r\n        address payable sellAddress = seller;\r\n        address winner = actualWinner;\r\n\r\n        /**< Can be executed only from the seller OR the winner OR in some case from the manager >*/\r\n        require(msg.sender == winner ||\r\n            msg.sender == sellAddress ||\r\n            (msg.sender == manager && block.number >= blockCount + 1440),\r\n            \"Permission denied!\");\r\n\r\n        /**< Check if there is actually a valid bid for the good >*/\r\n        if (winner != address(0)) {\r\n            Phase oldP = phase;\r\n\r\n            blockCount = block.number;\r\n            phase = Phase(uint(oldP) + 1);\r\n\r\n            emit LogEnd(\"Finilized. Pending Set\",\r\n                winner, actualPrice);\r\n        }\r\n        else {\r\n            emit LogEnd(\"Finilized. No Bidder\",\r\n                winner, actualPrice);\r\n\r\n            /**< Delete the auction from the contract manager >*/\r\n            AuctionManager man = AuctionManager(managerContract);\r\n            man.deleteEnglishAuction();\r\n\r\n            /**< Destruct the contract >*/\r\n            delete seller;\r\n            selfdestruct(sellAddress);\r\n        }\r\n    }\r\n\r\n    /**\r\n    * Extinguish the payment freezed in the finilizing phase.\r\n    * The winner have 1440 mined block to do it, otherwise the manager\r\n    * can tranfer the pending amount to the seller, or give back the\r\n    * amount to the winner (e.g. the seller don't send the good to the winner).\r\n    * Emit an event to declare the end of pending payment.\r\n    *\r\n    * modifier atPhase(Phase.Pending): check if the phase is the right one.\r\n    */\r\n    function transferPending() public\r\n         atPhase(Phase.Pending) {\r\n\r\n        address payable sellerAdd = seller;\r\n\r\n        // /**< Can be executed only from the winner OR the manager in a special case >*/\r\n        require(msg.sender == actualWinner ||\r\n            (msg.sender == manager && block.number >= blockCount + 1440),\r\n            \"Permission denied!\");\r\n\r\n        uint256 actPrice = actualPrice;\r\n\r\n        /** < Avoid the rientrance by delete the seller address >*/\r\n        seller = address(0);\r\n        sellerAdd.transfer(actPrice);\r\n\r\n        emit LogPending(\"Pending extinguished\", actPrice);\r\n\r\n        /**< Delete the auction from the contract manager >*/\r\n        AuctionManager man = AuctionManager(managerContract);\r\n        man.deleteEnglishAuction();\r\n\r\n        /**< Destruct the contract >*/\r\n        delete seller;\r\n        selfdestruct(sellerAdd);\r\n    }\r\n\r\n    /**\r\n    * Change the phase.\r\n    *\r\n    * @param oldP      old phase;\r\n    * @param actBlock  actual block.\r\n    */\r\n    function incrementPhase(Phase oldP, uint256 actBlock) private {\r\n        blockCount = actBlock;\r\n        phase = Phase(uint(oldP) + 1);\r\n\r\n        emit LogNewPhase(\"Phase Change\", oldP, phase);\r\n    }\r\n}\r\n",
  "sourcePath": "/home/gianluca/Documenti/AuctionDapp/contracts/EnglishAuction.sol",
  "compiler": {
    "name": "solc",
    "version": "0.5.0+commit.1d4f565a.Emscripten.clang"
  },
  "schemaVersion": "3.0.2",
  "updatedAt": "2019-09-11T10:21:17.192Z",
  "devdoc": {
    "methods": {
      "buyNow(uint256)": {
        "params": {
          "amount": "value transfered to the contract.\r     * modifier changePhase(): check if the phase can change (i.e. 5 block have\r been mined from last phase change).\r     * modifier atPhase(Phase.GloryPhase): check if the phase is the right one.\r     * modifier canInteract(): check if the caller of the function is not the seller\r OR the manager.\r     * modifier correctAmount(amount): check if the value sent is equal to the amount\r in th einput field.\r"
        }
      },
      "constructor": {
        "params": {
          "buyOut": "buy out price of the good;\r",
          "incr": "minimum increment from the previous bid;\r",
          "manAdd": "address of the manager.\r",
          "resPrice": "reserve price of the good;\r",
          "sellerAdd": "address of the seller;\r"
        }
      },
      "makeBid(uint256)": {
        "params": {
          "amount": "value transfered to the contract.\r     * modifier changePhase(): check if the phase can change (i.e. 5 block have\r been mined from last phase change).\r     * modifier atPhase(Phase.Submitting): check if the phase is the right one.\r     * modifier canInteract(): check if the caller of the function is not the seller\r OR the manager.\r     * modifier correctAmount(amount): check if the value sent is equal to the amount\r in th einput field.\r"
        }
      }
    }
  },
  "userdoc": {
    "methods": {
      "buyNow(uint256)": {
        "notice": "Sell the good before the auction start, emit the event to inform\r other intrested partecipiants. Then go to the pending phase.\r "
      },
      "constructor": "Contract constructor, it can be called from the contract manager\r and it need the address of the seller and of the manager.\r ",
      "finalize()": {
        "notice": "Finilize the auction to confirm the end of it and the amount that\r the winner have to pay for the good. The amount is freez in the contract\r and the payment become pending.\r Emit an event to declare the end of the auction.\r     * modifier changePhase(): check if the phase can change (i.e. 5 block have\r been mined from last phase change).\r     * modifier atPhase(Phase.Finilizing): check if the phase is the right one.\r"
      },
      "makeBid(uint256)": {
        "notice": "Submit a bid for the good. Check if the bid is correct and if\r the bidder is not the actual winner or the seller or the manager.\r Emit an event to declare the new highest bid.\r "
      },
      "nextPhase()": {
        "notice": "Manually go forward to the next Phase, only seller or manager can change it.\r 5 block must be mined from the last phase change and the phase cannot be changed\r if it is in Filizing or Pending.\r     * modifier canChangePhase(): check if the fuction has been called by the seller\r OR the manager\r"
      },
      "transferPending()": {
        "notice": "Extinguish the payment freezed in the finilizing phase.\r The winner have 1440 mined block to do it, otherwise the manager\r can tranfer the pending amount to the seller, or give back the\r amount to the winner (e.g. the seller don't send the good to the winner).\r Emit an event to declare the end of pending payment.\r     * modifier atPhase(Phase.Pending): check if the phase is the right one.\r"
      }
    },
    "notice": "Smart contract to create and manage an English Auction.\r The auction could be in 4 different Phase:\r - Glory phase: the good could be bought at its buyout price and\r  the auction will not start;\r - Submitting phase: anyone (excpet for seller and manager) can submit a bid,\r  the bid must be grater than the actual one + the min increment;\r - Finilizing phase: the auction is finished, the seller or the winner have to\r  confirm the end of it moving to the pending phase;\r - Pending phase: the winner has to perform the transfer of the value at which\r  the good has been sell (i.e. his bid).\r  * In some particular case, the manager of the auctions can change the phase or\r can interact with the contract to avoid ambiguous situation.\r The creation and the destruction of the auction will pass throught the contract manager.\r"
  }
}