{
  "contractName": "EnglishAuction",
  "abi": [
    {
      "constant": true,
      "inputs": [],
      "name": "blockCount",
      "outputs": [
        {
          "name": "",
          "type": "uint256"
        }
      ],
      "payable": false,
      "stateMutability": "view",
      "type": "function"
    },
    {
      "constant": true,
      "inputs": [],
      "name": "seller",
      "outputs": [
        {
          "name": "",
          "type": "address"
        }
      ],
      "payable": false,
      "stateMutability": "view",
      "type": "function"
    },
    {
      "constant": true,
      "inputs": [],
      "name": "managerContract",
      "outputs": [
        {
          "name": "",
          "type": "address"
        }
      ],
      "payable": false,
      "stateMutability": "view",
      "type": "function"
    },
    {
      "constant": true,
      "inputs": [],
      "name": "manager",
      "outputs": [
        {
          "name": "",
          "type": "address"
        }
      ],
      "payable": false,
      "stateMutability": "view",
      "type": "function"
    },
    {
      "constant": true,
      "inputs": [],
      "name": "actualPrice",
      "outputs": [
        {
          "name": "",
          "type": "uint256"
        }
      ],
      "payable": false,
      "stateMutability": "view",
      "type": "function"
    },
    {
      "constant": true,
      "inputs": [],
      "name": "phase",
      "outputs": [
        {
          "name": "",
          "type": "uint8"
        }
      ],
      "payable": false,
      "stateMutability": "view",
      "type": "function"
    },
    {
      "constant": true,
      "inputs": [],
      "name": "bidIncrement",
      "outputs": [
        {
          "name": "",
          "type": "uint256"
        }
      ],
      "payable": false,
      "stateMutability": "view",
      "type": "function"
    },
    {
      "constant": true,
      "inputs": [],
      "name": "reservePrice",
      "outputs": [
        {
          "name": "",
          "type": "uint256"
        }
      ],
      "payable": false,
      "stateMutability": "view",
      "type": "function"
    },
    {
      "constant": true,
      "inputs": [],
      "name": "buyOutPrice",
      "outputs": [
        {
          "name": "",
          "type": "uint256"
        }
      ],
      "payable": false,
      "stateMutability": "view",
      "type": "function"
    },
    {
      "constant": true,
      "inputs": [],
      "name": "actualWinner",
      "outputs": [
        {
          "name": "",
          "type": "address"
        }
      ],
      "payable": false,
      "stateMutability": "view",
      "type": "function"
    },
    {
      "inputs": [
        {
          "name": "resPrice",
          "type": "uint256"
        },
        {
          "name": "buyOut",
          "type": "uint256"
        },
        {
          "name": "incr",
          "type": "uint256"
        },
        {
          "name": "sellerAdd",
          "type": "address"
        },
        {
          "name": "manAdd",
          "type": "address"
        }
      ],
      "payable": false,
      "stateMutability": "nonpayable",
      "type": "constructor"
    },
    {
      "anonymous": false,
      "inputs": [
        {
          "indexed": false,
          "name": "detail",
          "type": "string"
        },
        {
          "indexed": false,
          "name": "winner",
          "type": "address"
        },
        {
          "indexed": false,
          "name": "price",
          "type": "uint256"
        }
      ],
      "name": "LogAuctionEnded",
      "type": "event"
    },
    {
      "anonymous": false,
      "inputs": [
        {
          "indexed": false,
          "name": "detail",
          "type": "string"
        },
        {
          "indexed": false,
          "name": "price",
          "type": "uint256"
        }
      ],
      "name": "LogNewHighest",
      "type": "event"
    },
    {
      "anonymous": false,
      "inputs": [
        {
          "indexed": false,
          "name": "detail",
          "type": "string"
        },
        {
          "indexed": false,
          "name": "oldP",
          "type": "uint8"
        },
        {
          "indexed": false,
          "name": "newP",
          "type": "uint8"
        }
      ],
      "name": "LogNewPhase",
      "type": "event"
    },
    {
      "anonymous": false,
      "inputs": [
        {
          "indexed": false,
          "name": "detail",
          "type": "string"
        }
      ],
      "name": "LogBuyOut",
      "type": "event"
    },
    {
      "anonymous": false,
      "inputs": [
        {
          "indexed": false,
          "name": "detail",
          "type": "string"
        }
      ],
      "name": "LogNoBidder",
      "type": "event"
    },
    {
      "anonymous": false,
      "inputs": [
        {
          "indexed": false,
          "name": "detail",
          "type": "string"
        },
        {
          "indexed": false,
          "name": "actPrice",
          "type": "uint256"
        }
      ],
      "name": "LogLowBid",
      "type": "event"
    },
    {
      "anonymous": false,
      "inputs": [
        {
          "indexed": false,
          "name": "detail",
          "type": "string"
        }
      ],
      "name": "LogAddPending",
      "type": "event"
    },
    {
      "anonymous": false,
      "inputs": [
        {
          "indexed": false,
          "name": "detail",
          "type": "string"
        },
        {
          "indexed": false,
          "name": "amount",
          "type": "uint256"
        }
      ],
      "name": "LogExePending",
      "type": "event"
    },
    {
      "constant": false,
      "inputs": [],
      "name": "nextPhase",
      "outputs": [],
      "payable": false,
      "stateMutability": "nonpayable",
      "type": "function"
    },
    {
      "constant": false,
      "inputs": [
        {
          "name": "amount",
          "type": "uint256"
        }
      ],
      "name": "buyNow",
      "outputs": [],
      "payable": true,
      "stateMutability": "payable",
      "type": "function"
    },
    {
      "constant": false,
      "inputs": [
        {
          "name": "amount",
          "type": "uint256"
        }
      ],
      "name": "makeBid",
      "outputs": [
        {
          "name": "",
          "type": "bool"
        }
      ],
      "payable": true,
      "stateMutability": "payable",
      "type": "function"
    },
    {
      "constant": false,
      "inputs": [],
      "name": "finalize",
      "outputs": [],
      "payable": false,
      "stateMutability": "nonpayable",
      "type": "function"
    },
    {
      "constant": false,
      "inputs": [],
      "name": "transferPending",
      "outputs": [],
      "payable": false,
      "stateMutability": "nonpayable",
      "type": "function"
    }
  ],
  "bytecode": "0x608060405260008060006101000a81548160ff0219169083600381111561002257fe5b021790555034801561003357600080fd5b5060405160a0806120b383398101806040528101908080519060200190929190805190602001909291908051906020019092919080519060200190929190805190602001909291905050508360018190555084600281905550846004819055508260038190555081600660006101000a81548173ffffffffffffffffffffffffffffffffffffffff021916908373ffffffffffffffffffffffffffffffffffffffff16021790555080600760006101000a81548173ffffffffffffffffffffffffffffffffffffffff021916908373ffffffffffffffffffffffffffffffffffffffff16021790555033600860006101000a81548173ffffffffffffffffffffffffffffffffffffffff021916908373ffffffffffffffffffffffffffffffffffffffff160217905550436009819055507f20a93b354024288ebb3e8893dcfb0fc10ac3171d14cd5094bf446efdd1303c62600080604051808060200184600381111561019c57fe5b60ff1681526020018360038111156101b057fe5b60ff168152602001828103825260208152602001807f41206e657720456e676c6973682061756374696f6e2069732063726561746564815250602001935050505060405180910390a15050505050611ea68061020d6000396000f3006080604052600436106100db576000357c0100000000000000000000000000000000000000000000000000000000900463ffffffff16806307225b4d146100e057806308551a531461010b57806308a0f32f14610162578063175b2304146101825780632710ac80146101ba5780633eadb6db1461021157806340ec1d5214610228578063481c6a751461023f5780634bb278f3146102965780638c648117146102ad578063b1c9fe6e146102d8578063b3cc167a14610311578063db2e1eed1461033c578063dcea711314610367578063f38c2bc314610392575b600080fd5b3480156100ec57600080fd5b506100f56103e9565b6040518082815260200191505060405180910390f35b34801561011757600080fd5b506101206103ef565b604051808273ffffffffffffffffffffffffffffffffffffffff1673ffffffffffffffffffffffffffffffffffffffff16815260200191505060405180910390f35b61018060048036038101908080359060200190929190505050610415565b005b6101a060048036038101908080359060200190929190505050610998565b604051808215151515815260200191505060405180910390f35b3480156101c657600080fd5b506101cf61102b565b604051808273ffffffffffffffffffffffffffffffffffffffff1673ffffffffffffffffffffffffffffffffffffffff16815260200191505060405180910390f35b34801561021d57600080fd5b50610226611051565b005b34801561023457600080fd5b5061023d611363565b005b34801561024b57600080fd5b5061025461176d565b604051808273ffffffffffffffffffffffffffffffffffffffff1673ffffffffffffffffffffffffffffffffffffffff16815260200191505060405180910390f35b3480156102a257600080fd5b506102ab611793565b005b3480156102b957600080fd5b506102c2611e2a565b6040518082815260200191505060405180910390f35b3480156102e457600080fd5b506102ed611e30565b604051808260038111156102fd57fe5b60ff16815260200191505060405180910390f35b34801561031d57600080fd5b50610326611e42565b6040518082815260200191505060405180910390f35b34801561034857600080fd5b50610351611e48565b6040518082815260200191505060405180910390f35b34801561037357600080fd5b5061037c611e4e565b6040518082815260200191505060405180910390f35b34801561039e57600080fd5b506103a7611e54565b604051808273ffffffffffffffffffffffffffffffffffffffff1673ffffffffffffffffffffffffffffffffffffffff16815260200191505060405180910390f35b60095481565b600660009054906101000a900473ffffffffffffffffffffffffffffffffffffffff1681565b60008060008060009054906101000a900460ff169150600954905060058101431015801561045957506002600381111561044b57fe5b82600381111561045757fe5b105b1561054e5743600981905550600182600381111561047357fe5b01600381111561047f57fe5b6000806101000a81548160ff0219169083600381111561049b57fe5b02179055507f20a93b354024288ebb3e8893dcfb0fc10ac3171d14cd5094bf446efdd1303c628260018460038111156104d057fe5b0160038111156104dc57fe5b60405180806020018460038111156104f057fe5b60ff16815260200183600381111561050457fe5b60ff168152602001828103825260108152602001807f5068617365206973206368616e67656400000000000000000000000000000000815250602001935050505060405180910390a15b60008060009054906101000a900460ff16600381111561056a57fe5b81600381111561057657fe5b141515610637576040517f08c379a000000000000000000000000000000000000000000000000000000000815260040180806020018281038252604b8152602001807f5065726d697373696f6e2064656e6965642c206f7065726174696f6e206f757481526020017f206f66207468652072696768742070686173652120436865636b20746865206181526020017f637475616c20706861736500000000000000000000000000000000000000000081525060600191505060405180910390fd5b600660009054906101000a900473ffffffffffffffffffffffffffffffffffffffff1673ffffffffffffffffffffffffffffffffffffffff163373ffffffffffffffffffffffffffffffffffffffff161415151561069157fe5b84348114151561072f576040517f08c379a000000000000000000000000000000000000000000000000000000000815260040180806020018281038252603e8152602001807f50726f766964656420696e70757420616d6f756e74206973206469666665726581526020017f6e742066726f6d2076616c75652073656e742c2074727920616761696e21000081525060400191505060405180910390fd5b6001549450843414151561073f57fe5b7fdd0c6853f3a322c140dc23f90c0191f57edeb662a8dbed09fa1df0d391a66fd16040518080602001828103825260498152602001807f54686520676f6f6420686173206265656e2073656c6c20666f7220697473206281526020017f61796f757420707269636521205468652061756374696f6e2077696c6c206e6f81526020017f742073746172747321000000000000000000000000000000000000000000000081525060600191505060405180910390a17f649af8020253c009be6e7da27829695738a0177b4636adda9d86a7a244c753ed338660405180806020018473ffffffffffffffffffffffffffffffffffffffff1673ffffffffffffffffffffffffffffffffffffffff168152602001838152602001828103825260158152602001807f5468652061756374696f6e20697320656e646564210000000000000000000000815250602001935050505060405180910390a14360098190555060036000806101000a81548160ff021916908360038111156108bc57fe5b021790555033600560006101000a81548173ffffffffffffffffffffffffffffffffffffffff021916908373ffffffffffffffffffffffffffffffffffffffff1602179055507f05e17bc502f00339222045756cd45b20d1e2c68d44f423a1f6edcfe2226a92026040518080602001828103825260228152602001807f5468652070656e64696e67207472616e7366657220686173206265656e20736581526020017f742100000000000000000000000000000000000000000000000000000000000081525060400191505060405180910390a1505050505050565b6000806000806000806000809054906101000a900460ff16915060095490506005810143101580156109e05750600260038111156109d257fe5b8260038111156109de57fe5b105b15610ad5574360098190555060018260038111156109fa57fe5b016003811115610a0657fe5b6000806101000a81548160ff02191690836003811115610a2257fe5b02179055507f20a93b354024288ebb3e8893dcfb0fc10ac3171d14cd5094bf446efdd1303c62826001846003811115610a5757fe5b016003811115610a6357fe5b6040518080602001846003811115610a7757fe5b60ff168152602001836003811115610a8b57fe5b60ff168152602001828103825260108152602001807f5068617365206973206368616e67656400000000000000000000000000000000815250602001935050505060405180910390a15b60016000809054906101000a900460ff166003811115610af157fe5b816003811115610afd57fe5b141515610bbe576040517f08c379a000000000000000000000000000000000000000000000000000000000815260040180806020018281038252604b8152602001807f5065726d697373696f6e2064656e6965642c206f7065726174696f6e206f757481526020017f206f66207468652072696768742070686173652120436865636b20746865206181526020017f637475616c20706861736500000000000000000000000000000000000000000081525060600191505060405180910390fd5b600660009054906101000a900473ffffffffffffffffffffffffffffffffffffffff1673ffffffffffffffffffffffffffffffffffffffff163373ffffffffffffffffffffffffffffffffffffffff1614151515610c1857fe5b873481141515610cb6576040517f08c379a000000000000000000000000000000000000000000000000000000000815260040180806020018281038252603e8152602001807f50726f766964656420696e70757420616d6f756e74206973206469666665726581526020017f6e742066726f6d2076616c75652073656e742c2074727920616761696e21000081525060400191505060405180910390fd5b600560009054906101000a900473ffffffffffffffffffffffffffffffffffffffff1696503373ffffffffffffffffffffffffffffffffffffffff168773ffffffffffffffffffffffffffffffffffffffff1614151515610da5576040517f08c379a00000000000000000000000000000000000000000000000000000000081526004018080602001828103825260298152602001807f596f7520617265207468652061637475616c2077696e6e6572206f662074686581526020017f2061756374696f6e21000000000000000000000000000000000000000000000081525060400191505060405180910390fd5b6004549550600073ffffffffffffffffffffffffffffffffffffffff168773ffffffffffffffffffffffffffffffffffffffff161415610de757859450610def565b600354860194505b84341015610edd577f625f343b17785b09309b5066f5b257924473f283219e999c1079fe663795ff01346040518080602001838152602001828103825260368152602001807f546865726520697320616c726561647920616e2068696768657374206269642c81526020017f2074727920746f20696e637265736520796f75727321000000000000000000008152506040019250505060405180910390a13373ffffffffffffffffffffffffffffffffffffffff166108fc349081150290604051600060405180830381858888f19350505050158015610ed3573d6000803e3d6000fd5b506000975061101f565b3460048190555033600560006101000a81548173ffffffffffffffffffffffffffffffffffffffff021916908373ffffffffffffffffffffffffffffffffffffffff160217905550600073ffffffffffffffffffffffffffffffffffffffff168773ffffffffffffffffffffffffffffffffffffffff16141515610fa3578673ffffffffffffffffffffffffffffffffffffffff166108fc879081150290604051600060405180830381858888f19350505050158015610fa1573d6000803e3d6000fd5b505b7f5caf3e78c234268774887562882f13d98c42065d5d2098040520b6fdad3ab210346040518080602001838152602001828103825260128152602001807f41206e65772068696768657374206269642100000000000000000000000000008152506020019250505060405180910390a143600981905550600197505b50505050505050919050565b600860009054906101000a900473ffffffffffffffffffffffffffffffffffffffff1681565b600080600660009054906101000a900473ffffffffffffffffffffffffffffffffffffffff1673ffffffffffffffffffffffffffffffffffffffff163373ffffffffffffffffffffffffffffffffffffffff1614806110fd5750600760009054906101000a900473ffffffffffffffffffffffffffffffffffffffff1673ffffffffffffffffffffffffffffffffffffffff163373ffffffffffffffffffffffffffffffffffffffff16145b151561110557fe5b6000809054906101000a900460ff16915060095490506005810143101515156111e2576040517f08c379a000000000000000000000000000000000000000000000000000000000815260040180806020018281038252604d8152602001807f3520626c6f636b73206d757374206265206d696e6564206265666f726520796f81526020017f7520636f756c64206368616e67652070686173652e20506c656173652074727981526020017f20616761696e206c61746572210000000000000000000000000000000000000081525060600191505060405180910390fd5b600260038111156111ef57fe5b8260038111156111fb57fe5b101515611270576040517f08c379a00000000000000000000000000000000000000000000000000000000081526004018080602001828103825260198152602001807f41756374696f6e20697320616c726561647920656e646564210000000000000081525060200191505060405180910390fd5b43600981905550600182600381111561128557fe5b01600381111561129157fe5b6000806101000a81548160ff021916908360038111156112ad57fe5b02179055507f20a93b354024288ebb3e8893dcfb0fc10ac3171d14cd5094bf446efdd1303c628260018460038111156112e257fe5b0160038111156112ee57fe5b604051808060200184600381111561130257fe5b60ff16815260200183600381111561131657fe5b60ff168152602001828103825260108152602001807f5068617365206973206368616e67656400000000000000000000000000000000815250602001935050505060405180910390a15050565b60008060008060036000809054906101000a900460ff16600381111561138557fe5b81600381111561139157fe5b141515611452576040517f08c379a000000000000000000000000000000000000000000000000000000000815260040180806020018281038252604b8152602001807f5065726d697373696f6e2064656e6965642c206f7065726174696f6e206f757481526020017f206f66207468652072696768742070686173652120436865636b20746865206181526020017f637475616c20706861736500000000000000000000000000000000000000000081525060600191505060405180910390fd5b600760009054906101000a900473ffffffffffffffffffffffffffffffffffffffff169450600660009054906101000a900473ffffffffffffffffffffffffffffffffffffffff169350600560009054906101000a900473ffffffffffffffffffffffffffffffffffffffff1673ffffffffffffffffffffffffffffffffffffffff163373ffffffffffffffffffffffffffffffffffffffff16148061153557508473ffffffffffffffffffffffffffffffffffffffff163373ffffffffffffffffffffffffffffffffffffffff1614801561153457506105a0600954014310155b5b15156115a9576040517f08c379a00000000000000000000000000000000000000000000000000000000081526004018080602001828103825260128152602001807f5065726d697373696f6e2064656e69656421000000000000000000000000000081525060200191505060405180910390fd5b600454925060006004819055508373ffffffffffffffffffffffffffffffffffffffff166108fc849081150290604051600060405180830381858888f193505050501580156115fc573d6000803e3d6000fd5b507f66eb258f8cd526decddb60d20a4fbcf9c87abf89183d4419d9dd9f5a1d5085ee836040518080602001838152602001828103825260278152602001807f5468652070656e64696e67207472616e7366657220686173206265656e20657881526020017f65637574656421000000000000000000000000000000000000000000000000008152506040019250505060405180910390a18491508173ffffffffffffffffffffffffffffffffffffffff1663b3323b366040518163ffffffff167c0100000000000000000000000000000000000000000000000000000000028152600401600060405180830381600087803b1580156116fa57600080fd5b505af115801561170e573d6000803e3d6000fd5b505050506000600660006101000a81548173ffffffffffffffffffffffffffffffffffffffff021916908373ffffffffffffffffffffffffffffffffffffffff1602179055508373ffffffffffffffffffffffffffffffffffffffff16ff5b600760009054906101000a900473ffffffffffffffffffffffffffffffffffffffff1681565b6000806000806000806000809054906101000a900460ff16915060095490506005810143101580156117db5750600260038111156117cd57fe5b8260038111156117d957fe5b105b156118d0574360098190555060018260038111156117f557fe5b01600381111561180157fe5b6000806101000a81548160ff0219169083600381111561181d57fe5b02179055507f20a93b354024288ebb3e8893dcfb0fc10ac3171d14cd5094bf446efdd1303c6282600184600381111561185257fe5b01600381111561185e57fe5b604051808060200184600381111561187257fe5b60ff16815260200183600381111561188657fe5b60ff168152602001828103825260108152602001807f5068617365206973206368616e67656400000000000000000000000000000000815250602001935050505060405180910390a15b60026000809054906101000a900460ff1660038111156118ec57fe5b8160038111156118f857fe5b1415156119b9576040517f08c379a000000000000000000000000000000000000000000000000000000000815260040180806020018281038252604b8152602001807f5065726d697373696f6e2064656e6965642c206f7065726174696f6e206f757481526020017f206f66207468652072696768742070686173652120436865636b20746865206181526020017f637475616c20706861736500000000000000000000000000000000000000000081525060600191505060405180910390fd5b600660009054906101000a900473ffffffffffffffffffffffffffffffffffffffff1673ffffffffffffffffffffffffffffffffffffffff163373ffffffffffffffffffffffffffffffffffffffff161480611a625750600760009054906101000a900473ffffffffffffffffffffffffffffffffffffffff1673ffffffffffffffffffffffffffffffffffffffff163373ffffffffffffffffffffffffffffffffffffffff16145b1515611a6a57fe5b600660009054906101000a900473ffffffffffffffffffffffffffffffffffffffff169650600560009054906101000a900473ffffffffffffffffffffffffffffffffffffffff1695508573ffffffffffffffffffffffffffffffffffffffff163373ffffffffffffffffffffffffffffffffffffffff16141515611aeb57fe5b7f649af8020253c009be6e7da27829695738a0177b4636adda9d86a7a244c753ed8660045460405180806020018473ffffffffffffffffffffffffffffffffffffffff1673ffffffffffffffffffffffffffffffffffffffff168152602001838152602001828103825260158152602001807f5468652061756374696f6e20697320656e646564210000000000000000000000815250602001935050505060405180910390a160008673ffffffffffffffffffffffffffffffffffffffff16141515611c97576000809054906101000a900460ff169450436009819055506001856003811115611bd757fe5b016003811115611be357fe5b6000806101000a81548160ff02191690836003811115611bff57fe5b02179055507f05e17bc502f00339222045756cd45b20d1e2c68d44f423a1f6edcfe2226a92026040518080602001828103825260228152602001807f5468652070656e64696e67207472616e7366657220686173206265656e20736581526020017f742100000000000000000000000000000000000000000000000000000000000081525060400191505060405180910390a1611e21565b7f6c359ec96a83dc104f3bd6b0111271d19c1a6ffe38b647e101104c1c0a09d7a160405180806020018281038252603f8152602001807f4e6f626f6479206d616b657320612062696420666f7220746865206974656d2c81526020017f2074727920746f2063726561746520616e6f746865722061756374696f6e210081525060400191505060405180910390a1600760009054906101000a900473ffffffffffffffffffffffffffffffffffffffff1693508373ffffffffffffffffffffffffffffffffffffffff1663b3323b366040518163ffffffff167c0100000000000000000000000000000000000000000000000000000000028152600401600060405180830381600087803b158015611dae57600080fd5b505af1158015611dc2573d6000803e3d6000fd5b505050506000600660006101000a81548173ffffffffffffffffffffffffffffffffffffffff021916908373ffffffffffffffffffffffffffffffffffffffff1602179055508673ffffffffffffffffffffffffffffffffffffffff16ff5b50505050505050565b60045481565b6000809054906101000a900460ff1681565b60035481565b60025481565b60015481565b600560009054906101000a900473ffffffffffffffffffffffffffffffffffffffff16815600a165627a7a72305820edb4335bb5e23ebd4484908b866083d80ce51252a2bbe65848e2e2619d2a94350029",
  "source": "pragma solidity 0.4.23;\r\n\r\nimport \"./AuctionManager.sol\";\r\n\r\ncontract EnglishAuction {\r\n\r\n    // Different Phase of the auction\r\n    enum Phase {\r\n        GloryPhase,\r\n        Submitting,\r\n        Finilizing,\r\n        Pending\r\n    }\r\n    // Global variable of the phase\r\n    Phase public phase = Phase.GloryPhase;\r\n    \r\n    uint256 public buyOutPrice;     // price to sell the good before the auction\r\n    uint256 public reservePrice;    // minimum price of good\r\n\r\n    uint256 public bidIncrement;    // minimum incremente from the previous highest bid\r\n    uint256 public actualPrice;     // acutal highest bid\r\n\r\n    address public actualWinner;    // actual partecipant who sumbit the highest bid\r\n\r\n    address public seller;          // seller of the good\r\n    address public manager;         // manager address\r\n\r\n    address public managerContract; // contract menager address\r\n\r\n    uint256 public blockCount;     // block counter to update the phase\r\n\r\n    event LogAuctionEnded(string detail, address winner, uint256 price);  // end of auction\r\n    event LogNewHighest(string detail, uint256 price);                    // update of highest bid\r\n    event LogNewPhase(string detail, Phase oldP, Phase newP);             // update of the phase\r\n    event LogBuyOut(string detail);                        // the good has been sell before the auction\r\n    event LogNoBidder(string detail);                      // if noone make a bid for the good before the end of the auction\r\n    event LogLowBid(string detail, uint256 actPrice);      // if the bid is lower than the highest \r\n    event LogAddPending(string detail);\r\n    event LogExePending(string detail, uint256 amount);\r\n\r\n    // modifier to check if the function is called in the right phase\r\n    modifier atPhase(Phase _phase) {\r\n        require(_phase == phase, \r\n        \"Permission denied, operation out of the right phase! Check the actual phase\");\r\n        _;\r\n    }\r\n    \r\n    // modifier to check if the amount specified in \r\n    // the input field is the effective one send to the contract\r\n    modifier correctAmount(uint256 amount) {\r\n        require(amount == msg.value, \r\n            \"Provided input amount is different from value sent, try again!\");\r\n        _;\r\n    }\r\n\r\n    // modifier to change phase based on block mined\r\n    modifier changePhase() {\r\n        Phase oldP = phase;\r\n        uint256 count = blockCount;\r\n\r\n        if ( block.number >= count + 5 && oldP < Phase.Finilizing) {\r\n            blockCount = block.number;\r\n            phase = Phase(uint(oldP) + 1);\r\n        \r\n            emit LogNewPhase(\"Phase is changed\", oldP, Phase(uint(oldP)+1));\r\n        }\r\n        _;\r\n    }\r\n\r\n    // modifier to avoid that the seller bid on its own auction\r\n    modifier notSeller() {\r\n        assert(msg.sender != seller);\r\n        _;\r\n    }\r\n\r\n    // modifier to permit only to seller and manager to change phase\r\n    modifier canChangePhase() {\r\n        assert(msg.sender == seller || msg.sender == manager);\r\n        _;\r\n    }\r\n\r\n\r\n    constructor (uint256 resPrice, uint256 buyOut, uint256 incr, address sellerAdd, address manAdd) public {\r\n        buyOutPrice = buyOut;\r\n        reservePrice = resPrice;\r\n        actualPrice = resPrice;     // the actual price starts from the reserve one\r\n        bidIncrement = incr;\r\n        \r\n        seller = sellerAdd;\r\n        \r\n        manager = manAdd;\r\n        managerContract = msg.sender;\r\n        blockCount = block.number;\r\n\r\n        emit LogNewPhase(\"A new English auction is created\", Phase.GloryPhase, Phase.GloryPhase);\r\n    }\r\n\r\n    // Go forward to the next Phase, only seller or menager contract\r\n    // Emitting an event to inform all the partecipiant interested \r\n    function nextPhase() canChangePhase() public {\r\n        Phase oldP = phase;\r\n        uint256 count = blockCount;\r\n        \r\n        require(block.number >= count + 5, \r\n            \"5 blocks must be mined before you could change phase. Please try again later!\");\r\n        require(oldP < Phase.Finilizing,\r\n            \"Auction is already ended!\");\r\n        \r\n        blockCount = block.number;\r\n        phase = Phase(uint(oldP) + 1);\r\n        \r\n        emit LogNewPhase(\"Phase is changed\", oldP, Phase(uint(oldP)+1));\r\n    }\r\n\r\n    // Sell the good before the auction start, emit the event to inform other intrested partecipiants\r\n    function buyNow(uint256 amount) public payable changePhase() atPhase(Phase.GloryPhase) notSeller() correctAmount(amount) {\r\n        uint256 boPrice = buyOutPrice;\r\n        \r\n        // Cannot be executed if the value send is not equal to the buyout price\r\n        assert(msg.value == boPrice);\r\n\r\n        emit LogBuyOut(\"The good has been sell for its bayout price! The auction will not starts!\");\r\n        \r\n        emit LogAuctionEnded(\"The auction is ended!\", msg.sender, boPrice);\r\n    \r\n        // avoid rientrance by set to zero actual price of the good\r\n        blockCount = block.number;\r\n        phase = Phase.Pending;\r\n\r\n        actualWinner = msg.sender;\r\n    \r\n        emit LogAddPending(\"The pending transfer has been set!\");\r\n    }\r\n\r\n    // Anyone could sumbit a bid, emit an event if the bid is too low, \r\n    // or if it is the new highest one \r\n    function makeBid(uint256 amount) public payable changePhase() atPhase(Phase.Submitting) \r\n                                        notSeller() correctAmount(amount) returns(bool) {\r\n        address oldWinner = actualWinner;\r\n        \r\n        // Cannot be executed if the sender is the actual winner\r\n        require(oldWinner != msg.sender, \"You are the actual winner of the auction!\");\r\n        \r\n        uint256 oldPrice = actualPrice;\r\n        uint256 min;\r\n\r\n        // If there is no winner the minimum is the reserve price (e.g. the actual at start)\r\n        if (oldWinner == address(0)) {\r\n            min = oldPrice;\r\n        }\r\n        else {\r\n            min = oldPrice + bidIncrement;\r\n        }\r\n\r\n        // If the bid is too low, emit an event return\r\n        if( msg.value < min ){\r\n            emit LogLowBid(\"There is already an highest bid, try to increse yours!\", msg.value);\r\n            msg.sender.transfer(msg.value);\r\n            return false;\r\n        }\r\n\r\n        // Update the highest bidder and the actual price\r\n        actualPrice = msg.value;\r\n        actualWinner = msg.sender;\r\n        \r\n        // If it is not the first bid, return the value of the highest bid to the oldWinner\r\n        // the values of bot (address and parameter) are already updated\r\n        if (oldWinner != address(0)) {\r\n            oldWinner.transfer(oldPrice);\r\n        }\r\n        \r\n        emit LogNewHighest(\"A new highest bid!\", msg.value);\r\n\r\n        blockCount = block.number;\r\n\r\n        return true;\r\n    }\r\n\r\n    // End the auction by transfer the value of the highest bid to the seller\r\n    function finalize() public changePhase() atPhase(Phase.Finilizing) canChangePhase() {\r\n        address sellAddress = seller;\r\n        address winner = actualWinner;\r\n\r\n        // Can be executed only from the seller or \r\n        // the highest bidder or in some case from the manager\r\n        assert(msg.sender == winner);\r\n\r\n        emit LogAuctionEnded(\"The auction is ended!\", winner, actualPrice);\r\n\r\n        // Check if there is actually a valid bid for the good\r\n        if (winner != 0) {\r\n            Phase oldP = phase;\r\n            \r\n            blockCount = block.number;\r\n            phase = Phase(uint(oldP) + 1);\r\n        \r\n            emit LogAddPending(\"The pending transfer has been set!\");\r\n        }\r\n        else {\r\n            emit LogNoBidder(\"Nobody makes a bid for the item, try to create another auction!\");\r\n\r\n            AuctionManager man = AuctionManager(manager);\r\n            man.deleteEnglishAuction();\r\n\r\n            // Distruct the contract\r\n            seller = 0;\r\n            selfdestruct(sellAddress);\r\n        }\r\n    }\r\n\r\n    function transferPending() public atPhase(Phase.Pending) {\r\n        address managerRef = manager;\r\n        address sellerAdd = seller;\r\n\r\n        require(msg.sender == actualWinner || \r\n                (msg.sender == managerRef && block.number >= blockCount + 1440), \r\n                \"Permission denied!\");\r\n\r\n        uint256 actPrice = actualPrice;\r\n\r\n        actualPrice = 0;\r\n        sellerAdd.transfer(actPrice);\r\n\r\n        emit LogExePending(\"The pending transfer has been executed!\", actPrice);\r\n\r\n        AuctionManager man = AuctionManager(managerRef);\r\n        man.deleteEnglishAuction();\r\n\r\n        // Distruct the contract\r\n        seller = 0;\r\n        selfdestruct(sellerAdd);\r\n    }\r\n}\r\n",
  "sourcePath": "/home/zed/Documenti/Dapp/contracts/EnglishAuction.sol",
  "compiler": {
    "name": "solc",
    "version": "0.4.23+commit.124ca40d.Emscripten.clang"
  },
  "schemaVersion": "3.0.11",
  "updatedAt": "2019-07-27T17:29:02.788Z",
  "devdoc": {
    "methods": {}
  },
  "userdoc": {
    "methods": {}
  }
}