{
  "contractName": "VicreyAuction",
  "abi": [
    {
      "constant": true,
      "inputs": [],
      "name": "blockCount",
      "outputs": [
        {
          "name": "",
          "type": "uint256"
        }
      ],
      "payable": false,
      "stateMutability": "view",
      "type": "function"
    },
    {
      "constant": true,
      "inputs": [],
      "name": "seller",
      "outputs": [
        {
          "name": "",
          "type": "address"
        }
      ],
      "payable": false,
      "stateMutability": "view",
      "type": "function"
    },
    {
      "constant": true,
      "inputs": [],
      "name": "managerContract",
      "outputs": [
        {
          "name": "",
          "type": "address"
        }
      ],
      "payable": false,
      "stateMutability": "view",
      "type": "function"
    },
    {
      "constant": true,
      "inputs": [
        {
          "name": "",
          "type": "address"
        }
      ],
      "name": "bidHash",
      "outputs": [
        {
          "name": "",
          "type": "bytes32"
        }
      ],
      "payable": false,
      "stateMutability": "view",
      "type": "function"
    },
    {
      "constant": true,
      "inputs": [],
      "name": "manager",
      "outputs": [
        {
          "name": "",
          "type": "address"
        }
      ],
      "payable": false,
      "stateMutability": "view",
      "type": "function"
    },
    {
      "constant": true,
      "inputs": [],
      "name": "actualPrice",
      "outputs": [
        {
          "name": "",
          "type": "uint256"
        }
      ],
      "payable": false,
      "stateMutability": "view",
      "type": "function"
    },
    {
      "constant": true,
      "inputs": [],
      "name": "phase",
      "outputs": [
        {
          "name": "",
          "type": "uint8"
        }
      ],
      "payable": false,
      "stateMutability": "view",
      "type": "function"
    },
    {
      "constant": true,
      "inputs": [],
      "name": "deposit",
      "outputs": [
        {
          "name": "",
          "type": "uint256"
        }
      ],
      "payable": false,
      "stateMutability": "view",
      "type": "function"
    },
    {
      "constant": true,
      "inputs": [],
      "name": "highestBid",
      "outputs": [
        {
          "name": "",
          "type": "uint256"
        }
      ],
      "payable": false,
      "stateMutability": "view",
      "type": "function"
    },
    {
      "constant": true,
      "inputs": [],
      "name": "reservePrice",
      "outputs": [
        {
          "name": "",
          "type": "uint256"
        }
      ],
      "payable": false,
      "stateMutability": "view",
      "type": "function"
    },
    {
      "constant": true,
      "inputs": [],
      "name": "actualWinner",
      "outputs": [
        {
          "name": "",
          "type": "address"
        }
      ],
      "payable": false,
      "stateMutability": "view",
      "type": "function"
    },
    {
      "inputs": [
        {
          "name": "resPrice",
          "type": "uint256"
        },
        {
          "name": "depositValue",
          "type": "uint256"
        },
        {
          "name": "sellerAdd",
          "type": "address"
        },
        {
          "name": "manAdd",
          "type": "address"
        }
      ],
      "payable": false,
      "stateMutability": "nonpayable",
      "type": "constructor"
    },
    {
      "anonymous": false,
      "inputs": [
        {
          "indexed": false,
          "name": "detail",
          "type": "string"
        },
        {
          "indexed": false,
          "name": "oldP",
          "type": "uint8"
        },
        {
          "indexed": false,
          "name": "newP",
          "type": "uint8"
        }
      ],
      "name": "LogNewPhase",
      "type": "event"
    },
    {
      "anonymous": false,
      "inputs": [
        {
          "indexed": false,
          "name": "detail",
          "type": "string"
        },
        {
          "indexed": false,
          "name": "price",
          "type": "uint256"
        }
      ],
      "name": "LogNewHighest",
      "type": "event"
    },
    {
      "anonymous": false,
      "inputs": [
        {
          "indexed": false,
          "name": "detail",
          "type": "string"
        },
        {
          "indexed": false,
          "name": "price",
          "type": "uint256"
        }
      ],
      "name": "LogNewPrice",
      "type": "event"
    },
    {
      "anonymous": false,
      "inputs": [
        {
          "indexed": false,
          "name": "detail",
          "type": "string"
        },
        {
          "indexed": false,
          "name": "winner",
          "type": "address"
        },
        {
          "indexed": false,
          "name": "price",
          "type": "uint256"
        }
      ],
      "name": "LogEnd",
      "type": "event"
    },
    {
      "anonymous": false,
      "inputs": [
        {
          "indexed": false,
          "name": "detail",
          "type": "string"
        },
        {
          "indexed": false,
          "name": "amount",
          "type": "uint256"
        }
      ],
      "name": "LogPending",
      "type": "event"
    },
    {
      "constant": false,
      "inputs": [],
      "name": "nextPhase",
      "outputs": [],
      "payable": false,
      "stateMutability": "nonpayable",
      "type": "function"
    },
    {
      "constant": false,
      "inputs": [
        {
          "name": "hashValue",
          "type": "bytes32"
        }
      ],
      "name": "commit",
      "outputs": [],
      "payable": true,
      "stateMutability": "payable",
      "type": "function"
    },
    {
      "constant": false,
      "inputs": [],
      "name": "withdraw",
      "outputs": [],
      "payable": false,
      "stateMutability": "nonpayable",
      "type": "function"
    },
    {
      "constant": false,
      "inputs": [
        {
          "name": "nonce",
          "type": "string"
        }
      ],
      "name": "openBid",
      "outputs": [],
      "payable": true,
      "stateMutability": "payable",
      "type": "function"
    },
    {
      "constant": false,
      "inputs": [],
      "name": "finalize",
      "outputs": [],
      "payable": false,
      "stateMutability": "nonpayable",
      "type": "function"
    },
    {
      "constant": false,
      "inputs": [],
      "name": "transferPending",
      "outputs": [],
      "payable": false,
      "stateMutability": "nonpayable",
      "type": "function"
    }
  ],
  "bytecode": "0x608060405260008060006101000a81548160ff0219169083600581111561002257fe5b021790555034801561003357600080fd5b50604051608080620023578339810180604052608081101561005457600080fd5b8101908080519060200190929190805190602001909291908051906020019092919080519060200190929190505050600084111515610121576040517f08c379a000000000000000000000000000000000000000000000000000000000815260040180806020018281038252602b8152602001807f5468652072657365727665207072696365206d7573742062652067726174657281526020017f207468616e207a65726f2100000000000000000000000000000000000000000081525060400191505060405180910390fd5b83600681905550836005819055508260018190555081600760006101000a81548173ffffffffffffffffffffffffffffffffffffffff021916908373ffffffffffffffffffffffffffffffffffffffff16021790555080600860006101000a81548173ffffffffffffffffffffffffffffffffffffffff021916908373ffffffffffffffffffffffffffffffffffffffff16021790555033600960006101000a81548173ffffffffffffffffffffffffffffffffffffffff021916908373ffffffffffffffffffffffffffffffffffffffff16021790555043600a819055507f20a93b354024288ebb3e8893dcfb0fc10ac3171d14cd5094bf446efdd1303c62600080604051808060200184600581111561023857fe5b60ff16815260200183600581111561024c57fe5b60ff168152602001828103825260128152602001807f4e6577205669637265792061756374696f6e0000000000000000000000000000815250602001935050505060405180910390a1505050506120ae80620002a96000396000f3fe6080604052600436106100f1576000357c0100000000000000000000000000000000000000000000000000000000900463ffffffff168063052079c4146100f657806307225b4d146101b157806308551a53146101dc5780632710ac80146102335780632ad194c41461028a5780633ccfd60b146102ef5780633eadb6db1461030657806340ec1d521461031d578063481c6a75146103345780634bb278f31461038b5780638c648117146103a2578063b1c9fe6e146103cd578063d0e30db014610406578063d57bde7914610431578063db2e1eed1461045c578063f14fcbc814610487578063f38c2bc3146104b5575b600080fd5b6101af6004803603602081101561010c57600080fd5b810190808035906020019064010000000081111561012957600080fd5b82018360208201111561013b57600080fd5b8035906020019184600183028401116401000000008311171561015d57600080fd5b91908080601f016020809104026020016040519081016040528093929190818152602001838380828437600081840152601f19601f82011690508083019250505050505050919291929050505061050c565b005b3480156101bd57600080fd5b506101c6610cca565b6040518082815260200191505060405180910390f35b3480156101e857600080fd5b506101f1610cd0565b604051808273ffffffffffffffffffffffffffffffffffffffff1673ffffffffffffffffffffffffffffffffffffffff16815260200191505060405180910390f35b34801561023f57600080fd5b50610248610cf6565b604051808273ffffffffffffffffffffffffffffffffffffffff1673ffffffffffffffffffffffffffffffffffffffff16815260200191505060405180910390f35b34801561029657600080fd5b506102d9600480360360208110156102ad57600080fd5b81019080803573ffffffffffffffffffffffffffffffffffffffff169060200190929190505050610d1c565b6040518082815260200191505060405180910390f35b3480156102fb57600080fd5b50610304610d34565b005b34801561031257600080fd5b5061031b610fde565b005b34801561032957600080fd5b506103326110e6565b005b34801561034057600080fd5b506103496115a4565b604051808273ffffffffffffffffffffffffffffffffffffffff1673ffffffffffffffffffffffffffffffffffffffff16815260200191505060405180910390f35b34801561039757600080fd5b506103a06115ca565b005b3480156103ae57600080fd5b506103b7611bc7565b6040518082815260200191505060405180910390f35b3480156103d957600080fd5b506103e2611bcd565b604051808260058111156103f257fe5b60ff16815260200191505060405180910390f35b34801561041257600080fd5b5061041b611bdf565b6040518082815260200191505060405180910390f35b34801561043d57600080fd5b50610446611be5565b6040518082815260200191505060405180910390f35b34801561046857600080fd5b50610471611beb565b6040518082815260200191505060405180910390f35b6104b36004803603602081101561049d57600080fd5b8101908080359060200190929190505050611bf1565b005b3480156104c157600080fd5b506104ca611f74565b604051808273ffffffffffffffffffffffffffffffffffffffff1673ffffffffffffffffffffffffffffffffffffffff16815260200191505060405180910390f35b60008060009054906101000a900460ff1690506000600a54905060058101431015801561054f57506004600581111561054157fe5b82600581111561054d57fe5b105b1561055f5761055e8243611f9a565b5b60036000809054906101000a900460ff16600581111561057b57fe5b81600581111561058757fe5b141515610648576040517f08c379a000000000000000000000000000000000000000000000000000000000815260040180806020018281038252604d8152602001807f5065726d697373696f6e2064656e6965642c206f7065726174696f6e206f757481526020017f206f662074686520636f72726563742070686173652120436865636b2074686581526020017f2061637475616c2070686173650000000000000000000000000000000000000081525060600191505060405180910390fd5b6000600102600b60003373ffffffffffffffffffffffffffffffffffffffff1673ffffffffffffffffffffffffffffffffffffffff1681526020019081526020016000205414151515610703576040517f08c379a00000000000000000000000000000000000000000000000000000000081526004018080602001828103825260198152602001807f596f7520646f6e277420636f6d6d697420616e7920626964210000000000000081525060200191505060405180910390fd5b600060065490508034101515156107a8576040517f08c379a00000000000000000000000000000000000000000000000000000000081526004018080602001828103825260408152602001807f596f757220626964206973206c6f776572207468616e2074686520726573657281526020017f76652070726963652c20796f75206c6f736520796f7572206465706f7369742181525060400191505060405180910390fd5b84346040516020018083805190602001908083835b6020831015156107e257805182526020820191506020810190506020830392506107bd565b6001836020036101000a0380198251168184511680821785525050505050509050018281526020019250505060405160208183030381529060405280519060200120600b60003373ffffffffffffffffffffffffffffffffffffffff1673ffffffffffffffffffffffffffffffffffffffff16815260200190815260200160002054141515610925576040517f08c379a000000000000000000000000000000000000000000000000000000000815260040180806020018281038252604a8152602001807f4e6f206d617463682c2070726f766964652074686520636f7272656374206e6f81526020017f6e636520616e6420626964206f7220796f752077696c6c206c6f736520796f7581526020017f72206465706f736974210000000000000000000000000000000000000000000081525060600191505060405180910390fd5b600b60003373ffffffffffffffffffffffffffffffffffffffff1673ffffffffffffffffffffffffffffffffffffffff1681526020019081526020016000206000905560006005549050600060015490506000348201905082341115610c69576000600354905080341115610bef576000600460009054906101000a900473ffffffffffffffffffffffffffffffffffffffff1690503460038190555033600460006101000a81548173ffffffffffffffffffffffffffffffffffffffff021916908373ffffffffffffffffffffffffffffffffffffffff160217905550600073ffffffffffffffffffffffffffffffffffffffff168173ffffffffffffffffffffffffffffffffffffffff16141515610afc578073ffffffffffffffffffffffffffffffffffffffff166108fc839081150290604051600060405180830381858888f19350505050158015610a7f573d6000803e3d6000fd5b50816005819055507fbac6ef406123e8af568ae833befd72577fbb2def578c249467da9151e75b2528826040518080602001838152602001828103825260128152602001807f4e6577205365636f6e64204869676865737400000000000000000000000000008152506020019250505060405180910390a1610b74565b856005819055507fbac6ef406123e8af568ae833befd72577fbb2def578c249467da9151e75b2528866040518080602001838152602001828103825260128152602001807f4e6577205365636f6e64204869676865737400000000000000000000000000008152506020019250505060405180910390a15b34830392507f5caf3e78c234268774887562882f13d98c42065d5d2098040520b6fdad3ab2103460405180806020018381526020018281038252600c8152602001807f4e657720486967686573742100000000000000000000000000000000000000008152506020019250505060405180910390a150610c67565b346005819055507fbac6ef406123e8af568ae833befd72577fbb2def578c249467da9151e75b2528346040518080602001838152602001828103825260128152602001807f4e6577205365636f6e64204869676865737400000000000000000000000000008152506020019250505060405180910390a15b505b816002600082825403925050819055503373ffffffffffffffffffffffffffffffffffffffff166108fc829081150290604051600060405180830381858888f19350505050158015610cbf573d6000803e3d6000fd5b505050505050505050565b600a5481565b600760009054906101000a900473ffffffffffffffffffffffffffffffffffffffff1681565b600960009054906101000a900473ffffffffffffffffffffffffffffffffffffffff1681565b600b6020528060005260406000206000915090505481565b60008060009054906101000a900460ff1690506000600a549050600581014310158015610d77575060046005811115610d6957fe5b826005811115610d7557fe5b105b15610d8757610d868243611f9a565b5b60026000809054906101000a900460ff166005811115610da357fe5b816005811115610daf57fe5b141515610e70576040517f08c379a000000000000000000000000000000000000000000000000000000000815260040180806020018281038252604d8152602001807f5065726d697373696f6e2064656e6965642c206f7065726174696f6e206f757481526020017f206f662074686520636f72726563742070686173652120436865636b2074686581526020017f2061637475616c2070686173650000000000000000000000000000000000000081525060600191505060405180910390fd5b6000600102600b60003373ffffffffffffffffffffffffffffffffffffffff1673ffffffffffffffffffffffffffffffffffffffff1681526020019081526020016000205414151515610f2b576040517f08c379a00000000000000000000000000000000000000000000000000000000081526004018080602001828103825260198152602001807f596f7520646f6e277420636f6d6d697420616e7920626964210000000000000081525060200191505060405180910390fd5b60006002600154811515610f3b57fe5b049050600b60003373ffffffffffffffffffffffffffffffffffffffff1673ffffffffffffffffffffffffffffffffffffffff16815260200190815260200160002060009055806002600082825403925050819055503373ffffffffffffffffffffffffffffffffffffffff166108fc829081150290604051600060405180830381858888f19350505050158015610fd7573d6000803e3d6000fd5b5050505050565b600760009054906101000a900473ffffffffffffffffffffffffffffffffffffffff1673ffffffffffffffffffffffffffffffffffffffff163373ffffffffffffffffffffffffffffffffffffffff1614806110875750600860009054906101000a900473ffffffffffffffffffffffffffffffffffffffff1673ffffffffffffffffffffffffffffffffffffffff163373ffffffffffffffffffffffffffffffffffffffff16145b151561108f57fe5b60008060009054906101000a900460ff1690506000600a5490506005810143101580156110d25750600460058111156110c457fe5b8260058111156110d057fe5b105b156110e2576110e18243611f9a565b5b5050565b60056000809054906101000a900460ff16600581111561110257fe5b81600581111561110e57fe5b1415156111cf576040517f08c379a000000000000000000000000000000000000000000000000000000000815260040180806020018281038252604d8152602001807f5065726d697373696f6e2064656e6965642c206f7065726174696f6e206f757481526020017f206f662074686520636f72726563742070686173652120436865636b2074686581526020017f2061637475616c2070686173650000000000000000000000000000000000000081525060600191505060405180910390fd5b6000600460009054906101000a900473ffffffffffffffffffffffffffffffffffffffff1690506000600760009054906101000a900473ffffffffffffffffffffffffffffffffffffffff1690508173ffffffffffffffffffffffffffffffffffffffff163373ffffffffffffffffffffffffffffffffffffffff1614806112b65750600860009054906101000a900473ffffffffffffffffffffffffffffffffffffffff1673ffffffffffffffffffffffffffffffffffffffff163373ffffffffffffffffffffffffffffffffffffffff161480156112b557506105a0600a54014310155b5b151561132a576040517f08c379a00000000000000000000000000000000000000000000000000000000081526004018080602001828103825260128152602001807f5065726d697373696f6e2064656e69656421000000000000000000000000000081525060200191505060405180910390fd5b60006005549050600460006101000a81549073ffffffffffffffffffffffffffffffffffffffff02191690558273ffffffffffffffffffffffffffffffffffffffff166108fc82600354039081150290604051600060405180830381858888f193505050501580156113a0573d6000803e3d6000fd5b50600760006101000a81549073ffffffffffffffffffffffffffffffffffffffff02191690558173ffffffffffffffffffffffffffffffffffffffff166108fc829081150290604051600060405180830381858888f1935050505015801561140c573d6000803e3d6000fd5b507f4daec0a5825f5e0766f597faa066cc075d7a16feb52c0003e69858b293fcfd0e816040518080602001838152602001828103825260148152602001807f50656e64696e6720657874696e677569736865640000000000000000000000008152506020019250505060405180910390a1600860009054906101000a900473ffffffffffffffffffffffffffffffffffffffff1673ffffffffffffffffffffffffffffffffffffffff166108fc6002549081150290604051600060405180830381858888f193505050501580156114e7573d6000803e3d6000fd5b506000600960009054906101000a900473ffffffffffffffffffffffffffffffffffffffff1690508073ffffffffffffffffffffffffffffffffffffffff16636cd2f3216040518163ffffffff167c0100000000000000000000000000000000000000000000000000000000028152600401600060405180830381600087803b15801561157357600080fd5b505af1158015611587573d6000803e3d6000fd5b505050508273ffffffffffffffffffffffffffffffffffffffff16ff5b600860009054906101000a900473ffffffffffffffffffffffffffffffffffffffff1681565b60008060009054906101000a900460ff1690506000600a54905060058101431015801561160d5750600460058111156115ff57fe5b82600581111561160b57fe5b105b1561161d5761161c8243611f9a565b5b60046000809054906101000a900460ff16600581111561163957fe5b81600581111561164557fe5b141515611706576040517f08c379a000000000000000000000000000000000000000000000000000000000815260040180806020018281038252604d8152602001807f5065726d697373696f6e2064656e6965642c206f7065726174696f6e206f757481526020017f206f662074686520636f72726563742070686173652120436865636b2074686581526020017f2061637475616c2070686173650000000000000000000000000000000000000081525060600191505060405180910390fd5b6000600760009054906101000a900473ffffffffffffffffffffffffffffffffffffffff1690506000600460009054906101000a900473ffffffffffffffffffffffffffffffffffffffff1690508073ffffffffffffffffffffffffffffffffffffffff163373ffffffffffffffffffffffffffffffffffffffff1614806117b957508173ffffffffffffffffffffffffffffffffffffffff163373ffffffffffffffffffffffffffffffffffffffff16145b806118235750600860009054906101000a900473ffffffffffffffffffffffffffffffffffffffff1673ffffffffffffffffffffffffffffffffffffffff163373ffffffffffffffffffffffffffffffffffffffff1614801561182257506105a0600a54014310155b5b1515611897576040517f08c379a00000000000000000000000000000000000000000000000000000000081526004018080602001828103825260128152602001807f5065726d697373696f6e2064656e69656421000000000000000000000000000081525060200191505060405180910390fd5b600073ffffffffffffffffffffffffffffffffffffffff168173ffffffffffffffffffffffffffffffffffffffff161415156119ce5760008060009054906101000a900460ff16905043600a8190555060018160058111156118f557fe5b01600581111561190157fe5b6000806101000a81548160ff0219169083600581111561191d57fe5b02179055507fab1369e6fb9eba661db5e9b8a434e7c12b12ec07cd1288fcb104582cde8a47a48260055460405180806020018473ffffffffffffffffffffffffffffffffffffffff1673ffffffffffffffffffffffffffffffffffffffff168152602001838152602001828103825260168152602001807f46696e696c697a65642e2050656e64696e672053657400000000000000000000815250602001935050505060405180910390a150611bc0565b7fab1369e6fb9eba661db5e9b8a434e7c12b12ec07cd1288fcb104582cde8a47a48160055460405180806020018473ffffffffffffffffffffffffffffffffffffffff1673ffffffffffffffffffffffffffffffffffffffff168152602001838152602001828103825260148152602001807f46696e696c697a65642e204e6f20426964646572000000000000000000000000815250602001935050505060405180910390a1600860009054906101000a900473ffffffffffffffffffffffffffffffffffffffff1673ffffffffffffffffffffffffffffffffffffffff166108fc6002549081150290604051600060405180830381858888f19350505050158015611ade573d6000803e3d6000fd5b506000600960009054906101000a900473ffffffffffffffffffffffffffffffffffffffff1690508073ffffffffffffffffffffffffffffffffffffffff16636cd2f3216040518163ffffffff167c0100000000000000000000000000000000000000000000000000000000028152600401600060405180830381600087803b158015611b6a57600080fd5b505af1158015611b7e573d6000803e3d6000fd5b50505050600760006101000a81549073ffffffffffffffffffffffffffffffffffffffff02191690558273ffffffffffffffffffffffffffffffffffffffff16ff5b5050505050565b60055481565b6000809054906101000a900460ff1681565b60015481565b60035481565b60065481565b60008060009054906101000a900460ff1690506000600a549050600581014310158015611c34575060046005811115611c2657fe5b826005811115611c3257fe5b105b15611c4457611c438243611f9a565b5b60016000809054906101000a900460ff166005811115611c6057fe5b816005811115611c6c57fe5b141515611d2d576040517f08c379a000000000000000000000000000000000000000000000000000000000815260040180806020018281038252604d8152602001807f5065726d697373696f6e2064656e6965642c206f7065726174696f6e206f757481526020017f206f662074686520636f72726563742070686173652120436865636b2074686581526020017f2061637475616c2070686173650000000000000000000000000000000000000081525060600191505060405180910390fd5b600760009054906101000a900473ffffffffffffffffffffffffffffffffffffffff1673ffffffffffffffffffffffffffffffffffffffff163373ffffffffffffffffffffffffffffffffffffffff1614158015611dd95750600860009054906101000a900473ffffffffffffffffffffffffffffffffffffffff1673ffffffffffffffffffffffffffffffffffffffff163373ffffffffffffffffffffffffffffffffffffffff1614155b1515611de157fe5b6000600102600b60003373ffffffffffffffffffffffffffffffffffffffff1673ffffffffffffffffffffffffffffffffffffffff16815260200190815260200160002054148015611e34575060015434145b1515611f1a576040517f08c379a00000000000000000000000000000000000000000000000000000000081526004018080602001828103825260768152602001807f596f752063616e6e6f7420636f6d6d6974203220646966666572656e7420626981526020017f642e20496620796f7520646f206e6f7420616c726561647920636f6d6d69742081526020017f61206269642c206d616b65207375726520746f2073656e64207468652064657081526020017f6f73697420616d6f756e7420636f72726563746c79210000000000000000000081525060800191505060405180910390fd5b83600b60003373ffffffffffffffffffffffffffffffffffffffff1673ffffffffffffffffffffffffffffffffffffffff168152602001908152602001600020819055503460026000828254019250508190555050505050565b600460009054906101000a900473ffffffffffffffffffffffffffffffffffffffff1681565b80600a819055506001826005811115611faf57fe5b016005811115611fbb57fe5b6000806101000a81548160ff02191690836005811115611fd757fe5b02179055507f20a93b354024288ebb3e8893dcfb0fc10ac3171d14cd5094bf446efdd1303c62826000809054906101000a900460ff16604051808060200184600581111561202157fe5b60ff16815260200183600581111561203557fe5b60ff1681526020018281038252600c8152602001807f5068617365204368616e67650000000000000000000000000000000000000000815250602001935050505060405180910390a1505056fea165627a7a72305820ada303808b6e66e523fed11f6f19c351b540f9c0d25cbdf152ce0982c1e64daa0029",
  "source": "// solium-disable linebreak-style\r\npragma solidity ^0.5.0;\r\n\r\nimport \"./AuctionManager.sol\";\r\n\r\n/**\r\n* Smart contract to create and manage a Vcrey Auction.\r\n* The auction could be in 6 different Phase:\r\n* - Glory phase: no action could be done in this phase;\r\n* - Commitment phase: anyone (excpet for seller and manager) can commit a bid,\r\n*   the bidder must provide the sha3 of a nonce + the value of the bid and must\r\n*   send the deposit to the contract;\r\n* - Withdrawal phase: all bidder that commit a bid could withdraw their bid\r\n*   losing half of their deposit sent in the commitment phase;\r\n* - Opening phase: all bidder that don't whitdraw their bid have to open their\r\n*   bid, sending the right value of the bid to the contract and passing the nonce\r\n*   used in the sha3 function;\r\n* - Finilizing phase: the auction is finished, the seller or the winner have to\r\n*   confirm the end of it moving to the pending phase;\r\n* - Pending phase: the winner has to perform the transfer of the value at which\r\n*   the good has been sell (i.e. his bid).\r\n*\r\n* In some particular case, the manager of the auctions can change the phase or\r\n* can interact with the contract to avoid ambiguous situation.\r\n* The creation and the destruction of the auction will pass throught the contract manager.\r\n*/\r\ncontract VicreyAuction {\r\n    /**< Different auction phase >*/\r\n    enum Phase {\r\n        GloryPhase,\r\n        Commitment,\r\n        Withdrawal,\r\n        Opening,\r\n        Finilizing,\r\n        Pending\r\n    }\r\n\r\n    /**< Phase global variable >*/\r\n    Phase public phase = Phase.GloryPhase;\r\n\r\n    /**< Deposit that each partecipant need to provide during the commitment phase >*/\r\n    uint256 public deposit;\r\n    /**< Amount of all deposit provided by all bidder >*/\r\n    uint256 private totalDeposit;\r\n\r\n    /**< Value of the actual highest bid >*/\r\n    uint256 public highestBid;\r\n    /**< Address of the atual winner >*/\r\n    address payable public actualWinner;\r\n\r\n    /**< Value of the second highest bid, the price at which the good will be sell >*/\r\n    uint256 public actualPrice;\r\n    /**< Minimum price for the good >*/\r\n    uint256 public reservePrice;    // minimum price of good\r\n\r\n    /**< Seller of the good >*/\r\n    address payable public seller;\r\n    /**< Manager address >*/\r\n    address payable public manager;\r\n\r\n    /**< Contract menager address >*/\r\n    address public managerContract;\r\n\r\n    /**< Block counter to update the phase >*/\r\n    uint256 public blockCount;\r\n\r\n    /**< Mapping to contain all the addresses of the different bidders and their hash >*/\r\n    mapping (address => bytes32) public bidHash;\r\n\r\n    /**\r\n    * Event emitted when the phase changes.\r\n    *\r\n    * @param detail     explanation of the event;\r\n    * @param oldP       old phase;\r\n    * @param newP       new phase.\r\n    */\r\n    event LogNewPhase(string detail, Phase oldP, Phase newP);\r\n\r\n    /**\r\n    * Event emitted when a new highest bid has been opened.\r\n    *\r\n    * @param detail     explanation of the event;\r\n    * @param price      value of the new highest bid.\r\n    */\r\n    event LogNewHighest(string detail, uint256 price);\r\n\r\n    /**\r\n    * Event emitted when a new second highest bid has been opened.\r\n    *\r\n    * @param detail     explanation of the event;\r\n    * @param price      value of the new price.\r\n    */\r\n    event LogNewPrice(string detail, uint256 price);\r\n\r\n    /**\r\n    * Event emitted when the auction end.\r\n    *\r\n    * @param detail     explanation of the event, how the auction ended;\r\n    * @param winner     address of the winner;\r\n    * @param price      price of the good.\r\n    */\r\n    event LogEnd(string detail, address winner, uint256 price);\r\n\r\n    /**\r\n    * Event emitted when the pending trasfer has been extiguished.\r\n    *\r\n    * @param detail     explanation of the event;\r\n    * @param amount     amount transfered.\r\n    */\r\n    event LogPending(string detail, uint256 amount);\r\n\r\n    /**\r\n    * Modifier to check if the function is called in the correct phase\r\n    *\r\n    * @param _phase  phase related to the function.\r\n    */\r\n    modifier atPhase(Phase _phase) {\r\n        require(_phase == phase,\r\n            \"Permission denied, operation out of the correct phase! Check the actual phase\");\r\n        _;\r\n    }\r\n\r\n    /**\r\n    * Modifier to change the phase based on block mined.\r\n    */\r\n    modifier changePhase() {\r\n        Phase oldP = phase;\r\n        uint256 count = blockCount;\r\n\r\n        /** < Check if the phase change more than 5 block ago\r\n            AND the phase is not the Finilizing one. >*/\r\n        if ( (block.number >= count + 5) && (oldP < Phase.Finilizing)) {\r\n            incrementPhase(oldP, block.number);\r\n        }\r\n        _;\r\n    }\r\n\r\n    /**\r\n    * Modifier to avoid that the seller or the manager make a bid\r\n    * OR buy out the good.\r\n    */\r\n    modifier canInteract() {\r\n        assert(msg.sender != seller && msg.sender != manager);\r\n        _;\r\n    }\r\n\r\n    /**\r\n    * Modifier to permit only to seller and manager to change phase manually.\r\n    */\r\n    modifier canChangePhase() {\r\n        assert(msg.sender == seller || msg.sender == manager);\r\n        _;\r\n    }\r\n\r\n    /**\r\n    * Contract constructor, it can be called from the contract manager\r\n    * and it need the address of the seller and of the manager.\r\n    *\r\n    * @param resPrice       reserve price of the good;\r\n    * @param depositValue   amount of deposit to provide in the commitment;\r\n    * @param sellerAdd      address of the seller;\r\n    * @param manAdd         address of the manager.\r\n    */\r\n    constructor (uint256 resPrice, uint256 depositValue, address payable sellerAdd, address payable manAdd) public {\r\n        /** < Cannot be executed if the reserve price is zero >*/\r\n        require(resPrice > 0,\r\n            \"The reserve price must be grater than zero!\");\r\n        reservePrice = resPrice;\r\n\r\n        /** < the second higest start from the reserve price, while the highest one is zero >*/\r\n        actualPrice = resPrice;\r\n\r\n        deposit = depositValue;\r\n\r\n        /**< Address of seller >*/\r\n        seller = sellerAdd;\r\n        /**< Address of manager >*/\r\n        manager = manAdd;\r\n        /**< Address of contract manager >*/\r\n        managerContract = msg.sender;\r\n\r\n        blockCount = block.number;\r\n\r\n        emit LogNewPhase(\"New Vicrey auction\",\r\n            Phase.GloryPhase,\r\n            Phase.GloryPhase);\r\n    }\r\n\r\n    /**\r\n    * Manually go forward to the next Phase, only seller or manager can change it.\r\n    * 5 block must be mined from the last phase change and the phase cannot be changed\r\n    * if it is in Filizing or Pending.\r\n    *\r\n    * modifier canChangePhase(): check if the fuction has been called by the seller\r\n    * OR the manager\r\n    */\r\n    function nextPhase() public canChangePhase()  {\r\n        Phase oldP = phase;\r\n        uint256 count = blockCount;\r\n\r\n        /** < Check if the phase change more than 5 block ago\r\n            AND the phase is not the Finilizing one. >*/\r\n        if ( (block.number >= count + 5) && (oldP < Phase.Finilizing)) {\r\n            incrementPhase(oldP, block.number);\r\n        }\r\n    }\r\n\r\n    /**\r\n    * Commit a new bid. Check if the address doesn't already commit a bid\r\n    * and if the bidder is not the seller or the manager.\r\n    *\r\n    * @param hashValue sha3 of nonce + bid value.\r\n    *\r\n    * modifier changePhase(): check if the phase can change (i.e. 5 block have\r\n    * been mined from last phase change).\r\n    *\r\n    * modifier atPhase(Phase.Commitment): check if the phase is the right one.\r\n    *\r\n    * modifier canInteract(): check if the caller of the function is not the seller\r\n    * OR the manager.\r\n    */\r\n    function commit(bytes32 hashValue) public payable\r\n         changePhase()\r\n         atPhase(Phase.Commitment)\r\n         canInteract() {\r\n\r\n        require(bidHash[msg.sender] == 0 && msg.value == deposit,\r\n            \"You cannot commit 2 different bid. If you do not already commit a bid, make sure to send the deposit amount correctly!\");\r\n\r\n        bidHash[msg.sender] = hashValue;\r\n\r\n        totalDeposit += msg.value;\r\n    }\r\n\r\n    /**\r\n    * Withdraw a bid. Check if the sender commit a bid for the auction\r\n    * send back half of the deposit to the sender.\r\n    *\r\n    * modifier changePhase(): check if the phase can change (i.e. 5 block have\r\n    * been mined from last phase change).\r\n    *\r\n    * modifier atPhase(Phase.Withdrawal): check if the phase is the right one.\r\n    */\r\n    function withdraw() public\r\n         changePhase()\r\n         atPhase(Phase.Withdrawal) {\r\n\r\n        require(bidHash[msg.sender] != 0,\r\n            \"You don't commit any bid!\");\r\n\r\n        uint256 halfDeposit = deposit/2;\r\n\r\n        /** < Avoid the rientrance by delete the bidder from the auction >*/\r\n        delete bidHash[msg.sender];\r\n\r\n        totalDeposit -= halfDeposit;\r\n        msg.sender.transfer(halfDeposit);\r\n    }\r\n\r\n    /**\r\n    * Open a bid. Check if the sender commit a bid for the auction and\r\n    * if the nonce + the bid value match the hash sent in the commitment\r\n    * phase and if the value of the bid is grater than the reserve price.\r\n    * Give back all the deposit to the sender if he provides the\r\n    * right value of the nonce and the bid. If the bid is the highest one,\r\n    * update the highest bid and update the price with the old highest bid.\r\n    * If the bid is not the highest one, but it is grater than the actual price,\r\n    * update the actual price.\r\n    * Emit an event if the highest bid or the actual price are updated.\r\n    *\r\n    * @param nonce string used to produce the provided hash in the commitment phase.\r\n    *\r\n    * modifier changePhase(): check if the phase can change (i.e. 5 block have\r\n    * been mined from last phase change).\r\n    *\r\n    * modifier atPhase(Phase.Opening): check if the phase is the right one.\r\n    */\r\n    function openBid(string memory nonce) public payable\r\n         changePhase()\r\n         atPhase(Phase.Opening) {\r\n\r\n        require(bidHash[msg.sender] != 0,\r\n            \"You don't commit any bid!\");\r\n\r\n        uint256 resPrice = reservePrice;\r\n\r\n        /** < The value must be grater than the reserve price otherwise you lose your deposit >*/\r\n        require(msg.value >= resPrice,\r\n            \"Your bid is lower than the reserve price, you lose your deposit!\");\r\n\r\n        /** < Hash must match otherwise you lose your deposit >*/\r\n        require(bidHash[msg.sender] == keccak256(abi.encodePacked(nonce, uint256(msg.value))),\r\n            \"No match, provide the correct nonce and bid or you will lose your deposit!\");\r\n\r\n        /** < Avoid the rientrance buy delete the bidder from the auction >*/\r\n        delete bidHash[msg.sender];\r\n\r\n        /** < Actual price >*/\r\n        uint256 oldPrice = actualPrice;\r\n\r\n        /** < Deposit amount >*/\r\n        uint256 localDeposit = deposit;\r\n        /** < Amount to refund, the msg.value will be subtracted in case the bid is the new highest >*/\r\n        uint256 refund = localDeposit + msg.value;\r\n\r\n        /** < If the bid is grater than the actual price >*/\r\n        if ( msg.value > oldPrice ) {\r\n\r\n            /** < Actual highest bid >*/\r\n            uint256 oldHighest = highestBid;\r\n\r\n            /** < If the bid is grater than the highest one >*/\r\n            if (msg.value > oldHighest) {\r\n\r\n                address payable oldWinner = actualWinner;\r\n\r\n                /** < Update the highest bid information >*/\r\n                highestBid = msg.value;\r\n                actualWinner = msg.sender;\r\n\r\n                /** < If it is not the first opened bid >*/\r\n                if (oldWinner != address(0)) {\r\n                    /** < Give back to the old highest bidder its bid >*/\r\n                    oldWinner.transfer(oldHighest);\r\n\r\n                    /** < Update the actual price with the old highest bid >*/\r\n                    actualPrice = oldHighest;\r\n\r\n                    emit LogNewPrice(\"New Second Highest\", oldHighest);\r\n                }\r\n                /** < If it is the first bid >*/\r\n                else {\r\n                    /** < Update the actual price with the reserve price >*/\r\n                    actualPrice = resPrice;\r\n\r\n                    emit LogNewPrice(\"New Second Highest\", resPrice);\r\n                }\r\n\r\n                /** < Don't refund the bid to the actual highest bidder >*/\r\n                refund -= msg.value;\r\n\r\n                emit LogNewHighest(\"New Highest!\", msg.value);\r\n            }\r\n            /** < If the bid is not grater than the highest one >*/\r\n            else {\r\n                /** < Update only the actual price >*/\r\n                actualPrice = msg.value;\r\n\r\n                emit LogNewPrice(\"New Second Highest\", msg.value);\r\n            }\r\n        }\r\n\r\n        /** < Subtract the deposit refunded from the total >*/\r\n        totalDeposit -= localDeposit;\r\n\r\n        /** < Refund the deposit (and the bid if it is not the highest) to the sender >*/\r\n        msg.sender.transfer(refund);\r\n    }\r\n\r\n    /**\r\n    * Finilize the auction to confirm the end of it and the amount that\r\n    * the winner have to pay for the good. The amount is freez in the contract\r\n    * and the payment become pending.\r\n    * Emit an event to declare the end of the auction.\r\n    *\r\n    * modifier changePhase(): check if the phase can change (i.e. 5 block have\r\n    * been mined from last phase change).\r\n    *\r\n    * modifier atPhase(Phase.Finilizing): check if the phase is the right one.\r\n    */\r\n    function finalize() public\r\n         changePhase()\r\n         atPhase(Phase.Finilizing) {\r\n\r\n        address payable sellAddress = seller;\r\n        address winner = actualWinner;\r\n\r\n        /**< Can be executed only from the seller OR the winner OR in some case from the manager >*/\r\n        require(msg.sender == winner ||\r\n            msg.sender == sellAddress ||\r\n            (msg.sender == manager && block.number >= blockCount + 1440),\r\n            \"Permission denied!\");\r\n\r\n        /**< Check if there is actually a valid bid for the good >*/\r\n        if (winner != address(0)) {\r\n            Phase oldP = phase;\r\n\r\n            blockCount = block.number;\r\n            phase = Phase(uint(oldP) + 1);\r\n\r\n            emit LogEnd(\"Finilized. Pending Set\",\r\n                winner, actualPrice);\r\n        }\r\n        else {\r\n            emit LogEnd(\"Finilized. No Bidder\",\r\n                winner, actualPrice);\r\n\r\n            /**< Send to the manager the deposit left in the contract >*/\r\n            manager.transfer(totalDeposit);\r\n\r\n            /**< Delete the auction from the contract manager >*/\r\n            AuctionManager man = AuctionManager(managerContract);\r\n            man.deleteVicreyAuction();\r\n\r\n            /**< Destruct the contract >*/\r\n            delete seller;\r\n            selfdestruct(sellAddress);\r\n        }\r\n    }\r\n\r\n    /**\r\n    * Extinguish the payment freezed in the finilizing phase.\r\n    * The winner have 1440 mined block to do it, otherwise the manager\r\n    * can tranfer the pending amount to the seller, or give back the\r\n    * amount to the winner (e.g. the seller don't send the good to the winner).\r\n    * Emit an event to declare the end of pending payment.\r\n    *\r\n    * modifier atPhase(Phase.Pending): check if the phase is the right one.\r\n    */\r\n    function transferPending() public\r\n         atPhase(Phase.Pending) {\r\n\r\n        address payable winner = actualWinner;\r\n        address payable sellerAdd = seller;\r\n\r\n        require(msg.sender == winner ||\r\n            (msg.sender == manager && block.number >= blockCount + 1440),\r\n            \"Permission denied!\");\r\n\r\n        uint256 price = actualPrice;\r\n\r\n        /** < Avoid the rientrance by delete the actual winner address >*/\r\n        delete actualWinner;\r\n        /** < Give back to the highest bidder the difference between\r\n        *   his bid and the second highest bid >*/\r\n        winner.transfer(highestBid - price);\r\n\r\n        /** < Avoid the rientrance by delete the seller address >*/\r\n        delete seller;\r\n        /** <  Pay the seller >*/\r\n        sellerAdd.transfer(price);\r\n\r\n        emit LogPending(\"Pending extinguished\", price);\r\n\r\n        /**< Send to the manager the deposit left in the contract >*/\r\n        manager.transfer(totalDeposit);\r\n\r\n        /**< Delete the auction from the contract manager >*/\r\n        AuctionManager man = AuctionManager(managerContract);\r\n        man.deleteVicreyAuction();\r\n\r\n        /**< Destruct the contract >*/\r\n        selfdestruct(sellerAdd);\r\n    }\r\n\r\n    /**\r\n    * Change the phase.\r\n    *\r\n    * @param oldP      old phase;\r\n    * @param actBlock  actual block.\r\n    */\r\n    function incrementPhase(Phase oldP, uint256 actBlock) private {\r\n        blockCount = actBlock;\r\n        phase = Phase(uint(oldP) + 1);\r\n\r\n        emit LogNewPhase(\"Phase Change\", oldP, phase);\r\n    }\r\n}",
  "sourcePath": "/home/gianluca/Documenti/AuctionDapp/contracts/VicreyAuction.sol",
  "compiler": {
    "name": "solc",
    "version": "0.5.0+commit.1d4f565a.Emscripten.clang"
  },
  "schemaVersion": "3.0.2",
  "updatedAt": "2019-09-11T10:21:17.229Z",
  "devdoc": {
    "methods": {
      "commit(bytes32)": {
        "params": {
          "hashValue": "sha3 of nonce + bid value.\r     * modifier changePhase(): check if the phase can change (i.e. 5 block have\r been mined from last phase change).\r     * modifier atPhase(Phase.Commitment): check if the phase is the right one.\r     * modifier canInteract(): check if the caller of the function is not the seller\r OR the manager.\r"
        }
      },
      "constructor": {
        "params": {
          "depositValue": "amount of deposit to provide in the commitment;\r",
          "manAdd": "address of the manager.\r",
          "resPrice": "reserve price of the good;\r",
          "sellerAdd": "address of the seller;\r"
        }
      },
      "openBid(string)": {
        "params": {
          "nonce": "string used to produce the provided hash in the commitment phase.\r     * modifier changePhase(): check if the phase can change (i.e. 5 block have\r been mined from last phase change).\r     * modifier atPhase(Phase.Opening): check if the phase is the right one.\r"
        }
      }
    }
  },
  "userdoc": {
    "methods": {
      "commit(bytes32)": {
        "notice": "Commit a new bid. Check if the address doesn't already commit a bid\r and if the bidder is not the seller or the manager.\r "
      },
      "constructor": "Contract constructor, it can be called from the contract manager\r and it need the address of the seller and of the manager.\r ",
      "finalize()": {
        "notice": "Finilize the auction to confirm the end of it and the amount that\r the winner have to pay for the good. The amount is freez in the contract\r and the payment become pending.\r Emit an event to declare the end of the auction.\r     * modifier changePhase(): check if the phase can change (i.e. 5 block have\r been mined from last phase change).\r     * modifier atPhase(Phase.Finilizing): check if the phase is the right one.\r"
      },
      "nextPhase()": {
        "notice": "Manually go forward to the next Phase, only seller or manager can change it.\r 5 block must be mined from the last phase change and the phase cannot be changed\r if it is in Filizing or Pending.\r     * modifier canChangePhase(): check if the fuction has been called by the seller\r OR the manager\r"
      },
      "openBid(string)": {
        "notice": "Open a bid. Check if the sender commit a bid for the auction and\r if the nonce + the bid value match the hash sent in the commitment\r phase and if the value of the bid is grater than the reserve price.\r Give back all the deposit to the sender if he provides the\r right value of the nonce and the bid. If the bid is the highest one,\r update the highest bid and update the price with the old highest bid.\r If the bid is not the highest one, but it is grater than the actual price,\r update the actual price.\r Emit an event if the highest bid or the actual price are updated.\r "
      },
      "transferPending()": {
        "notice": "Extinguish the payment freezed in the finilizing phase.\r The winner have 1440 mined block to do it, otherwise the manager\r can tranfer the pending amount to the seller, or give back the\r amount to the winner (e.g. the seller don't send the good to the winner).\r Emit an event to declare the end of pending payment.\r     * modifier atPhase(Phase.Pending): check if the phase is the right one.\r"
      },
      "withdraw()": {
        "notice": "Withdraw a bid. Check if the sender commit a bid for the auction\r send back half of the deposit to the sender.\r     * modifier changePhase(): check if the phase can change (i.e. 5 block have\r been mined from last phase change).\r     * modifier atPhase(Phase.Withdrawal): check if the phase is the right one.\r"
      }
    },
    "notice": "Smart contract to create and manage a Vcrey Auction.\r The auction could be in 6 different Phase:\r - Glory phase: no action could be done in this phase;\r - Commitment phase: anyone (excpet for seller and manager) can commit a bid,\r  the bidder must provide the sha3 of a nonce + the value of the bid and must\r  send the deposit to the contract;\r - Withdrawal phase: all bidder that commit a bid could withdraw their bid\r  losing half of their deposit sent in the commitment phase;\r - Opening phase: all bidder that don't whitdraw their bid have to open their\r  bid, sending the right value of the bid to the contract and passing the nonce\r  used in the sha3 function;\r - Finilizing phase: the auction is finished, the seller or the winner have to\r  confirm the end of it moving to the pending phase;\r - Pending phase: the winner has to perform the transfer of the value at which\r  the good has been sell (i.e. his bid).\r  * In some particular case, the manager of the auctions can change the phase or\r can interact with the contract to avoid ambiguous situation.\r The creation and the destruction of the auction will pass throught the contract manager.\r"
  }
}