{
  "contractName": "VicreyAuction",
  "abi": [
    {
      "constant": true,
      "inputs": [],
      "name": "blockCount",
      "outputs": [
        {
          "name": "",
          "type": "uint256"
        }
      ],
      "payable": false,
      "stateMutability": "view",
      "type": "function"
    },
    {
      "constant": true,
      "inputs": [],
      "name": "seller",
      "outputs": [
        {
          "name": "",
          "type": "address"
        }
      ],
      "payable": false,
      "stateMutability": "view",
      "type": "function"
    },
    {
      "constant": true,
      "inputs": [],
      "name": "managerContract",
      "outputs": [
        {
          "name": "",
          "type": "address"
        }
      ],
      "payable": false,
      "stateMutability": "view",
      "type": "function"
    },
    {
      "constant": true,
      "inputs": [
        {
          "name": "",
          "type": "address"
        }
      ],
      "name": "bidHash",
      "outputs": [
        {
          "name": "",
          "type": "bytes32"
        }
      ],
      "payable": false,
      "stateMutability": "view",
      "type": "function"
    },
    {
      "constant": true,
      "inputs": [],
      "name": "manager",
      "outputs": [
        {
          "name": "",
          "type": "address"
        }
      ],
      "payable": false,
      "stateMutability": "view",
      "type": "function"
    },
    {
      "constant": true,
      "inputs": [],
      "name": "actualPrice",
      "outputs": [
        {
          "name": "",
          "type": "uint256"
        }
      ],
      "payable": false,
      "stateMutability": "view",
      "type": "function"
    },
    {
      "constant": true,
      "inputs": [],
      "name": "phase",
      "outputs": [
        {
          "name": "",
          "type": "uint8"
        }
      ],
      "payable": false,
      "stateMutability": "view",
      "type": "function"
    },
    {
      "constant": true,
      "inputs": [],
      "name": "deposit",
      "outputs": [
        {
          "name": "",
          "type": "uint256"
        }
      ],
      "payable": false,
      "stateMutability": "view",
      "type": "function"
    },
    {
      "constant": true,
      "inputs": [],
      "name": "highestBid",
      "outputs": [
        {
          "name": "",
          "type": "uint256"
        }
      ],
      "payable": false,
      "stateMutability": "view",
      "type": "function"
    },
    {
      "constant": true,
      "inputs": [],
      "name": "reservePrice",
      "outputs": [
        {
          "name": "",
          "type": "uint256"
        }
      ],
      "payable": false,
      "stateMutability": "view",
      "type": "function"
    },
    {
      "constant": true,
      "inputs": [],
      "name": "actualWinner",
      "outputs": [
        {
          "name": "",
          "type": "address"
        }
      ],
      "payable": false,
      "stateMutability": "view",
      "type": "function"
    },
    {
      "inputs": [
        {
          "name": "resPrice",
          "type": "uint256"
        },
        {
          "name": "depositValue",
          "type": "uint256"
        },
        {
          "name": "sellerAdd",
          "type": "address"
        },
        {
          "name": "manAdd",
          "type": "address"
        }
      ],
      "payable": false,
      "stateMutability": "nonpayable",
      "type": "constructor"
    },
    {
      "anonymous": false,
      "inputs": [
        {
          "indexed": false,
          "name": "detail",
          "type": "string"
        },
        {
          "indexed": false,
          "name": "winner",
          "type": "address"
        },
        {
          "indexed": false,
          "name": "price",
          "type": "uint256"
        }
      ],
      "name": "LogAuctionEnded",
      "type": "event"
    },
    {
      "anonymous": false,
      "inputs": [
        {
          "indexed": false,
          "name": "detail",
          "type": "string"
        },
        {
          "indexed": false,
          "name": "amount",
          "type": "uint256"
        }
      ],
      "name": "LogNewHighest",
      "type": "event"
    },
    {
      "anonymous": false,
      "inputs": [
        {
          "indexed": false,
          "name": "detail",
          "type": "string"
        },
        {
          "indexed": false,
          "name": "amount",
          "type": "uint256"
        },
        {
          "indexed": false,
          "name": "",
          "type": "address"
        }
      ],
      "name": "LogNewSecondHighest",
      "type": "event"
    },
    {
      "anonymous": false,
      "inputs": [
        {
          "indexed": false,
          "name": "detail",
          "type": "string"
        },
        {
          "indexed": false,
          "name": "oldP",
          "type": "uint8"
        },
        {
          "indexed": false,
          "name": "newP",
          "type": "uint8"
        }
      ],
      "name": "LogNewPhase",
      "type": "event"
    },
    {
      "anonymous": false,
      "inputs": [
        {
          "indexed": false,
          "name": "detail",
          "type": "string"
        }
      ],
      "name": "LogNoBidder",
      "type": "event"
    },
    {
      "anonymous": false,
      "inputs": [
        {
          "indexed": false,
          "name": "detail",
          "type": "string"
        }
      ],
      "name": "LogAddPending",
      "type": "event"
    },
    {
      "anonymous": false,
      "inputs": [
        {
          "indexed": false,
          "name": "detail",
          "type": "string"
        },
        {
          "indexed": false,
          "name": "amount",
          "type": "uint256"
        }
      ],
      "name": "LogExePending",
      "type": "event"
    },
    {
      "constant": false,
      "inputs": [],
      "name": "nextPhase",
      "outputs": [],
      "payable": false,
      "stateMutability": "nonpayable",
      "type": "function"
    },
    {
      "constant": false,
      "inputs": [
        {
          "name": "hashValue",
          "type": "bytes32"
        }
      ],
      "name": "commit",
      "outputs": [],
      "payable": true,
      "stateMutability": "payable",
      "type": "function"
    },
    {
      "constant": false,
      "inputs": [],
      "name": "withdraw",
      "outputs": [],
      "payable": false,
      "stateMutability": "nonpayable",
      "type": "function"
    },
    {
      "constant": false,
      "inputs": [
        {
          "name": "nonce",
          "type": "string"
        }
      ],
      "name": "openBid",
      "outputs": [],
      "payable": true,
      "stateMutability": "payable",
      "type": "function"
    },
    {
      "constant": false,
      "inputs": [],
      "name": "finalize",
      "outputs": [],
      "payable": false,
      "stateMutability": "nonpayable",
      "type": "function"
    },
    {
      "constant": false,
      "inputs": [],
      "name": "transferPending",
      "outputs": [],
      "payable": false,
      "stateMutability": "nonpayable",
      "type": "function"
    }
  ],
  "bytecode": "0x608060405260008060006101000a81548160ff0219169083600581111561002257fe5b021790555034801561003357600080fd5b506040516080806200274983398101806040528101908080519060200190929190805190602001909291908051906020019092919080519060200190929190505050600084111515610113576040517f08c379a000000000000000000000000000000000000000000000000000000000815260040180806020018281038252602b8152602001807f5468652072657365727665207072696365206d7573742062652067726174657281526020017f207468616e207a65726f2100000000000000000000000000000000000000000081525060400191505060405180910390fd5b83600681905550836005819055508260018190555081600760006101000a81548173ffffffffffffffffffffffffffffffffffffffff021916908373ffffffffffffffffffffffffffffffffffffffff16021790555080600860006101000a81548173ffffffffffffffffffffffffffffffffffffffff021916908373ffffffffffffffffffffffffffffffffffffffff16021790555033600960006101000a81548173ffffffffffffffffffffffffffffffffffffffff021916908373ffffffffffffffffffffffffffffffffffffffff1602179055507f20a93b354024288ebb3e8893dcfb0fc10ac3171d14cd5094bf446efdd1303c62600080604051808060200184600581111561022357fe5b60ff16815260200183600581111561023757fe5b60ff1681526020018281038252601f8152602001807f41206e6577205669637265792061756374696f6e206973206372656174656400815250602001935050505060405180910390a1505050506124b580620002946000396000f3006080604052600436106100f1576000357c0100000000000000000000000000000000000000000000000000000000900463ffffffff168063052079c4146100f657806307225b4d1461015257806308551a531461017d5780632710ac80146101d45780632ad194c41461022b5780633ccfd60b1461028a5780633eadb6db146102a157806340ec1d52146102b8578063481c6a75146102cf5780634bb278f3146103265780638c6481171461033d578063b1c9fe6e14610368578063d0e30db0146103a1578063d57bde79146103cc578063db2e1eed146103f7578063f14fcbc814610422578063f38c2bc314610446575b600080fd5b610150600480360381019080803590602001908201803590602001908080601f016020809104026020016040519081016040528093929190818152602001838380828437820191505050505050919291929050505061049d565b005b34801561015e57600080fd5b50610167610d9e565b6040518082815260200191505060405180910390f35b34801561018957600080fd5b50610192610da4565b604051808273ffffffffffffffffffffffffffffffffffffffff1673ffffffffffffffffffffffffffffffffffffffff16815260200191505060405180910390f35b3480156101e057600080fd5b506101e9610dca565b604051808273ffffffffffffffffffffffffffffffffffffffff1673ffffffffffffffffffffffffffffffffffffffff16815260200191505060405180910390f35b34801561023757600080fd5b5061026c600480360381019080803573ffffffffffffffffffffffffffffffffffffffff169060200190929190505050610df0565b60405180826000191660001916815260200191505060405180910390f35b34801561029657600080fd5b5061029f610e08565b005b3480156102ad57600080fd5b506102b661113a565b005b3480156102c457600080fd5b506102cd61144c565b005b3480156102db57600080fd5b506102e4611976565b604051808273ffffffffffffffffffffffffffffffffffffffff1673ffffffffffffffffffffffffffffffffffffffff16815260200191505060405180910390f35b34801561033257600080fd5b5061033b61199c565b005b34801561034957600080fd5b5061035261204a565b6040518082815260200191505060405180910390f35b34801561037457600080fd5b5061037d612050565b6040518082600581111561038d57fe5b60ff16815260200191505060405180910390f35b3480156103ad57600080fd5b506103b6612062565b6040518082815260200191505060405180910390f35b3480156103d857600080fd5b506103e1612068565b6040518082815260200191505060405180910390f35b34801561040357600080fd5b5061040c61206e565b6040518082815260200191505060405180910390f35b6104446004803603810190808035600019169060200190929190505050612074565b005b34801561045257600080fd5b5061045b612463565b604051808273ffffffffffffffffffffffffffffffffffffffff1673ffffffffffffffffffffffffffffffffffffffff16815260200191505060405180910390f35b60008060008060008060008060009054906101000a900460ff169150600a5490506005810143101580156104e75750600460058111156104d957fe5b8260058111156104e557fe5b105b156105dc5743600a81905550600182600581111561050157fe5b01600581111561050d57fe5b6000806101000a81548160ff0219169083600581111561052957fe5b02179055507f20a93b354024288ebb3e8893dcfb0fc10ac3171d14cd5094bf446efdd1303c6282600184600581111561055e57fe5b01600581111561056a57fe5b604051808060200184600581111561057e57fe5b60ff16815260200183600581111561059257fe5b60ff168152602001828103825260108152602001807f5068617365206973206368616e67656400000000000000000000000000000000815250602001935050505060405180910390a15b60036000809054906101000a900460ff1660058111156105f857fe5b81600581111561060457fe5b1415156106c5576040517f08c379a000000000000000000000000000000000000000000000000000000000815260040180806020018281038252604b8152602001807f5065726d697373696f6e2064656e6965642c206f7065726174696f6e206f757481526020017f206f66207468652072696768742070686173652120436865636b20746865206181526020017f637475616c20706861736500000000000000000000000000000000000000000081525060600191505060405180910390fd5b6000600102600b60003373ffffffffffffffffffffffffffffffffffffffff1673ffffffffffffffffffffffffffffffffffffffff168152602001908152602001600020546000191614151515610784576040517f08c379a000000000000000000000000000000000000000000000000000000000815260040180806020018281038252601b8152602001807f596f7520617265206e6f7420696e207468652061756374696f6e21000000000081525060200191505060405180910390fd5b6006549750873410151515610827576040517f08c379a00000000000000000000000000000000000000000000000000000000081526004018080602001828103825260408152602001807f596f757220626964206973206c6f776572207468616e2074686520726573657281526020017f76652070726963652c20796f75206c6f736520796f7572206465706f7369742181525060400191505060405180910390fd5b88346040518083805190602001908083835b60208310151561085e5780518252602082019150602081019050602083039250610839565b6001836020036101000a03801982511681845116808217855250505050505090500182815260200192505050604051809103902060001916600b60003373ffffffffffffffffffffffffffffffffffffffff1673ffffffffffffffffffffffffffffffffffffffff1681526020019081526020016000205460001916141515610975576040517f08c379a000000000000000000000000000000000000000000000000000000000815260040180806020018281038252603e8152602001807f4e6f206d617463682c2070726f766964652074686520636f727265637420766181526020017f6c756573206f7220796f75206c6f736520796f7572206465706f73697421000081525060400191505060405180910390fd5b600354965060015495508594506000600102600b60003373ffffffffffffffffffffffffffffffffffffffff1673ffffffffffffffffffffffffffffffffffffffff16815260200190815260200160002081600019169055508634111515610adf573485019450346005541015610ada57346005819055507fb92520b54fb89cd962c5a5764f8ba3f7b5cff673985cc9376b931918e32f2efc34600460009054906101000a900473ffffffffffffffffffffffffffffffffffffffff1660405180806020018481526020018373ffffffffffffffffffffffffffffffffffffffff1673ffffffffffffffffffffffffffffffffffffffff168152602001828103825260288152602001807f546865207365636f6e6420686967686573742062696420686173206265656e2081526020017f7570646174656421000000000000000000000000000000000000000000000000815250604001935050505060405180910390a15b610d3c565b600460009054906101000a900473ffffffffffffffffffffffffffffffffffffffff1693503460038190555033600460006101000a81548173ffffffffffffffffffffffffffffffffffffffff021916908373ffffffffffffffffffffffffffffffffffffffff160217905550600073ffffffffffffffffffffffffffffffffffffffff168473ffffffffffffffffffffffffffffffffffffffff16141515610bd557866005819055508373ffffffffffffffffffffffffffffffffffffffff166108fc889081150290604051600060405180830381858888f19350505050158015610bcf573d6000803e3d6000fd5b50610bdd565b876005819055505b7f5caf3e78c234268774887562882f13d98c42065d5d2098040520b6fdad3ab210346040518080602001838152602001828103825260128152602001807f41206e65772068696768657374206269642100000000000000000000000000008152506020019250505060405180910390a17fb92520b54fb89cd962c5a5764f8ba3f7b5cff673985cc9376b931918e32f2efc600554600460009054906101000a900473ffffffffffffffffffffffffffffffffffffffff1660405180806020018481526020018373ffffffffffffffffffffffffffffffffffffffff1673ffffffffffffffffffffffffffffffffffffffff168152602001828103825260288152602001807f546865207365636f6e6420686967686573742062696420686173206265656e2081526020017f7570646174656421000000000000000000000000000000000000000000000000815250604001935050505060405180910390a15b856002600082825403925050819055503373ffffffffffffffffffffffffffffffffffffffff166108fc869081150290604051600060405180830381858888f19350505050158015610d92573d6000803e3d6000fd5b50505050505050505050565b600a5481565b600760009054906101000a900473ffffffffffffffffffffffffffffffffffffffff1681565b600960009054906101000a900473ffffffffffffffffffffffffffffffffffffffff1681565b600b6020528060005260406000206000915090505481565b60008060008060009054906101000a900460ff169150600a549050600581014310158015610e4c575060046005811115610e3e57fe5b826005811115610e4a57fe5b105b15610f415743600a819055506001826005811115610e6657fe5b016005811115610e7257fe5b6000806101000a81548160ff02191690836005811115610e8e57fe5b02179055507f20a93b354024288ebb3e8893dcfb0fc10ac3171d14cd5094bf446efdd1303c62826001846005811115610ec357fe5b016005811115610ecf57fe5b6040518080602001846005811115610ee357fe5b60ff168152602001836005811115610ef757fe5b60ff168152602001828103825260108152602001807f5068617365206973206368616e67656400000000000000000000000000000000815250602001935050505060405180910390a15b60026000809054906101000a900460ff166005811115610f5d57fe5b816005811115610f6957fe5b14151561102a576040517f08c379a000000000000000000000000000000000000000000000000000000000815260040180806020018281038252604b8152602001807f5065726d697373696f6e2064656e6965642c206f7065726174696f6e206f757481526020017f206f66207468652072696768742070686173652120436865636b20746865206181526020017f637475616c20706861736500000000000000000000000000000000000000000081525060600191505060405180910390fd5b6000600102600b60003373ffffffffffffffffffffffffffffffffffffffff1673ffffffffffffffffffffffffffffffffffffffff16815260200190815260200160002054600019161415151561108057600080fd5b600260015481151561108e57fe5b0493506000600102600b60003373ffffffffffffffffffffffffffffffffffffffff1673ffffffffffffffffffffffffffffffffffffffff1681526020019081526020016000208160001916905550836002600082825403925050819055503373ffffffffffffffffffffffffffffffffffffffff166108fc859081150290604051600060405180830381858888f19350505050158015611133573d6000803e3d6000fd5b5050505050565b600080600760009054906101000a900473ffffffffffffffffffffffffffffffffffffffff1673ffffffffffffffffffffffffffffffffffffffff163373ffffffffffffffffffffffffffffffffffffffff1614806111e65750600860009054906101000a900473ffffffffffffffffffffffffffffffffffffffff1673ffffffffffffffffffffffffffffffffffffffff163373ffffffffffffffffffffffffffffffffffffffff16145b15156111ee57fe5b6000809054906101000a900460ff169150600a5490506005810143101515156112cb576040517f08c379a000000000000000000000000000000000000000000000000000000000815260040180806020018281038252604d8152602001807f3520626c6f636b73206d757374206265206d696e6564206265666f726520796f81526020017f7520636f756c64206368616e67652070686173652e20506c656173652074727981526020017f20616761696e206c61746572210000000000000000000000000000000000000081525060600191505060405180910390fd5b600460058111156112d857fe5b8260058111156112e457fe5b101515611359576040517f08c379a00000000000000000000000000000000000000000000000000000000081526004018080602001828103825260198152602001807f41756374696f6e20697320616c726561647920656e646564210000000000000081525060200191505060405180910390fd5b43600a81905550600182600581111561136e57fe5b01600581111561137a57fe5b6000806101000a81548160ff0219169083600581111561139657fe5b02179055507f20a93b354024288ebb3e8893dcfb0fc10ac3171d14cd5094bf446efdd1303c628260018460058111156113cb57fe5b0160058111156113d757fe5b60405180806020018460058111156113eb57fe5b60ff1681526020018360058111156113ff57fe5b60ff168152602001828103825260108152602001807f5068617365206973206368616e67656400000000000000000000000000000000815250602001935050505060405180910390a15050565b600080600080600080600060056000809054906101000a900460ff16600581111561147357fe5b81600581111561147f57fe5b141515611540576040517f08c379a000000000000000000000000000000000000000000000000000000000815260040180806020018281038252604b8152602001807f5065726d697373696f6e2064656e6965642c206f7065726174696f6e206f757481526020017f206f66207468652072696768742070686173652120436865636b20746865206181526020017f637475616c20706861736500000000000000000000000000000000000000000081525060600191505060405180910390fd5b600460009054906101000a900473ffffffffffffffffffffffffffffffffffffffff169750600960009054906101000a900473ffffffffffffffffffffffffffffffffffffffff169650600760009054906101000a900473ffffffffffffffffffffffffffffffffffffffff1695508773ffffffffffffffffffffffffffffffffffffffff163373ffffffffffffffffffffffffffffffffffffffff1614806116485750600860009054906101000a900473ffffffffffffffffffffffffffffffffffffffff1673ffffffffffffffffffffffffffffffffffffffff163373ffffffffffffffffffffffffffffffffffffffff1614801561164757506105a0600a54014310155b5b15156116bc576040517f08c379a00000000000000000000000000000000000000000000000000000000081526004018080602001828103825260128152602001807f5065726d697373696f6e2044656e69656421000000000000000000000000000081525060200191505060405180910390fd5b6005549450600354935084840392506000600460006101000a81548173ffffffffffffffffffffffffffffffffffffffff021916908373ffffffffffffffffffffffffffffffffffffffff1602179055508773ffffffffffffffffffffffffffffffffffffffff166108fc849081150290604051600060405180830381858888f19350505050158015611753573d6000803e3d6000fd5b506000600760006101000a81548173ffffffffffffffffffffffffffffffffffffffff021916908373ffffffffffffffffffffffffffffffffffffffff1602179055508573ffffffffffffffffffffffffffffffffffffffff166108fc869081150290604051600060405180830381858888f193505050501580156117dc573d6000803e3d6000fd5b507f66eb258f8cd526decddb60d20a4fbcf9c87abf89183d4419d9dd9f5a1d5085ee856040518080602001838152602001828103825260278152602001807f5468652070656e64696e67207472616e7366657220686173206265656e20657881526020017f65637574656421000000000000000000000000000000000000000000000000008152506040019250505060405180910390a18691508173ffffffffffffffffffffffffffffffffffffffff16636cd2f3216040518163ffffffff167c0100000000000000000000000000000000000000000000000000000000028152600401600060405180830381600087803b1580156118da57600080fd5b505af11580156118ee573d6000803e3d6000fd5b50505050600960009054906101000a900473ffffffffffffffffffffffffffffffffffffffff1673ffffffffffffffffffffffffffffffffffffffff166108fc6002549081150290604051600060405180830381858888f1935050505015801561195c573d6000803e3d6000fd5b508573ffffffffffffffffffffffffffffffffffffffff16ff5b600860009054906101000a900473ffffffffffffffffffffffffffffffffffffffff1681565b60008060008060008060009054906101000a900460ff169150600a5490506005810143101580156119e35750600460058111156119d557fe5b8260058111156119e157fe5b105b15611ad85743600a8190555060018260058111156119fd57fe5b016005811115611a0957fe5b6000806101000a81548160ff02191690836005811115611a2557fe5b02179055507f20a93b354024288ebb3e8893dcfb0fc10ac3171d14cd5094bf446efdd1303c62826001846005811115611a5a57fe5b016005811115611a6657fe5b6040518080602001846005811115611a7a57fe5b60ff168152602001836005811115611a8e57fe5b60ff168152602001828103825260108152602001807f5068617365206973206368616e67656400000000000000000000000000000000815250602001935050505060405180910390a15b60046000809054906101000a900460ff166005811115611af457fe5b816005811115611b0057fe5b141515611bc1576040517f08c379a000000000000000000000000000000000000000000000000000000000815260040180806020018281038252604b8152602001807f5065726d697373696f6e2064656e6965642c206f7065726174696f6e206f757481526020017f206f66207468652072696768742070686173652120436865636b20746865206181526020017f637475616c20706861736500000000000000000000000000000000000000000081525060600191505060405180910390fd5b600760009054906101000a900473ffffffffffffffffffffffffffffffffffffffff1673ffffffffffffffffffffffffffffffffffffffff163373ffffffffffffffffffffffffffffffffffffffff161480611c6a5750600860009054906101000a900473ffffffffffffffffffffffffffffffffffffffff1673ffffffffffffffffffffffffffffffffffffffff163373ffffffffffffffffffffffffffffffffffffffff16145b1515611c7257fe5b600760009054906101000a900473ffffffffffffffffffffffffffffffffffffffff169550600460009054906101000a900473ffffffffffffffffffffffffffffffffffffffff169450600460009054906101000a900473ffffffffffffffffffffffffffffffffffffffff1673ffffffffffffffffffffffffffffffffffffffff163373ffffffffffffffffffffffffffffffffffffffff16141515611d1557fe5b7f649af8020253c009be6e7da27829695738a0177b4636adda9d86a7a244c753ed8560055460405180806020018473ffffffffffffffffffffffffffffffffffffffff1673ffffffffffffffffffffffffffffffffffffffff168152602001838152602001828103825260158152602001807f5468652061756374696f6e20697320656e646564210000000000000000000000815250602001935050505060405180910390a1600073ffffffffffffffffffffffffffffffffffffffff168573ffffffffffffffffffffffffffffffffffffffff16141515611ed7576000809054906101000a900460ff16935043600a819055506001846005811115611e1757fe5b016005811115611e2357fe5b6000806101000a81548160ff02191690836005811115611e3f57fe5b02179055507f05e17bc502f00339222045756cd45b20d1e2c68d44f423a1f6edcfe2226a92026040518080602001828103825260228152602001807f5468652070656e64696e67207472616e7366657220686173206265656e20736581526020017f742100000000000000000000000000000000000000000000000000000000000081525060400191505060405180910390a1612042565b7f649af8020253c009be6e7da27829695738a0177b4636adda9d86a7a244c753ed85600060405180806020018473ffffffffffffffffffffffffffffffffffffffff1673ffffffffffffffffffffffffffffffffffffffff168152602001838152602001828103825260158152602001807f5468652061756374696f6e20697320656e646564210000000000000000000000815250602001935050505060405180910390a1600960009054906101000a900473ffffffffffffffffffffffffffffffffffffffff1673ffffffffffffffffffffffffffffffffffffffff166108fc6002549081150290604051600060405180830381858888f19350505050158015611fe6573d6000803e3d6000fd5b506000600760006101000a81548173ffffffffffffffffffffffffffffffffffffffff021916908373ffffffffffffffffffffffffffffffffffffffff1602179055508573ffffffffffffffffffffffffffffffffffffffff16ff5b505050505050565b60055481565b6000809054906101000a900460ff1681565b60015481565b60035481565b60065481565b6000806000809054906101000a900460ff169150600a5490506005810143101580156120b65750600460058111156120a857fe5b8260058111156120b457fe5b105b156121ab5743600a8190555060018260058111156120d057fe5b0160058111156120dc57fe5b6000806101000a81548160ff021916908360058111156120f857fe5b02179055507f20a93b354024288ebb3e8893dcfb0fc10ac3171d14cd5094bf446efdd1303c6282600184600581111561212d57fe5b01600581111561213957fe5b604051808060200184600581111561214d57fe5b60ff16815260200183600581111561216157fe5b60ff168152602001828103825260108152602001807f5068617365206973206368616e67656400000000000000000000000000000000815250602001935050505060405180910390a15b60016000809054906101000a900460ff1660058111156121c757fe5b8160058111156121d357fe5b141515612294576040517f08c379a000000000000000000000000000000000000000000000000000000000815260040180806020018281038252604b8152602001807f5065726d697373696f6e2064656e6965642c206f7065726174696f6e206f757481526020017f206f66207468652072696768742070686173652120436865636b20746865206181526020017f637475616c20706861736500000000000000000000000000000000000000000081525060600191505060405180910390fd5b600760009054906101000a900473ffffffffffffffffffffffffffffffffffffffff1673ffffffffffffffffffffffffffffffffffffffff163373ffffffffffffffffffffffffffffffffffffffff16141515156122ee57fe5b6000600102600b60003373ffffffffffffffffffffffffffffffffffffffff1673ffffffffffffffffffffffffffffffffffffffff1681526020019081526020016000205460001916148015612345575060015434145b1515612405576040517f08c379a00000000000000000000000000000000000000000000000000000000081526004018080602001828103825260548152602001807f496620796f7520646f206e6f7420616c726561647920636f6d6d69742061206281526020017f69642c206d616b65207375726520746f6f2073656e6420746865206465706f7381526020017f697420616d6f756e7420636f72726563746c792100000000000000000000000081525060600191505060405180910390fd5b83600b60003373ffffffffffffffffffffffffffffffffffffffff1673ffffffffffffffffffffffffffffffffffffffff16815260200190815260200160002081600019169055503460026000828254019250508190555050505050565b600460009054906101000a900473ffffffffffffffffffffffffffffffffffffffff16815600a165627a7a7230582015c58509612a5bae7d65129a725ff722c9f0cd6840ca98e5336d63c9f226e3440029",
  "source": "pragma solidity 0.4.23;\r\n\r\nimport \"./AuctionManager.sol\";\r\n\r\ncontract VicreyAuction {\r\n    \r\n    // Different Phase of the auction\r\n    enum Phase {\r\n        GloryPhase,\r\n        Commitment,\r\n        Withdrawal,\r\n        Opening,\r\n        Finilizing,\r\n        Pending\r\n    }\r\n    // Global variable of the phase\r\n    Phase public phase = Phase.GloryPhase;\r\n    \r\n    uint256 public deposit;     // deposit for each partecipiant\r\n    // global variable to take into account all deposit values\r\n    uint256 private totalDeposit;       \r\n    \r\n    uint256 public highestBid;             // acutal highest bid\r\n    address public actualWinner;          // acutal highest bidder\r\n    \r\n    uint256 public actualPrice;          // acutal second highest bid\r\n    uint256 public reservePrice;    // minimum price of good\r\n    \r\n    address public seller;          // seller of the good\r\n    address public manager;         // manager address\r\n\r\n    address public managerContract; // contract menager address\r\n\r\n    uint256 public blockCount;     // block counter to update the phase\r\n    \r\n    // map to store all hash of committers\r\n    mapping (address => bytes32) public bidHash;\r\n\r\n    event LogAuctionEnded(string detail, address winner, uint256 price);      // end of auction\r\n    event LogNewHighest(string detail, uint256 amount);                       // update of highest bid\r\n    event LogNewSecondHighest(string detail, uint256 amount, address);                 // update of second highest bid\r\n    event LogNewPhase(string detail, Phase oldP, Phase newP);                 // update of the phase\r\n    event LogNoBidder(string detail);                          // if noone make a bid for the good before the end of the auction\r\n    event LogAddPending(string detail);\r\n    event LogExePending(string detail, uint256 amount);\r\n\r\n    // modifier to check if the function is called in the right phase\r\n    modifier atPhase(Phase _phase) {\r\n        require(_phase == phase, \r\n        \"Permission denied, operation out of the right phase! Check the actual phase\");\r\n        _;\r\n    }\r\n\r\n    // modifier to change phase based on block mined\r\n    modifier changePhase() {\r\n        Phase oldP = phase;\r\n        uint256 count = blockCount;\r\n\r\n        if ( block.number >= count + 5 && oldP < Phase.Finilizing) {\r\n            blockCount = block.number;\r\n            phase = Phase(uint(oldP) + 1);\r\n        \r\n            emit LogNewPhase(\"Phase is changed\", oldP, Phase(uint(oldP)+1));\r\n        }\r\n        _;\r\n    }\r\n\r\n    // modifier to avoid that the seller bid on its own auction\r\n    modifier notSeller() {\r\n        assert(msg.sender != seller);\r\n        _;\r\n    }\r\n\r\n    // modifier to permit only to seller and manager to change phase\r\n    modifier canChangePhase() {\r\n        assert(msg.sender == seller || msg.sender == manager);\r\n        _;\r\n    }\r\n    \r\n    constructor (uint256 resPrice, uint256 depositValue, address sellerAdd, address manAdd) public {\r\n        // Cannot be executed if the reserveprice is zero\r\n        require(resPrice > 0, \"The reserve price must be grater than zero!\");\r\n        reservePrice = resPrice;\r\n        \r\n        // the second higest start from the reserve price, while the highest one is zero\r\n        actualPrice = resPrice;\r\n        \r\n        deposit = depositValue;\r\n\r\n        seller = sellerAdd;\r\n        manager = manAdd;\r\n        managerContract = msg.sender;\r\n\r\n        emit LogNewPhase(\"A new Vicrey auction is created\", Phase.GloryPhase, Phase.GloryPhase);\r\n    }\r\n    \r\n    // Go forward to the next Phase, only seller or menager contract\r\n    // Emitting an event to inform all the partecipiant interested \r\n    function nextPhase() canChangePhase() public {\r\n        Phase oldP = phase;\r\n        uint256 count = blockCount;\r\n        \r\n        require(block.number >= count + 5, \r\n            \"5 blocks must be mined before you could change phase. Please try again later!\");\r\n        require(oldP < Phase.Finilizing,\r\n            \"Auction is already ended!\");\r\n        \r\n        blockCount = block.number;\r\n        phase = Phase(uint(oldP) + 1);\r\n        \r\n        emit LogNewPhase(\"Phase is changed\", oldP, Phase(uint(oldP)+1));\r\n    }\r\n    \r\n    // Commit a new bid by providing the deposit and an hash of the bid\r\n    function commit(bytes32 hashValue) public payable changePhase() atPhase(Phase.Commitment) {\r\n        assert(msg.sender != seller);\r\n        require(bidHash[msg.sender] == 0 && msg.value == deposit, \r\n                \"If you do not already commit a bid, make sure too send the deposit amount correctly!\");\r\n        \r\n        bidHash[msg.sender] = hashValue;\r\n        \r\n        totalDeposit += msg.value;\r\n    }\r\n    \r\n    // Withdraw a bid and get back half of the deposit\r\n    function withdraw() public changePhase() atPhase(Phase.Withdrawal) {\r\n        require(bidHash[msg.sender] != 0);\r\n        \r\n        uint256 halfDeposit = deposit/2;\r\n        \r\n        // avoid the rientrance by delete the bidder from the auction\r\n        bidHash[msg.sender] = 0;\r\n        \r\n        totalDeposit -= halfDeposit;\r\n        msg.sender.transfer(halfDeposit);\r\n    }\r\n    \r\n    // Open the bid by providing the value of the bid and the nonce\r\n    function openBid(string nonce) public payable changePhase() atPhase(Phase.Opening) {\r\n        require(bidHash[msg.sender] != 0, \"You are not in the auction!\");\r\n        \r\n        uint256 resPrice = reservePrice;\r\n        \r\n        // The value must be grater than the reserve price otherwise you lose your deposit\r\n        require(msg.value >= resPrice, \"Your bid is lower than the reserve price, you lose your deposit!\");\r\n        // Hash must match otherwise you lose your deposit\r\n        require(bidHash[msg.sender] == keccak256(nonce, uint256(msg.value)), \"No match, provide the correct values or you lose your deposit!\");\r\n        \r\n        uint256 actualHighest = highestBid;\r\n\r\n        uint256 localDeposit = deposit;\r\n        uint256 refund = localDeposit;\r\n        \r\n        // avoid the rientrance buy delete the bidder from the auction\r\n        bidHash[msg.sender] = 0;\r\n        \r\n        if ( msg.value <= actualHighest ) {\r\n            refund += msg.value;\r\n\r\n            // If the bid is not the highest but it is grater than the second highest\r\n            // update the second highest\r\n            if (actualPrice < msg.value) {\r\n                actualPrice = msg.value;\r\n                \r\n                emit LogNewSecondHighest(\"The second highest bid has been updated!\", msg.value, actualWinner);\r\n            }\r\n        }\r\n        else {\r\n            address oldWinner = actualWinner;\r\n            \r\n            // Update the highest bid and bidder\r\n            highestBid = msg.value;\r\n            actualWinner = msg.sender;\r\n\r\n            // Update the second highest bid and bidder\r\n            if (oldWinner != address(0)) {\r\n                actualPrice = actualHighest;\r\n\r\n                // Give back to the old second his bid amount\r\n                oldWinner.transfer(actualHighest);\r\n            }\r\n            else {\r\n                actualPrice = resPrice;\r\n            }\r\n            \r\n            emit LogNewHighest(\"A new highest bid!\", msg.value);\r\n            emit LogNewSecondHighest(\"The second highest bid has been updated!\", actualPrice, actualWinner);\r\n        }\r\n\r\n        totalDeposit -= localDeposit;\r\n        \r\n        // Anyway give back to the bidder his deposit\r\n        msg.sender.transfer(refund);\r\n    }\r\n    \r\n    // End the auction by transfer the value of the highest bid to the seller\r\n    function finalize() public changePhase() atPhase(Phase.Finilizing) canChangePhase() {\r\n        address sellAddress = seller;\r\n        address winner = actualWinner;\r\n\r\n        // Can be executed only from the seller or \r\n        // the highest bidder or in some case from the manager\r\n        assert(msg.sender == actualWinner);\r\n\r\n        \r\n        emit LogAuctionEnded(\"The auction is ended!\", winner, actualPrice);\r\n        \r\n        // Check if there is actually a valid bid for the good\r\n        if (winner != address(0)) {\r\n            Phase oldP = phase;\r\n            // avoid rientrance by set to zero actual price of the good\r\n            blockCount = block.number;\r\n            phase = Phase(uint(oldP) + 1);\r\n\r\n            emit LogAddPending(\"The pending transfer has been set!\");\r\n        }\r\n        else {\r\n            emit LogAuctionEnded(\"The auction is ended!\", winner, 0);\r\n        \r\n            // Send deposit to manager contract all deposit eventually accumulated\r\n            managerContract.transfer(totalDeposit);\r\n\r\n            // Distruct the contract\r\n            seller = 0;\r\n            selfdestruct(sellAddress);\r\n        }        \r\n    }\r\n\r\n    function transferPending() public atPhase(Phase.Pending) {\r\n        address winner = actualWinner;\r\n        address managerRef = managerContract;\r\n        address sellerAdd = seller;\r\n\r\n        require(msg.sender == winner \r\n                || (msg.sender == manager && block.number >= blockCount + 1440), \r\n                \"Permission Denied!\");\r\n\r\n        uint256 price = actualPrice;\r\n        uint256 winnerAmount = highestBid;\r\n        uint256 refund;\r\n        \r\n        refund = winnerAmount - price;\r\n        actualWinner = 0;\r\n        // Give back to the highest bidder the difference between\r\n        // his bid and the second highest bid\r\n        winner.transfer(refund);\r\n        \r\n        seller = 0;\r\n        // Pay the seller\r\n        sellerAdd.transfer(price);\r\n        \r\n        emit LogExePending(\"The pending transfer has been executed!\", price);\r\n\r\n        AuctionManager man = AuctionManager(managerRef);\r\n        man.deleteVicreyAuction();\r\n\r\n        // Send deposit to manager contract all deposit eventually accumulated\r\n        managerContract.transfer(totalDeposit);\r\n\r\n        // Distruct the contract\r\n        selfdestruct(sellerAdd);\r\n    }\r\n\r\n    \r\n}",
  "sourcePath": "/home/zed/Documenti/Dapp/contracts/VicreyAuction.sol",
  "compiler": {
    "name": "solc",
    "version": "0.4.23+commit.124ca40d.Emscripten.clang"
  },
  "schemaVersion": "3.0.11",
  "updatedAt": "2019-07-27T17:29:02.764Z",
  "devdoc": {
    "methods": {}
  },
  "userdoc": {
    "methods": {}
  }
}